:020000040800F2
:1000000068160020E10100084F11000841100008A7
:100010004D11000813030008E7130008000000005A
:10002000000000000000000000000000490100087E
:1000300015030008000000008D01000851110008A0
:10004000FB010008FB010008FB010008FB010008A0
:10005000FB010008FB010008FB010008FB01000890
:10006000FB010008FB010008FB010008FB01000880
:10007000FB010008FB010008FB010008FB01000870
:10008000FB010008FB010008FB010008FB01000860
:10009000FB010008FB010008FB0100082D0300081C
:1000A000FB010008FB010008FB010008FB01000840
:1000B000FB010008FB010008FB010008FB01000830
:1000C000FB010008FB010008FB010008FB01000820
:1000D000FB010008FB010008FB010008FB01000810
:1000E00017030008FB010008FB010008FB010008E2
:1000F000FB010008FB010008FB010008FB010008F0
:10010000FB010008FB010008FB010008FB010008DF
:10011000FB010008FB010008FB010008C5110008F5
:10012000FB010008FB010008FB010008FB010008BF
:10013000DFF810D000F0CCF800480047691700083D
:10014000AFF3008068160020224B19680868B0E8F9
:10015000F00F80F30988BFF36F8F4FF0000080F33A
:1001600011884EF00D0E7047000000000648006830
:10017000006880F3088862B661B6BFF34F8FBFF3A3
:100180006F8F00DF00BF00BF08ED00E0EFF30980D4
:10019000BFF36F8F0F4B1A6820E9F00F106008B59E
:1001A0004FF0BF0080F31188BFF34F8FBFF36F8F05
:1001B00002F0E2F84FF0000080F31188BDE808403B
:1001C00019680868B0E8F00F80F30988BFF36F8FF3
:1001D000704700BF44000020EFF305807047000027
:1001E0000648804706480047FEE7FEE7FEE7FEE7D1
:1001F000FEE7FEE7FEE7FEE7FEE7FEE7C3110008C5
:1002000031010008202A04DB203A21FA02F0002103
:10021000704721FA02F3D040C2F120029140084316
:100220001946704740EA01039B0703D009E008C95B
:10023000121F08C0042AFAD203E011F8013B00F8AB
:10024000013B521EF9D27047D2B201E000F8012BF7
:10025000491EFBD270470022F6E710B513460A4646
:1002600004461946FFF7F0FF204610BD2DE9F05F68
:100270000546002092469B46884606468146402415
:100280001BE02846414647462246FFF7BBFF534640
:100290005A46C01A914110D311461846224600F022
:1002A00029F82D1A67EB01084F462246012000214C
:1002B00000F020F817EB00094E41201EA4F10104C4
:1002C000DFDC484631462A464346BDE8F09F000041
:1002D000064C074D06E0E06840F0010394E8070093
:1002E00098471034AC42F6D3FFF726FF402A0008A7
:1002F000602A0008202A04DB203A00FA02F10020DC
:1003000070479140C2F1200320FA03F31943904053
:100310007047FEE7704710B54FF4806000F05CF85E
:10032000BDE810404FF4006000F056B810B54FF42F
:10033000807000F051F8BDE810404FF4007000F0FC
:100340004BB872B6FEE7000010B5B0F5807F0DD057
:10035000B0F5007F11D0B0F5806F10D0B0F5006F10
:100360000AD108A0BDE8104001F03EB80AA001F093
:100370003BF80E490120087010BD0DA0F2E711A056
:10038000F0E700005357362069732070726573736D
:1003900065640D0A00000000535733206973207014
:1003A0007265737365640D0A000000001000002080
:1003B00053573420697320707265737365640D0A36
:1003C0000000000053573520697320707265737305
:1003D00065640D0A00000000044910B50A68024275
:1003E00002D00860FFF7B0FF10BD00001404014008
:1003F0002DE9F84FDFF8C8910024A9F1040B23463A
:100400000F2709F1040AABF1040ED1E00125A54044
:1004100006EA0502AA4276D1DFF8A8C14E68A6EB2B
:100420000C0866452BD00DDC032E34D005DC36B32A
:10043000012E19D0022E2FD11BE0112E16D0122E14
:100440002AD119E0B8F5881F19D006DCB8F5803F2D
:1004500015D0B8F5801F1FD111E0B8F5001F0ED0E0
:10046000B8F5041F18D10AE0CB6815E0CB681B1D56
:1004700012E0CB6808330FE0CB680C330CE08B68DC
:100480002BB1012B4FF0080303D0456104E0042396
:1004900002E0056100E00023FF2A01D8064601E0E2
:1004A00000F104064FEA840501D9A5F12005D6F82C
:1004B000008007FA05FC28EA0C0803FA05F548EA6B
:1004C0000508C6F800804D68ED0070D53E4DAE6958
:1004D00046F00106AE61AD6924F0030605F00105A2
:1004E00000953A4D06EB050CDCF80850A607360FD0
:1004F00007FA06F825EA0805DFF8D480404503D15D
:100500004FF0000825E052E0DFF8C880404502D1F6
:100510004FF001081DE0DFF8C080404502D14FF0E8
:10052000020816E0DFF8B480404502D14FF003081E
:100530000FE0DFF8AC80404502D14FF0040808E03E
:10054000DFF8A080404502D14FF0050801E04FF0F0
:10055000060808FA06F848EA0508CCF808804D684D
:10056000D9F80060ED024D4601D5164300E09643F0
:100570002E604D68DAF80060AD02554601D516438D
:1005800000E096432E604D68DBF80060AD035D46E9
:1005900001D5164300E096432E604D68DEF80060FA
:1005A000ED03754601D5164300E096432E60641CAA
:1005B0000A681646E2407FF429AFBDE8F88F0000D4
:1005C000080401400000111000100240000001402A
:1005D00000080140000C01400010014000140140DF
:1005E00000180140001C0140C26821EA02030A40D1
:1005F00043EA0241016170470AB101617047090491
:10060000FBE70000014880687047000014000020EC
:10061000024881680278114481607047140000200C
:10062000074810B5016841F010010160032000F097
:10063000A1F8012000F006F800F050F8002010BDED
:100640000020024030B505461F4887B0C16941F01F
:100650002001C161C06906A900F02000009001A836
:1006600000F030F90498B0B100F04CF9400017499F
:10067000174AB0FBF1F11748491E0260416040F291
:10068000E7320021C0E903218160816100F012FBA3
:10069000040003D015E000F035F9E8E70D4800F05C
:1006A00037FB04000DD1372000F036F8102D07D2AB
:1006B00000222946372000F03DF80748056000E099
:1006C000012407B0204630BD0010024040420F0018
:1006D00000140040AC100020180000200C4808B5A1
:1006E000816941F001018161816901F0010100919D
:1006F000C16941F08051C161C06900F08050009033
:100700000448416821F0E06141F00071416008BD9A
:100710000010024000000140002809DB00F01F0229
:10072000012191404009800000F1E020C0F8001153
:1007300070470000F0B40E4B1B680C46C3F3022355
:10074000C3F10705042D00D90425191D072901D27D
:10075000002300E0DB1E012606FA05F1491E2140B8
:1007600099409E40761E16403143F0BC00F04CBECE
:100770000CED00E0064900F0070208684FF6FF03A1
:10078000184040EA0220034A104308607047000006
:100790000CED00E00000FA052DE9F0470F460500DA
:1007A00061D0434E306800F00700B84209D230688B
:1007B00020F0070038433060306800F00700B8428E
:1007C00051D128683B4C810712D5400703D560689A
:1007D00040F4E06060602878000703D5606840F46A
:1007E000605060606068A96820F0F00008436060B5
:1007F0002878C00728D06868012810D0216802280E
:1008000010D0890700292EDA616821F00301014325
:100810006160FFF7F7FE804641F288390DE02168FC
:100820008903EFE78901EDE7FFF7ECFEA0EB080194
:10083000494502D90320BDE8F0876068696800F087
:100840000C00B0EB810FEFD1306800F00700B84228
:100850000BD9306820F0070038433060306800F072
:100860000700B84201D00120E5E72878400705D508
:100870006068E96820F4E060084360602878000759
:1008800006D56068296920F4605040EAC1006060C4
:1008900000F058F86168084AC1F30311515CC84080
:1008A0000649086006480068FFF7CCFE0020C2E752
:1008B0000020024000100240262A000820000020EC
:1008C000180000200F2202600C4A536803F0030353
:1008D0004360536803F0F0038360536803F4E063FC
:1008E000C36052684FF4E06303EAD2020261044835
:1008F000006800F007000860704700000010024028
:10090000002002400448054900684968044AC1F3D0
:100910000221515CC84070472000002000100240B6
:10092000362A00080448054900684968044AC1F3AA
:10093000C221515CC84070472000002000100240D6
:10094000362A00080E4A51680E4801F00C03042BA9
:1009500011D0082B0FD10C48C1F38343C903C05CED
:100960000AD55168084AC1F34041921E515C054ABC
:100970005043B0FBF1F07047044948437047000012
:100980000010024000127A00162A000800093D00FB
:100990002DE9F84F040070D02078C04DC00749D031
:1009A0006868C0F38100012807D06868C0F381003F
:1009B000022809D16868C00306D52868800339D5A4
:1009C00060680028E7D035E06068B0F5803F0BD064
:1009D00010B1B0F5A02F11D0286820F48030286025
:1009E000286820F4802002E0286840F480302860E5
:1009F000606890B1FFF706FE06460AE0286840F4FA
:100A000080202860F0E700BFFFF7FCFD801B642812
:100A100073D828688003F7D50CE0FFF7F3FD06468E
:100A200005E000BFFFF7EEFD801B6428F0D82868C2
:100A30008003F7D420789A4E80074FF001094FF0D9
:100A4000000839D5686810F00C0F07D06868C0F34B
:100A50008100022809D16868C00306D4286880078D
:100A600014D52069012808D110E02069B0B1C6F87A
:100A70000090FFF7C7FD074605E00AE1FFF7C2FD5A
:100A8000C01B0228C4D828688007F7D52868616988
:100A900020F0F80040EAC10028600DE0C6F80080B0
:100AA000FFF7B0FD074604E0FFF7ACFDC01B0228CE
:100AB00023D828688007F7D4207800072CD57948F8
:100AC000A169D9B1C0F80090FFF79CFD074604E08A
:100AD000FFF798FDC01B02280FD8686A8007F7D57A
:100AE00071484FF4FA510068B0FBF1F0009000BF7C
:100AF0000098411E0091FAD20EE080E0C0F800801C
:100B0000FFF780FD074604E0FFF77CFDC01B0228CD
:100B100075D8686A8007F7D42078400760D5E869FF
:100B20000027C00008D4E86940F08050E861E86917
:100B3000012700F0805000905C480168C90513D47B
:100B40000168834641F480710160FFF75BFD8246D6
:100B500006E000BFFFF756FDA0EB0A0064284ED860
:100B6000DBF80000C005F5D5E06801280AD008B11F
:100B7000052813D0286A20F001002862286A20F096
:100B8000040002E0286A40F001002862E06841F2B7
:100B9000883B98B1FFF736FD82460BE0286A40F0AB
:100BA00004002862EEE700BFFFF72CFDA0EB0A016E
:100BB00059455AD8286A8007F6D50CE0FFF722FD80
:100BC000824605E0FFF71EFDA0EB0A0159454CD80F
:100BD000286A8007F6D41FB1E86920F08050E861E8
:100BE000E06988B36968C1F38101022944D0022811
:100BF000C6F8608004D0FFF705FD044638E034E015
:100C0000FFF700FD074604E0FFF7FCFCC01B0228CD
:100C10002BD828688001F7D4206AB0F5803F05D131
:100C20006868A16820F4003008436860D4E90801CE
:100C30000843696821F4741108436860C6F860903D
:100C4000FFF7E0FC044606E025E000BFFFF7DAFC12
:100C5000001B022809D828688001F7D51BE000BFD7
:100C6000FFF7D0FC001B022802D90320BDE8F88F53
:100C700028688001F4D40EE00128F7D06868226A61
:100C800000F48031914204D1616A00F4701088420E
:100C900001D00120EAE70020E8E700000010024050
:100CA00000004242800442422000002000700040C8
:100CB0007047704710B5040003D094F83D0010B1A0
:100CC00007E0012010BD002084F83C00204600F021
:100CD0001EF8022084F83D00211D206800F078FAFB
:100CE000012084F8460084F83E0084F83F0084F830
:100CF000400084F8410084F8420084F8430084F8FE
:100D0000440084F8450084F83D00002010BD704781
:100D100090F83D10012901D001207047022180F890
:100D20003D100168CA6842F00102CA6000680E49BD
:100D300088420ED00D4988420BD0B0F1804F08D0C8
:100D40000B49884205D00B49884202D00A498842A3
:100D500004D1816801F00701062903D0016841F040
:100D60000101016000207047002C01400034014067
:100D70000004004000080040000C004070472DE9CE
:100D8000F04104460068C66805694FF00007A907EE
:100D900013D5B10711D5F91E016101202077206814
:100DA00080698007204602D0FFF7E8FF04E000F0EA
:100DB0007EF8204600F07CF82777680716D5700784
:100DC00014D521686FF004000861022020772068A4
:100DD000806910F4407F204602D0FFF7CFFF04E087
:100DE00000F065F8204600F063F82777280715D54E
:100DF000300713D521686FF00800086104202077C0
:100E00002068C0698007204602D0FFF7B7FF04E0E2
:100E100000F04DF8204600F04BF82777E80616D58D
:100E2000F00614D521686FF01000086108202077C3
:100E30002068C06910F4407F204602D0FFF79EFF73
:100E400004E000F034F8204600F032F82777E80795
:100E500008D0F00706D021686FF001000861204635
:100E600000F028F8280608D5300606D521686FF06E
:100E7000800008612046FFF71BFF680608D5700652
:100E800006D521686FF040000861204600F01CF88C
:100E9000A8060AD5B00608D521686FF020000861C1
:100EA0002046BDE8F041FFF704BFBDE8F081704780
:100EB0007047000000680349884201D1FFF7A8BBD2
:100EC0007047000000140040704770B5040004D063
:100ED00094F84100002510B106E0012070BD84F8AF
:100EE0004050204600F024F8242084F84100206877
:100EF000C16821F40051C160204600F0DFF920688C
:100F0000016921F4904101612068416921F02A01C1
:100F100041612068C16841F40051C16065642020CE
:100F200084F8410084F842006563002070BD000031
:100F300030B585B0002400940194029403940068B5
:100F40001449884224D11448816941F48041816167
:100F5000816901F480410491816941F0040181615A
:100F600080690E4D00F0040004904FF40070009072
:100F7000022001900320039069462846FFF738FAC3
:100F80002815CDE90004694628460294FFF730FA97
:100F900005B030BD0038014000100240000801409B
:100FA0002DE9F843044690F84100984616460D4650
:100FB000202802D00220BDE8F88385B17EB1002050
:100FC0006064212084F84100FFF71CFBA684814661
:100FD000E684A0682027B0F5805F02D003E00120FE
:100FE000E9E7206910B12E4600250EE000260CE04E
:100FF0008021204600F0BEF9A8B9C6B116F8010B51
:1010000021684860E08C401EE084E08C4B464FF045
:101010000002CDF800800028EAD14FF040012046C0
:1010200000F0A8F940B184F841700320C3E735F817
:10103000020BC0F30800E3E784F841700020BAE730
:10104000FEE700002DE9F04186B000242C48009412
:10105000019402940394816941F0100181618169D6
:1010600001F010010491816941F080018161816981
:1010700001F080010491816941F00401816180697E
:10108000DFF8808000F0040040F203160490012293
:1010900031464046FFF7B0FA4FF4407000901A48CE
:1010A0000125CDE90105194F69463846FFF7A0F93A
:1010B0004FF440600090164801900220029069466B
:1010C0003846FFF795F90320CDE90240CDE90065E8
:1010D00069464046FFF78CF9002203211720FFF7ED
:1010E00029FB1720FFF718FB002203212820FFF718
:1010F00021FB2820FFF710FB06B0BDE8F0810000BF
:10110000001002400008014000002110001C0140B6
:10111000000011100C4810B50A4901604FF4E1318C
:101120004160002181600C22C160C0E9041281612C
:10113000C161FFF7CAFE002803D0BDE81040FFF7E9
:1011400000B910BD0038014064100020FEE7FEE742
:1011500010B501F091FA012803D0BDE8104001F06C
:1011600049B910BD30B58FB028216846FFF773F834
:1011700014210AA8FFF76FF801210804CDE9001037
:101180000024029402250491CDE907504FF4E010A9
:1011900009906846FFF7FCFB08B172B6FEE70F2026
:1011A000CDE90A054FF48060CDE90C4002210AA880
:1011B0000E94FFF7F1FA002801D072B6FEE70FB0E7
:1011C00030BD70470148FFF7DABD0000AC100020C9
:1011D000F0B50268204C214D214E224F224B4FF09A
:1011E000804CA04209D0984207D0604505D0A84263
:1011F00003D0B04201D0B84204D122F0700E4A6848
:1012000042EA0E02A04209D0984207D0604505D0BC
:10121000A84203D0B04201D0B84203D122F44075B5
:10122000CA682A434D6922F080022A4302608A6814
:10123000C2620A688262A04201D0984201D1096963
:101240000163012141610169C90703D0016921F0EE
:1012500001010161F0BD0000002C014000040040CC
:1012600000080040000C00400034014001680C31CF
:1012700051E8002F22F4907241E80023002BF5D1B1
:101280000168143151E8002F22F0010241E80023E7
:10129000002BF5D1016B012909D101680C3151E80E
:1012A000002F22F0100241E80023002BF5D120216D
:1012B00080F84210002101637047000070B50446B9
:1012C00000680169E26821F440511143016121691C
:1012D000A0680843616908432168CA6841F20C6349
:1012E0009A430243CA6020684169A26921F44071AF
:1012F000114341611E492068884202D1FFF712FB69
:1013000001E0FFF7FFFA00EBC00101EB001260689B
:1013100064218000B2FBF0F3B3FBF1F36FF0180629
:101320007343B2FBF0F5B2FBF0F605EB8305322315
:1013300003EB0515B5FBF1F5B6FBF1F605F0F0058D
:1013400005EB0615B2FBF0F6B2FBF0F0B0FBF1F0E6
:101350006FF01802504306EB800003EB0010B0FB67
:10136000F1F0216800F00F002844886070BD000093
:10137000003801402DE9F843984617460D460446CB
:10138000089E24E0701C22D0FFF73CF9A0EB080077
:10139000B0421AD8CEB12068C168490717D5802D50
:1013A00015D0402D13D00168C94309070FD4016837
:1013B0000025406800902046FFF758FF0820606431
:1013C00084F840500120BDE8F8830320FBE7206843
:1013D000006835EA000004D00020B842D2D00020D6
:1013E000F1E70120F9E7FEE70FB4054B10B503A9BB
:1013F000044A029800F028F810BC5DF814FB0000C5
:1014000009170008980000200907090E002804DBCE
:1014100000F1E02080F80014704700F00F0000F1A8
:10142000E02080F8141D704702E008C8121F08C1B0
:10143000002AFAD170477047002001E001C1121F55
:10144000002AFBD1704700002DE9FF4F8DB09B466D
:101450000F460446002606E025280BD05A460F9971
:101460009047641C761C20780028F5D111B03046D6
:10147000BDE8F08F0025A8460122984900E0054309
:1014800014F8013F203B02FA03F00842F7D120781C
:101490002E2817D114F8010F45F004052A280ED084
:1014A0006FF02F022078A0F1300109290AD808EB4B
:1014B000880102EB410100EB0108641CF2E757F8D8
:1014C000048B641C20786C280DD004DC4C2812D0CE
:1014D0006A2811D104E074280DD07A280CD10AE0D2
:1014E00045F4001507E0617845F48015814202D18A
:1014F000641C05F58015641C2078692844D008DC3C
:101500000028B3D0582867D063280FD0642808D1AA
:101510003AE0702865D0732812D075285AD0782800
:101520005AD05A460F999047761CD5E017F8040B0D
:101530008DF8000000208DF80100E946012003E04D
:1015400057F8049B4FF0FF3069074FF0000501D4B6
:101550000AE06D1C45450DDA8542FADB19F80510E5
:101560000029F6D106E06D1C8542FCDB19F8051058
:101570000029F8D12E4404E019F8010B5A460F99BE
:1015800090476D1EF8D2A7E00A200021CDE908019E
:10159000C5F3025002280CD001CFC117021E71F111
:1015A00000020CDA0023D0EB030063EB01012D22D3
:1015B00008E0FF1D27F00707F7E80201EEE72A051C
:1015C00004D52B228DF8282001223CE0EA073AD0EE
:1015D0002022F7E70A2000E010200021CDE90801D1
:1015E00007E01020002145F00405CDE908014FF087
:1015F0000808C5F30250022810D001CF00214FF097
:10160000000A2A0720D52278702A0DD0DDE908C308
:101610008CF0100C5CEA030C0CD015E0FF1D27F0D9
:101620000707F7E80201EAE740228DF828204FF08B
:10163000010A0CE050EA010306D030238DF828306F
:101640008DF82920022292462278582A04D024A21A
:101650000DF120090B9209E026A2F9E7DDE9082344
:10166000FEF704FE0B9B9B5C09F8013D50EA01026A
:10167000F4D1ADEB090020300890680701D44FF099
:1016800001080899884503DD0898A8EB000000E0F0
:1016900000208046002506E00AA85A46405D0F99C2
:1016A00090476D1C761C5545F6DB04E030205A4609
:1016B0000F999047761CB8F10001A8F10108F5DCFC
:1016C00005E019F8010B5A460F999047761C0899C6
:1016D000481E08900029F4DC641CC4E609280100B7
:1016E0003031323334353637383961626364656698
:1016F000000000003031323334353637383941425A
:10170000434445460000000013B54FF6FF73012225
:1017100069460248FFF744FC00981CBD6410002095
:101720000EB5094A0120A2F500718DE807000023DB
:10173000802206A10A4800F075FF0A490860BDE84A
:101740000E4000F0F3BD00009C0200207374617233
:10175000745F7461736B5F7374617469630000001C
:10176000751E000800000020FEF75AFFFFF7FAFC84
:10177000FFF768FCFFF7CEFC02A0FFF735FEFFF78E
:10178000CFFFFEE748656C6C6F2052544F530D0A33
:10179000000000002DE9F047204C0F460546E668A2
:1017A000D4F83490D4F838802068001D00F052FC42
:1017B00038B9206890F82C100120884021698143B5
:1017C0002161681C15D1A7B115492268486890604D
:1017D00023688268DA6022688368121D5A60226872
:1017E000121D8260206841610868401C0860BDE8E5
:1017F000F08720683544B5424560216805D24046EF
:10180000BDE8F047091D00F05BBC4846091D00F02B
:1018100057FCA06A8542EAD2A562E8E744000020AE
:10182000A81100202DE9F041054600F06DFC364C72
:10183000A068401CA0602068344F10B1606940B3BC
:101840002DE02560A068012829D1002606EB86003E
:1018500007EB800000F026FC761C052EF6D32B4803
:10186000643000F01FFC2948783000F01BFC27484A
:101870008C3000F017FC2548A03000F013FC234802
:10188000B43000F00FFC2148643060631430A06372
:1018900005E02068E96AC06A884200D82560606A6D
:1018A0000121401C6062E86A226981401143216184
:1018B00000EB800007EB80004068A8608168E96069
:1018C0008268291D51608160E86A00EB800007EBA7
:1018D0008001696157F82010491C47F8201000F07A
:1018E00021FC606900280CD02068E96AC06A88423F
:1018F00007D207494FF080500860BFF34F8FBFF306
:101900006F8FBDE8F081000044000020F41000203B
:1019100004ED00E038B500F0F7FB0E4C2068A8B9E4
:101920000D4800F0BFFB0C48143000F0BBFB0A4828
:10193000E06014302061084B0020843B009003F1EC
:1019400048020C21052000F06BFD2060BDE8384006
:1019500000F0E8BB840000204012002070B50C4C61
:101960000C4E11E000F0D0FBF068C568281D00F0B7
:1019700071FBA068401EA0606068401E606000F0BF
:10198000D1FB284600F050F860680028EAD170BD0D
:10199000440000209411002030B4026C0B46002A51
:1019A0000BD0C1681144C1608468A14201D30168B1
:1019B000C16030BC1846FEF735BC30BC7047000033
:1019C00030B58BB00024039404940594204603A9F9
:1019D000069411A2125C0A5412B1401C0F28F8D3CD
:1019E0000C540F4D079409AA08A907A8089400F001
:1019F00043FBDDE907010094CDE90110002303A9B1
:101A00002846099A00F00EFE06490028086000D01A
:101A100001200BB030BD000049444C4500000000DF
:101A20004D1A00088000002010B5044690F84900C7
:101A300030B1012808D12046BDE8104000F07CBB41
:101A4000206B00F079FBF6E710BD0000074C4FF06B
:101A50008056074DFFF782FF20680128FAD92E60D3
:101A6000BFF34F8FBFF36F8FF4E70000F410002037
:101A700004ED00E00346009829B10260C0E90F318F
:101A8000012100F0E1BC0060F8E72DE9F04799463C
:101A9000DDE9096480466FF00303206B03EB8202EB
:101AA000089D104420F0070761B1002023180A5C4C
:101AB00083F834200A5C12B1401C1028F6D30020B1
:101AC00084F84300052D00D30425201DE56200F0B5
:101AD000F4FA04F1180000F0F0FA2461C5F10500F1
:101AE0006462A0614A464146384600F0B1F9206080
:101AF000002E00D03460BDE8F087000030B51149F9
:101B000000E011460A688242FBD34B685C188442AD
:101B100003D1406818444860084643681C18944242
:101B200009D1084C143C2468A24209D052681A44D6
:101B300042600A6812680260814200D0086030BDCD
:101B40000460F9E73800002070B5002441600B4DB7
:101B50000061914206D8D11A8269914206D2011DD4
:101B6000286907E09A4203D2994201D3012403E095
:101B7000011DE86800F0A4FA204670BD8400002032
:101B800010B5044600F0C0FAA06B28B15FF0000465
:101B900000F0C8FA204610BD0124F9E770B50646EA
:101BA0000D480D46C068C068C468201D00F052FA98
:101BB00094F82400410705D52A463146204600F016
:101BC000B1F803E000F0FE0084F824002046216A0A
:101BD000BDE8704008470000840000207FB5002069
:101BE00000900190334E02905BE00098002858DB93
:101BF000029CA4B3606910B1201D00F02BFA03A869
:101C000000F0B2F8054600980A284AD2DFE800F052
:101C1000490505282E3D0505282E94F824002A465E
:101C200040F0010084F824000198A16903460144B2
:101C30002046FFF789FF90B194F82400410707D5AB
:101C40000198A1692A460144204600F06BF803E0A0
:101C500000F0FE0084F82400216A2046884720E036
:101C600014F8240F00F0FE0020701AE094F824000D
:101C70002B4640F0010084F824000198A06141192E
:101C80001A462046FFF760FF0BE094F82400810716
:101C900003D4204600F050FA03E000F0FE0084F880
:101CA000240000226946306800F018FC00289CD10E
:101CB0007FBD000084000020F8B50D46064600F008
:101CC00053FB684600F050F80446009810B100F04D
:101CD000E1FDF8BD1148ADB101690968D9B1002530
:101CE000311B2A46006800F055FA00F0D3FD0028A9
:101CF000EFD10B494FF080500860BFF34F8FBFF317
:101D00006F8FF8BDA642EBD800F0C4FD21463046E7
:101D1000FFF744FFF8BD0125E2E700008400002042
:101D200004ED00E070B516460C46054604E0A869CF
:101D3000296A044428468847A8692346011932467F
:101D40002846FFF701FF0028F1D170BD0548416B1F
:101D5000096821B1416BC9680968816270474FF019
:101D6000FF31FAE7440000202DE9F041064600F07B
:101D700091FC0E4C0546A068854214D24FF0FF3707
:101D800004E0C06839460068FFF708FFE0680168B2
:101D90000029F6D12169C4E90310012030602846EA
:101DA000A560BDE8F0810020F8E700008400002075
:101DB000BF2080F31188BFF34F8FBFF36F8FFEE713
:101DC000074CE068016841B1C0680021D0F800000C
:101DD000FFF772FFFFF702FFF3E701210020F7E7AB
:101DE000840000202DE9F041044600F08DF994F9BB
:101DF000455004F1240609E0606A48B1304600F01D
:101E0000E3FC08B100F05CFA6D1E6DB2002DF3DC4E
:101E10004FF0FF3684F8456000F084F900F074F963
:101E200094F9445004F1100709E0206948B138469C
:101E300000F0CAFC08B100F043FA6D1E6DB2002D2F
:101E4000F3DC84F84460BDE8F04100F06BB90000B9
:101E500010B5031F4FF080741C601B1F21F001019F
:101E60001960191F024B0B60143940380A6010BD0D
:101E7000B11D00083EB500F047F9174A0220A2F54F
:101E800000718DE807000023802214A1154800F09E
:101E9000C9FB154C154A00236060A2F500710320B0
:101EA0008DE80700802212A1134800F0BBFB134A03
:101EB000A060A2F5007104208DE8070000238022B5
:101EC0000FA1114800F0AEFBE060206800F09CF923
:101ED000BDE83E4000F026B9E80400207461736B51
:101EE000310000000D1F0008000000203407002012
:101EF0007461736B32000000411F000880090020EC
:101F00007461736B33000000751F0008064C4FF4BA
:101F1000FA7506A0FFF768FA01212046FEF764FB78
:101F2000284600F059F9F4E7000801407461736B2A
:101F3000312069732072756E6E696E670D0A00003C
:101F4000064C4FF4FA7506A0FFF74EFA0221204620
:101F5000FEF74AFB284600F03FF9F4E7000801408D
:101F60007461736B322069732072756E6E696E676F
:101F70000D0A00000026114D114C4FF4FA7711A004
:101F8000FFF732FA287850B1606880B112A0FFF7ED
:101F90002BFA606800F038F92E7066600AE017A02E
:101FA000FFF722FA1BA06168FFF71EFA02E01EA0ED
:101FB000FFF71AFA384600F00FF9E0E710000020AA
:101FC000000000207461736B332069732072756E9A
:101FD0006E696E670D0A00004B65793320697320C6
:101FE000707265737365642C2064656C6574696ECA
:101FF00067207461736B310D0A0000004B65793303
:10200000206973206E6F7420707265737365640D40
:102010000A0000007461736B315F68616E646C6507
:102020003A2025700D0A00004B6579332069732032
:10203000707265737365642C2062757420746173AB
:102040006B315F68616E646C65206973204E554C1E
:102050004C0D0A00D0E9013201699A60D0E90123F0
:102060005A604A68824201D182684A600022026155
:102070000868401E08607047034B036003F14C0082
:102080000860802010607047CC090020044B03607A
:1020900003F14C0008604FF480701060704700003E
:1020A000180C002000F108014FF0FF32C0E90112C6
:1020B000C16001610021016070470021016170472A
:1020C00030B50B685A1C02D000F1080202E0026928
:1020D00004E02246546825689D42FAD953684B6053
:1020E00099608A60516008610168491C016030BDD7
:1020F00042684A6093688B60936859609160086198
:102100000168491C01607047BF2080F31188BFF34C
:102110004F8FBFF36F8F02480168491C0160704701
:102120004000002003490868401E086001D180F388
:10213000118870474000002070B500281BD0A0F126
:1021400008046068002816DA2168002913D120F0FD
:102150000040606000F008F9074D60686968084455
:1021600068602046FFF7CAFC2869401C2861BDE86A
:10217000704000F08FBB70BD240000204FF0E020C5
:1021800000210161816102494161072101617047BC
:102190003F19010070B515460E460446FFF7B4FF1F
:1021A00094F944100020491C01D184F8440094F9AA
:1021B0004510491C01D184F84500FFF7B3FFA06B1F
:1021C00028B92A46314604F1240000F08FF8204651
:1021D000BDE87040FFF706BE10B5020009D000F060
:1021E000C3F800211046FFF7D5FA00F053FB002892
:1021F00007D104494FF080500860BFF34F8FBFF301
:102200006F8F10BD04ED00E070B50546FFF77CFF51
:10221000244C05B92568281DFFF71CFF58B9E86A4A
:10222000214A00EB800152F8211021B9012181409F
:10223000206988432061A86A18B105F11800FFF7EA
:1022400009FF606A401C60622068854201D101205C
:1022500000E00020616959B150B11348291DA03038
:10226000FFF746FF6068401C6060FFF75BFF09E016
:10227000A068401EA060FFF769FDFFF753FF2846E6
:10228000FFF7D2FB606900280AD02068854207D199
:1022900006494FF080500860BFF34F8FBFF36F8F38
:1022A00070BD000044000020F410002004ED00E0A8
:1022B00002490A6A0260C968416070474400002010
:1022C00001490120086070476000002010B50C46ED
:1022D000054909681831FFF7F3FE2046BDE81040B4
:1022E0000121FFF757BA000044000020F0B40C466B
:1022F0000D4943680D68EB619D680E6835620D6895
:102300009E68183575600D6818359D60096888628B
:102310000168491C01600AB14FF0FF342046F0BC4F
:102320001146FFF737BA00004400002010B5FFF750
:1023300047FB0C4C012813D100F042FB01280FD1C0
:10234000BF2080F31188BFF34F8FBFF36F8F4FF023
:10235000FF30A062012060610020E06000F032F8F0
:10236000E06A10BD440000200248016B491C016373
:10237000704700004400002010490A6B01F11C0066
:1023800012B10121016070470022026008690C4A05
:10239000B0FA80F0C0F11F0000EB800002EB80007B
:1023A00000F108034268526842609A4201D1C26853
:1023B0004260D06808600868704700004400002050
:1023C000F4100020094810B5016841F47F01016054
:1023D000016841F07F410160FFF7D0FE0449002011
:1023E0000860FDF7C3FE002010BD000020ED00E0F6
:1023F0004000002010B5BF2080F31188BFF34F8F3D
:10240000BFF36F8F00F04CF918B104494FF08050C2
:102410000860002080F3118810BD000004ED00E08A
:1024200038B50024049D60B15BB10AB109B908E078
:1024300039B91C46012384F846302B460094FFF737
:1024400019FB204638BD00002DE9F0410F4604007D
:102450004FF001063CD0E06BC8B3B51EB5FBF0F100
:10246000206C814234D3FFF74FFED4E90F2021685E
:1024700002FB0011A1600021A163216861600A468E
:10248000D4E90F01401E00FB01212046E16000F865
:10249000445F457004F110004FB1FFF703FE04F1F3
:1024A0002400FFF7FFFD00BFFFF73CFE11E02169AC
:1024B0000029F9D000F088F90028F5D006494FF03E
:1024C00080500860BFF34F8FBFF36F8FECE7FFE7DB
:1024D00000263046BDE8F08104ED00E02DE9F74725
:1024E0000026DFF8E48083B08A460446B1464FF008
:1024F000805700BFFFF708FEA56BC5B151462046C7
:10250000FFF74AFA6D1EA563206950B104F110006F
:1025100000F05AF928B1C8F80070BFF34F8FBFF32D
:102520006F8FFFF7FFFD012006B0BDE8F08705982B
:1025300008B11EB106E0FFF7F5FD27E06846FFF79A
:10254000B7FE0126FFF7EEFDFFF70EFFFFF7DCFDFC
:1025500094F94400401C01D184F8449094F945005A
:10256000401C01D184F84590FFF7DCFD05A96846C1
:1025700000F02CF8002820460AD0FFF733FC00F0CA
:1025800089F92046FFF7FCFA0028B3D00020CBE7FA
:10259000FFF7F6FA90B104F124000599FFF796FED3
:1025A0002046FFF71FFC00F075F90028A2D1C8F8FB
:1025B0000070BFF34F8FBFF36F8F9BE72046FFF78D
:1025C00011FC00F067F995E704ED00E02DE9F0411A
:1025D0000C460546FFF798FD114EF2686B682168BE
:1025E000D01A4F1C0AD02F68D6F820C000266745A5
:1025F00006D0934204D8012526600BE0002509E0AF
:10260000814205D9081A20602846FFF751FEF5E7F8
:1026100001252660FFF786FD2846BDE8F081000011
:10262000440000202DE9F04F85B00027DDE90F546C
:102630000E9E04978246894690461F460DF1100B68
:10264000B4B1ADB14C212046FDF705FE0220256353
:1026500084F849000021CDE90241CDE9006B3B46F9
:10266000424649465046FFF710FA2046FFF7DAF88F
:10267000049805B0BDE8F08F0548416919B1006BB9
:1026800018B10020704701207047022070470000F9
:10269000440000200148C06870470000440000204A
:1026A0002DE9F041464C0026206B28B1A069401C62
:1026B000A0613046BDE8F081E5686D1CE56008D199
:1026C000606BA16B6163A063206A401C2062FFF70E
:1026D0003DFBA16A3B488D420FD34FF0000E616B6A
:1026E000096839B1616BC968C9684A68954214D2F2
:1026F000A26202E04FF0FF31A1622168C96A01EBDA
:10270000810150F82100012800D901262C481C30F5
:1027100000680028CDD00126CBE7D1E902724B69D1
:10272000BA60D1E902277A605F680A1D974201D139
:10273000CF685F60C1F814E01F687F1E1F60D1F88A
:1027400028C0BCF1000F15D0D1E907379F60D1E94F
:1027500007377B60DCF8047001F118039F4202D157
:102760000B6ACCF80430C1F828E0DCF800305B1EBE
:10277000CCF80030CB6A0127D4F810C09F4047EA5C
:102780000C07276103EB830300EB83035B688B601B
:102790009F68CF609F687A609A60CA6A02EB820283
:1027A00000EB82034B6150F822305B1C40F8223072
:1027B000C96A2268D26A914291D901268FE7000046
:1027C00044000020F410002070B5C068C068D0E953
:1027D0000731826A9960D0E907135960536800F1A4
:1027E00018018B4201D1036A53600023836214688D
:1027F000641E1460254A156B0124ADB1244D6B682D
:10280000C3619E6806629E687160996085622968EE
:10281000491C2960C06A1168C96A884234D91B49B9
:1028200001201C310C6070BDD0E902654169B560C2
:10283000D0E9025675604E68051DAE4201D1C668EA
:102840004E6043610B685B1E0B60C36A166904FA35
:1028500003F13143116103EB83010D4B8C3B03EB1F
:102860008101496881608E68C6608E6875608D6080
:10287000C16A01EB810103EB8105456153F82150E9
:102880006D1C43F82150C5E7002070BD44000020B6
:10289000801100202DE9F04700242746FFF734FC83
:1028A000444D286B401E2863286B00287CD1A86803
:1028B000DFF804C1A2464FF0010905F11C06E8BB90
:1028C00072E000BFDCF80C00C468D4E90721A06AFC
:1028D0009160D4E907125160426804F118018A42FC
:1028E00001D1216A4160C4F828A001685246491EFE
:1028F0000160D4E9023160699960D4E9021359603A
:102900004368211D8B4201D1E36843606261026824
:10291000521E0260E36AD5F810804A4609FA03F0B5
:1029200040EA0800286103EB8300234B8C3B03EB58
:1029300080004068A060D0F8088000E017E0C4F88C
:102940000C80D0F80880C8F804108160E06A00EBC1
:10295000800003EB8001616153F82010491C43F8AB
:102960002010E06A2968C96A884200D93260DCF820
:1029700000000028A6D10CB1FFF7E8F9AC6944B11A
:10298000FFF78EFE08B1C6F80090641EF8D1C5F8B6
:1029900018A0306840B12868012708493807086046
:1029A000BFF34F8FBFF36F8FFFF7BCFB3846BDE817
:1029B000F0870000440000208011002004ED00E0BA
:1029C00030B587B00024FEF7A5FF0E4D2868A8B1EA
:1029D00000200390049005AA04A903A8FFF756FB62
:1029E000DDE9032104208DE80700002306A1084843
:1029F000059AFFF717FE686000B1012407B0204672
:102A000030BD000084000020546D722053766300B6
:102A1000C11D0008010202030405060708090A0B8C
:102A20000C0D0E0F1010000000000000000001024D
:102A30000304060708090000000001020304000067
:102A4000602A0008000000209C00000028140008F4
:102A5000FC2A00089C000020CC1500003814000857
:102A60000000000000000000000000000000000066
:102A70000000000001000000100000000000000045
:102A800000127A00000000000000000000000000BA
:102A90000000000000000000000000000000000036
:102AA000AAAAAAAA0000000000000000000000007E
:102AB0000000000000000000000000000000000016
:102AC0000000000000000000000000000000000006
:102AD00004000000000000000000000000000000F2
:102AE00000000000000000000000000000000000E6
:0C2AF000000000000000000000000000DA
:0400000508000131BD
:00000001FF
