:020000040800F2
:10000000684A0020E1010008571300087911000830
:10001000551300084D0200086F160008000000008C
:10002000000000000000000000000000490100087E
:100030004F020008000000008D010008591300085D
:10004000FB010008FB010008FB010008FB010008A0
:10005000FB010008FB010008FB010008FB01000890
:10006000FB010008FB010008FB010008FB01000880
:10007000FB010008FB010008FB010008FB01000870
:10008000FB010008FB010008FB010008FB01000860
:10009000FB010008FB010008FB01000867020008E3
:1000A000FB010008FB010008FB010008FB01000840
:1000B000CD130008D9130008FB010008FB0100085C
:1000C000FB010008FB010008FB010008FB01000820
:1000D000FB010008FB010008FB010008FB01000810
:1000E00051020008FB010008FB010008FB010008A9
:1000F000FB010008FB010008FB010008FB010008F0
:10010000FB010008FB010008FB010008FB010008DF
:10011000FB010008FB010008FB010008E5130008D3
:10012000FB010008FB010008FB010008FB010008BF
:10013000DFF810D000F078F8004800472D170008CD
:10014000AFF30080684A0020224B19680868B0E8C5
:10015000F00F80F30988BFF36F8F4FF0000080F33A
:1001600011884EF00D0E7047000000000648006830
:10017000006880F3088862B661B6BFF34F8FBFF3A3
:100180006F8F00DF00BF00BF08ED00E0EFF30980D4
:10019000BFF36F8F0F4B1A6820E9F00F106008B59E
:1001A0004FF0500080F31188BFF34F8FBFF36F8F74
:1001B00001F0E6FD4FF0000080F31188BDE8084033
:1001C00019680868B0E8F00F80F30988BFF36F8FF3
:1001D000704700BF3C000020EFF30580704700002F
:1001E0000648804706480047FEE7FEE7FEE7FEE7D1
:1001F000FEE7FEE7FEE7FEE7FEE7FEE7CB130008BB
:1002000031010008D2B201E000F8012B491EFBD2F7
:1002100070470022F6E710B513460A460446194611
:10022000FFF7F0FF204610BD064C074D06E0E068E2
:1002300040F0010394E8070098471034AC42F6D32D
:10024000FFF77AFF2021000840210008FEE77047F1
:1002500010B54FF4806000F05DF8BDE810404FF439
:10026000006000F057B810B54FF4807000F052F8FD
:10027000BDE810404FF4007000F04CB872B6FEE7D5
:1002800010B50F4CB0F5807F0DD0B0F5007F10D0C9
:10029000B0F5806F11D0B0F5006F09D109A0BDE8AD
:1002A000104001F0E5B90CA001F0E2F90120207046
:1002B00010BD022020700DA0F1E711A0EFE70000B3
:1002C00008000020535736206973207072657373DD
:1002D00065640D0A000000005357332069732070D5
:1002E0007265737365640D0A000000005357342073
:1002F000697320707265737365640D0A00000000F5
:1003000053573520697320707265737365640D0AE5
:1003100000000000044910B50A68024202D00860DB
:10032000FFF7AEFF10BD0000140401402DE9F84FA7
:10033000DFF8C8910024A9F1040B23460F2709F127
:10034000040AABF1040ED1E00125A54006EA05023E
:10035000AA4276D1DFF8A8C14E68A6EB0C08664524
:100360002BD00DDC032E34D005DC36B3012E19D092
:10037000022E2FD11BE0112E16D0122E2AD119E0F9
:10038000B8F5881F19D006DCB8F5803F15D0B8F550
:10039000801F1FD111E0B8F5001F0ED0B8F5041F63
:1003A00018D10AE0CB6815E0CB681B1D12E0CB68C2
:1003B00008330FE0CB680C330CE08B682BB1012BBA
:1003C0004FF0080303D0456104E0042302E0056117
:1003D00000E00023FF2A01D8064601E000F10406F0
:1003E0004FEA840501D9A5F12005D6F8008007FA67
:1003F00005FC28EA0C0803FA05F548EA0508C6F8E2
:1004000000804D68ED0070D53E4DAE6946F00106A6
:10041000AE61AD6924F0030605F0010500953A4D83
:1004200006EB050CDCF80850A607360F07FA06F8AD
:1004300025EA0805DFF8D480404503D14FF00008D5
:1004400025E052E0DFF8C880404502D14FF00108B6
:100450001DE0DFF8C080404502D14FF0020816E0F1
:10046000DFF8B480404502D14FF003080FE0DFF819
:10047000AC80404502D14FF0040808E0DFF8A080CE
:10048000404502D14FF0050801E04FF0060808FA98
:1004900006F848EA0508CCF808804D68D9F80060ED
:1004A000ED024D4601D5164300E096432E604D689F
:1004B000DAF80060AD02554601D5164300E09643D8
:1004C0002E604D68DBF80060AD035D4601D5164334
:1004D00000E096432E604D68DEF80060ED0375463F
:1004E00001D5164300E096432E60641C0A68164648
:1004F000E2407FF429AFBDE8F88F00000804014016
:1005000000001110001002400000014000080140EE
:10051000000C01400010014000140140001801408F
:10052000001C01400AB1016170470904FBE70000AB
:1005300001488068704700000C0000200248816874
:1005400002781144816070470C000020074810B504
:10055000016841F010010160032000F0A1F80120C2
:1005600000F006F800F050F8002010BD0020024016
:1005700030B505461F4887B0C16941F02001C1610F
:10058000C06906A900F02000009001A800F030F931
:100590000498B0B100F04CF940001749174AB0FB7D
:1005A000F1F11748491E0260416040F2E732002134
:1005B000C0E903218160816100F050FB040003D099
:1005C00015E000F035F9E8E70D4800F0A5FB040060
:1005D0000DD1372000F036F8102D07D20022294621
:1005E000372000F03DF80748056000E0012407B01F
:1005F000204630BD0010024040420F000014004071
:1006000058010020100000200C4808B5816941F015
:1006100001018161816901F001010091C16941F02D
:100620008051C161C06900F0805000900448416869
:1006300021F0E06141F00071416008BD001002400E
:1006400000000140002809DB00F01F020121914059
:100650004009800000F1E020C0F800117047000060
:10066000F0B40E4B1B680C46C3F30223C3F107051D
:10067000042D00D90425191D072901D2002300E00B
:10068000DB1E012606FA05F1491E214099409E40D5
:10069000761E16403143F0BC00F0F2BF0CED00E0D6
:1006A000064900F0070208684FF6FF03184040EAC9
:1006B0000220034A10430860704700000CED00E080
:1006C0000000FA052DE9F0470F46050061D0434EC2
:1006D000306800F00700B84209D2306820F0070007
:1006E00038433060306800F00700B84251D12868C4
:1006F0003B4C810712D5400703D5606840F4E060A9
:1007000060602878000703D5606840F4605060603E
:100710006068A96820F0F000084360602878C0078E
:1007200028D06868012810D02168022810D08907D5
:1007300000292EDA616821F0030101436160FFF7AF
:10074000F7FE804641F288390DE021688903EFE722
:100750008901EDE7FFF7ECFEA0EB0801494502D95E
:100760000320BDE8F0876068696800F00C00B0EB1A
:10077000810FEFD1306800F00700B8420BD9306824
:1007800020F0070038433060306800F00700B842BE
:1007900001D00120E5E72878400705D56068E968C1
:1007A00020F4E060084360602878000706D56068A0
:1007B000296920F4605040EAC100606000F058F8F8
:1007C0006168084AC1F30311515CC84006490860DA
:1007D00006480068FFF7CCFE0020C2E70020024078
:1007E0000010024006210008180000201000002020
:1007F0000F2202600C4A536803F0030343605368FE
:1008000003F0F0038360536803F4E063C36052684D
:100810004FF4E06303EAD20202610448006800F08A
:1008200007000860704700000010024000200240EE
:100830000448054900684968044AC1F30221515C33
:10084000C840704718000020001002401621000820
:100850000448054900684968044AC1F3C221515C53
:10086000C840704718000020001002401621000800
:100870000E4A51680E4801F00C03042B11D0082BCE
:100880000FD10C48C1F38343C903C05C0AD551683A
:10089000084AC1F34041921E515C054A5043B0FBE7
:1008A000F1F07047044948437047000000100240CF
:1008B00000127A00F620000800093D002DE9F84FEB
:1008C000040070D02078C04DC00749D06868C0F3DC
:1008D0008100012807D06868C0F38100022809D18F
:1008E0006868C00306D52868800339D56068002889
:1008F000E7D035E06068B0F5803F0BD010B1B0F5BF
:10090000A02F11D0286820F480302860286820F4B7
:10091000802002E0286840F480302860606890B150
:10092000FFF706FE06460AE0286840F480202860AB
:10093000F0E700BFFFF7FCFD801B642873D8286830
:100940008003F7D50CE0FFF7F3FD064605E000BF96
:10095000FFF7EEFD801B6428F0D828688003F7D4E9
:1009600020789A4E80074FF001094FF0000839D5E2
:10097000686810F00C0F07D06868C0F38100022887
:1009800009D16868C00306D42868800714D5206997
:10099000012808D110E02069B0B1C6F80090FFF737
:1009A000C7FD074605E00AE1FFF7C2FDC01B0228AC
:1009B000C4D828688007F7D52868616920F0F80056
:1009C00040EAC10028600DE0C6F80080FFF7B0FDE6
:1009D000074604E0FFF7ACFDC01B022823D82868B7
:1009E0008007F7D4207800072CD57948A169D9B1C0
:1009F000C0F80090FFF79CFD074604E0FFF798FD64
:100A0000C01B02280FD8686A8007F7D571484FF4D9
:100A1000FA510068B0FBF1F0009000BF0098411E51
:100A20000091FAD20EE080E0C0F80080FFF780FD70
:100A3000074604E0FFF77CFDC01B022875D8686AF2
:100A40008007F7D42078400760D5E8690027C00008
:100A500008D4E86940F08050E861E869012700F0B7
:100A6000805000905C480168C90513D40168834632
:100A700041F480710160FFF75BFD824606E000BF34
:100A8000FFF756FDA0EB0A0064284ED8DBF8000003
:100A9000C005F5D5E06801280AD008B1052813D0B3
:100AA000286A20F001002862286A20F0040002E091
:100AB000286A40F001002862E06841F2883B98B162
:100AC000FFF736FD82460BE0286A40F004002862FA
:100AD000EEE700BFFFF72CFDA0EB0A0159455AD8FD
:100AE000286A8007F6D50CE0FFF722FD824605E074
:100AF000FFF71EFDA0EB0A0159454CD8286A800774
:100B0000F6D41FB1E86920F08050E861E06988B34D
:100B10006968C1F38101022944D00228C6F86080C7
:100B200004D0FFF705FD044638E034E0FFF700FD90
:100B3000074604E0FFF7FCFCC01B02282BD82868FE
:100B40008001F7D4206AB0F5803F05D16868A168BC
:100B500020F4003008436860D4E90801084369685C
:100B600021F4741108436860C6F86090FFF7E0FC58
:100B7000044606E025E000BFFFF7DAFC001B022870
:100B800009D828688001F7D51BE000BFFFF7D0FC2B
:100B9000001B022802D90320BDE8F88F28688001D5
:100BA000F4D40EE00128F7D06868226A00F480319E
:100BB000914204D1616A00F47010884201D0012092
:100BC000EAE70020E8E7000000100240000042428F
:100BD00080044242180000200070004070477047B7
:100BE00070B590F83C20012A2CD0012480F83C40BC
:100BF000022280F83D2003685A689D6822F0700642
:100C00000A6832435A60104B02689A420ED00F4B6A
:100C10009A420BD0B2F1804F08D00D4B9A4205D0CA
:100C20000C4B9A4202D00C4B9A4204D1496825F0F1
:100C300080031943916080F83D40002180F83C100A
:100C4000084670BD022070BD002C014000340140F8
:100C50000004004000080040000C004010B50400F3
:100C600003D094F83D0010B107E0012010BD002032
:100C700084F83C00204600F01FF8022084F83D0074
:100C8000211D206800F0B4FB012084F8460084F8A0
:100C90003E0084F83F0084F8400084F8410084F866
:100CA000420084F8430084F8440084F8450084F846
:100CB0003D00002010BD000008B501681448B1F1E6
:100CC000804F14D0134A914220D1C16941F00201F2
:100CD000C161C069002200F00200009006211D20C1
:100CE000FFF7BEFC1D20BDE80840FFF7ABBCC169A3
:100CF00041F00101C161C069002200F001000090D3
:100D000004211C20FFF7ACFC1C20ECE708BD000010
:100D1000001002400004004090F83D10012901D06D
:100D200001207047022180F83D100168CA6842F036
:100D30000102CA6000680E4988420ED00D498842FF
:100D40000BD0B0F1804F08D00B49884205D00B4939
:100D5000884202D00A49884204D1816801F0070123
:100D6000062903D0016841F00101016000207047AD
:100D7000002C014000340140000400400008004005
:100D8000000C004070B5044690F83C000025012896
:100D900017D0012684F83C60022084F83D002068CA
:100DA000826822F0770222F47F428260086850282D
:100DB00038D00DDC20284FD005DC90B3102811D19D
:100DC0004AE0022070BD302846D040280AD13BE0DE
:100DD00060282FD070280DD0B0F5805F03D0B0F51B
:100DE000005F12D0012584F83D60002084F83C00AB
:100DF000284670BDCB68D1E90121206800F046FB90
:100E00002068816841F0770109E0CB68D1E90121D0
:100E1000206800F03BFB2068816841F480418160DC
:100E2000E1E719E0CA684968206800F041FB5021F9
:100E3000206806E0CA684968206800F04AFB602123
:100E4000206800F02DFBCEE7CA684968206800F0F2
:100E50002FFB40212068F4E7226801461046F0E7A6
:100E600070472DE9F04104460068C66805694FF0F7
:100E70000007A90713D5B10711D5F91E016101209B
:100E80002077206880698007204602D0FFF7E8FFBE
:100E900004E000F07EF8204600F07CF82777680731
:100EA00016D5700714D521686FF004000861022080
:100EB00020772068806910F4407F204602D0FFF739
:100EC000CFFF04E000F065F8204600F063F82777D4
:100ED000280715D5300713D521686FF00800086181
:100EE000042020772068C0698007204602D0FFF7E1
:100EF000B7FF04E000F04DF8204600F04BF82777EC
:100F0000E80616D5F00614D521686FF010000861C8
:100F1000082020772068C06910F4407F204602D066
:100F2000FFF79EFF04E000F034F8204600F032F8AE
:100F30002777E80708D0F00706D021686FF0010096
:100F40000861204600F028F8280608D5300606D5A6
:100F500021686FF0800008612046FFF73FFE6806B9
:100F600008D5700606D521686FF04000086120465C
:100F700000F046F8A8060AD5B00608D521686FF03B
:100F8000200008612046BDE8F041FFF728BEBDE81B
:100F9000F08170477047000010B5044600680A49A8
:100FA000884201D1FFF7CAFA2068B0F1804F07D01C
:100FB0000649884206D106A0BDE8104000F058BBA3
:100FC00009A0F9E710BD0000001400400004004033
:100FD00054494D3320506572696F6420456C6170CF
:100FE0007365640D0A00000054494D32205065724B
:100FF000696F6420456C61707365640D0A000000C0
:10100000704770B5040004D094F84100002510B179
:1010100006E0012070BD84F84050204600F024F81E
:10102000242084F841002068C16821F40051C16087
:10103000204600F087FA2068016921F4904101619F
:101040002068416921F02A0141612068C16841F4AA
:101050000051C1606564202084F8410084F842009A
:101060006563002070BD000030B585B00024009499
:1010700001940294039400681449884224D11448CE
:10108000816941F480418161816901F48041049169
:10109000816941F00401816180690E4D00F0040016
:1010A00004904FF400700090022001900320039000
:1010B00069462846FFF73AF92815CDE90004694644
:1010C00028460294FFF732F905B030BD00380140E0
:1010D00000100240000801402DE9F843044690F852
:1010E0004100984616460D46202802D00220BDE851
:1010F000F88385B17EB100206064212084F841002E
:10110000FFF716FAA6848146E684A0682027B0F58A
:10111000805F02D003E00120E9E7206910B12E468C
:1011200000250EE000260CE08021204600F066FA43
:10113000A8B9C6B116F8010B21684860E08C401EC2
:10114000E084E08C4B464FF00002CDF80080002890
:10115000EAD14FF04001204600F050FA40B184F847
:1011600041700320C3E735F8020BC0F30800E3E742
:1011700084F841700020BAE7FEE700002DE9F04155
:1011800086B000242C480094019402940394816951
:1011900041F010018161816901F0100104918169C0
:1011A00041F080018161816901F0800104918169D0
:1011B00041F0040181618069DFF8808000F0040063
:1011C00040F203160490012231464046FFF7AAF987
:1011D0004FF4407000901A480125CDE90105194FE0
:1011E00069463846FFF7A2F84FF440600090164871
:1011F00001900220029069463846FFF797F80320D5
:10120000CDE90240CDE9006569464046FFF78EF81A
:10121000002203211720FFF723FA1720FFF712FA05
:10122000002203212820FFF71BFA2820FFF70AFAE3
:1012300006B0BDE8F0810000001002400008014047
:1012400000002110001C01400000111010B586B0F4
:1012500000241748009401940294039404944FF0DE
:1012600080410594016041F61F41C0E9011442F23A
:101270000F71C0E903148461FFF7F0FC08B1FEF7B9
:10128000FDFF4FF48050009069460948FFF77AFD52
:1012900008B1FEF7F3FF049404A905480594FFF78D
:1012A0009FFC002801D0FEF7E9FF06B010BD00004A
:1012B0008000002010B586B00024174800940194E7
:1012C00002940394049413490594016041F61F416C
:1012D000C0E9011442F20F71C0E903148461FFF701
:1012E000BDFC08B1FEF7CAFF4FF48050009069467C
:1012F0000948FFF747FD08B1FEF7C0FF049404A9B1
:1013000005480594FFF76CFC002801D0FEF7B6FFF6
:1013100006B010BD00040040C80000200C4810B505
:101320000A4901604FF4E1314160002181600C22E3
:10133000C160C0E904128161C161FFF762FE00284B
:1013400003D0BDE81040FEF799BF10BD0038014042
:1013500010010020FEE7FEE710B500F093FD012824
:1013600003D0BDE8104000F049BD10BD30B58FB0CE
:1013700028216846FEF74DFF14210AA8FEF749FF11
:1013800001210804CDE900100024029402250491F3
:10139000CDE907504FF4E01009906846FFF78EFA48
:1013A00008B172B6FEE70F20CDE90A054FF4806060
:1013B000CDE90C4002210AA80E94FFF783F900281A
:1013C00001D072B6FEE70FB030BD70470148FFF79D
:1013D00048BD0000800000200148FFF742BD00002A
:1013E000C80000200148FFF73CBD00005801002064
:1013F000F0B50268204C214D214E224F224B4FF078
:10140000804CA04209D0984207D0604505D0A84240
:1014100003D0B04201D0B84204D122F0700E4A6825
:1014200042EA0E02A04209D0984207D0604505D09A
:10143000A84203D0B04201D0B84203D122F4407593
:10144000CA682A434D6922F080022A4302608A68F2
:10145000C2620A688262A04201D0984201D1096941
:101460000163012141610169C90703D0016921F0CC
:1014700001010161F0BD0000002C014000040040AA
:1014800000080040000C00400034014010B58468A2
:1014900042EA032224F47F440A432243826010BDBF
:1014A000826822F070020A4342F0070181607047AF
:1014B00010B5036A046A24F001040462846924F00C
:1014C000F00444EA021423F00A020A43846102622F
:1014D00010BD10B5036A046A24F010040462846924
:1014E00023F0A00324F4704444EA023243EA0111D9
:1014F0008261016210BD01680C3151E8002F22F4B5
:10150000907241E80023002BF5D10168143151E8B5
:10151000002F22F0010241E80023002BF5D1016BDE
:10152000012909D101680C3151E8002F22F0100285
:1015300041E80023002BF5D1202180F84210002142
:101540000163704770B5044600680169E26821F4E0
:101550004051114301612169A06808436169084352
:101560002168CA6841F20C639A430243CA6020684A
:101570004169A26921F44071114341611E4920680B
:10158000884202D1FFF764F901E0FFF751F900EB5F
:10159000C00101EB0012606864218000B2FBF0F32F
:1015A000B3FBF1F36FF018067343B2FBF0F5B2FB37
:1015B000F0F605EB8305322303EB0515B5FBF1F5DA
:1015C000B6FBF1F605F0F00505EB0615B2FBF0F6FB
:1015D000B2FBF0F0B0FBF1F06FF01802504306EBF5
:1015E000800003EB0010B0FBF1F0216800F00F0069
:1015F0002844886070BD0000003801402DE9F843A0
:10160000984617460D460446089E24E0701C22D0DA
:10161000FEF78EFFA0EB0800B0421AD8CEB12068CA
:10162000C168490717D5802D15D0402D13D001680A
:10163000C94309070FD4016800254068009020467F
:10164000FFF759FF0820606484F840500120BDE88E
:10165000F8830320FBE72068006835EA000004D027
:101660000020B842D2D00020F1E70120F9E7FEE7E0
:10167000014A024900F023B8E11600087C0000206E
:101680000907090E002804DB00F1E02080F80014AF
:10169000704700F00F0000F1E02080F8141D704743
:1016A00002E008C8121F08C1002AFAD1704770472B
:1016B000002001E001C1121F002AFBD170472DE973
:1016C000F04116460F460446002503E03946B04770
:1016D000641C6D1C20780028F8D12846BDE8F081F4
:1016E00013B54FF6FF73012269460248FFF7F4FC79
:1016F00000981CBD100100201CB507490120CDE950
:1017000000010023802205A1074800F08DFBBDE801
:101710001C4000F0F5BA00000000002073746172F4
:10172000745F7461736B0000D91A0008FEF70EFF36
:10173000FFF71CFEFFF722FDFFF7F0FDFFF786FD28
:10174000FFF7B8FD05A0FFF793FF0848FFF7E4FA9D
:101750000748FFF7E1FAFFF7CFFFFEE748656C6C3B
:101760006F2052544F530D0A0000000080000020EB
:10177000C80000202DE9F041054600F027FA364C5C
:10178000A068401CA0602068344F10B1606940B36D
:101790002DE02560A068012829D1002606EB8600EF
:1017A00007EB800000F0F8F9761C052EF6D32B48E5
:1017B000643000F0F1F92948783000F0EDF927485D
:1017C0008C3000F0E9F92548A03000F0E5F9234815
:1017D000B43000F0E1F92148643060631430A06354
:1017E00005E02068E96AC06A884200D82560606A1E
:1017F0000121401C6062E86A226981401143216135
:1018000000EB800007EB80004068A8608168E96019
:101810008268291D51608160E86A00EB800007EB57
:101820008001696157F82010491C47F8201000F02A
:10183000DBF9606900280CD02068E96AC06A884238
:1018400007D207494FF080500860BFF34F8FBFF3B6
:101850006F8FBDE8F08100003C000020A045002013
:1018600004ED00E070B50C4C0C4E11E000F0AEF948
:10187000F068C568281D00F07DF9A068401EA060D2
:101880006068401E606000F0AFF9284600F008F87C
:1018900060680028EAD170BD3C000020404600206E
:1018A00010B50446006B00F0A9F92046BDE81040D1
:1018B00000F0A4B90E484FF48841420706D0C01D7D
:1018C0000B4920F00700411AC1F58841094A00235D
:1018D0000144C2E900030839143A21F007011160FC
:1018E0004B600B600B1AC0E90013936053607047A4
:1018F000A001002030000020074C4FF08056074D1B
:10190000FFF7B0FF20680128FAD92E60BFF34F8F90
:10191000BFF36F8FF4E70000A045002004ED00E066
:101920002DE9F0479946DDE9096480466FF003032D
:10193000206B03EB8202089D104420F0070761B181
:10194000002023180A5C83F834200A5C12B1401C82
:101950001028F6D3002084F84300052D00D3042579
:10196000201DE56200F023F904F1180000F01FF9D2
:101970002461C5F105006462A0614A4641463846CB
:1019800000F098F82060002E00D03460BDE8F087A9
:1019900030B5114900E011460A688242FBD34B681A
:1019A0005C18844203D14068184448600846436884
:1019B0001C18944209D1084C143C2468A24209D056
:1019C00052681A4442600A6812680260814200D07C
:1019D000086030BD0460F9E7300000200548416B25
:1019E000096821B1416BC9680968816270474FF08D
:1019F000FF31FAE73C000020502080F31188BFF34C
:101A00004F8FBFF36F8FFEE72DE9F04104004FF0D9
:101A100000060FD014F1090F0BD80834600709D065
:101A200004F00700C0F10800C1438C4201D804440F
:101A300000E0002400F09CF91D4D286808B9FFF76C
:101A400039FF002C2FDD6B689C422CD818481430CD
:101A50000146096801E0084611464A68A24202D2DE
:101A60000A68002AF7D12A6891421CD006680A68E1
:101A700002604A680836171B102F05D90A195760EB
:101A80004C600468146002604A68981A6860AB6829
:101A9000984200D2A86042F00040486000200860F0
:101AA000E868401CE86000F08FFA3046BDE8F0813D
:101AB0001C00002010B5031F4FF080741C601B1F1A
:101AC00021F001011960191F024B0B6014394038D5
:101AD0000A6010BDF91900081CB500F077F8094933
:101AE0000220CDE900010023802207A1084800F070
:101AF0009BF90448001F006800F0AEF8BDE81C40E8
:101B000000F072B8040000207461736B31000000B3
:101B1000151B00080C4C00252078012809D002284C
:101B2000FAD10AA0FFF7A4FD002080F311882570E8
:101B3000F2E70BA0FFF79CFD502080F31188BFF364
:101B40004F8FBFF36F8FF2E708000020656E616270
:101B50006C6520696E74657272757074730D0A001D
:101B6000636C6F736520696E7465727275707473DF
:101B70000D0A0000D0E9013201699A60D0E9012321
:101B80005A604A68824201D182684A60002202613A
:101B90000868401E0860704700F108014FF0FF32EE
:101BA000C0E90112C160016100210160704700219C
:101BB0000161704742684A6093688B60936859601E
:101BC000916008610168491C01607047502080F3F2
:101BD0001188BFF34F8FBFF36F8F02480168491C14
:101BE000016070473800002003490868401E086003
:101BF00001D180F3118870473800002070B50028AB
:101C00001BD0A0F108046068002816DA21680029BA
:101C100013D120F00040606000F0AAF8074D606822
:101C20006968084468602046FFF7B2FE2869401CD6
:101C30002861BDE8704000F0C7B970BD1C000020ED
:101C40004FF0E020002101618161024941610721DB
:101C5000016170473F19010070B50546FFF7B6FFF7
:101C6000244C05B92568281DFFF784FF58B9E86A98
:101C7000214A00EB800152F8211021B90121814055
:101C8000206988432061A86A18B105F11800FFF7A0
:101C900071FF606A401C60622068854201D10120AA
:101CA00000E00020616959B150B11348291DA030EE
:101CB000FFF780FF6068401C6060FFF795FF09E058
:101CC000A068401EA060FFF789FEFFF78DFF284641
:101CD000FFF7E6FD606900280AD02068854207D139
:101CE00006494FF080500860BFF34F8FBFF36F8FEE
:101CF00070BD00003C000020A045002004ED00E085
:101D000030B587B00024029403940494204602A9BD
:101D1000059413A2125C0A5412B1401C0F28F8D388
:101D20000C5412491048CDE900410023802202A939
:101D300000F07AF80D4D3C3D01280ED1502080F383
:101D40001188BFF34F8FBFF36F8F4FF0FF30A86242
:101D500001206861EC6000F039F8E86A07B030BD36
:101D600049444C4500000000F918000878000020A4
:101D70000248016B491C0163704700003C000020D1
:101D800010490A6B01F11C0012B10121016070477A
:101D90000022026008690C4AB0FA80F0C0F11F000E
:101DA00000EB800002EB800000F1080342685268FB
:101DB00042609A4201D1C2684260D06808600868F7
:101DC000704700003C000020A0450020094810B5E5
:101DD000016841F47F010160016841F07F410160C9
:101DE000FFF72EFF044900200860FEF7BFF900202E
:101DF00010BD000020ED00E03800002010B550209C
:101E000080F31188BFF34F8FBFF36F8F00F048F856
:101E100018B104494FF080500860002080F3118809
:101E200010BD000004ED00E02DE9FF5F8346DDE911
:101E30000E878A46164699469000FFF7E5FD050095
:101E40001DD04C20FFF7E0FD040015D04C21FEF71B
:101E5000E0F925630021CDE90241CDE900874B4639
:101E6000324651465846FFF75BFD2046FFF782FC9D
:101E7000012004B0BDE8F09F2846FFF7BFFE4FF0F9
:101E8000FF30F6E70548416919B1006B18B1002031
:101E90007047012070470220704700003C0000207E
:101EA0002DE9F041464C0026206B28B1A069401C6A
:101EB000A0613046BDE8F081E5686D1CE56008D1A1
:101EC000606BA16B6163A063206A401C2062FFF716
:101ED00085FDA16A3B488D420FD34FF0000E616B28
:101EE000096839B1616BC968C9684A68954214D2FA
:101EF000A26202E04FF0FF31A1622168C96A01EBE2
:101F0000810150F82100012800D901262C481C30FD
:101F100000680028CDD00126CBE7D1E902724B69D9
:101F2000BA60D1E902277A605F680A1D974201D141
:101F3000CF685F60C1F814E01F687F1E1F60D1F892
:101F400028C0BCF1000F15D0D1E907379F60D1E957
:101F500007377B60DCF8047001F118039F4202D15F
:101F60000B6ACCF80430C1F828E0DCF800305B1EC6
:101F7000CCF80030CB6A0127D4F810C09F4047EA64
:101F80000C07276103EB830300EB83035B688B6023
:101F90009F68CF609F687A609A60CA6A02EB82028B
:101FA00000EB82034B6150F822305B1C40F822307A
:101FB000C96A2268D26A914291D901268FE700004E
:101FC0003C000020A04500202DE9F04700242746D2
:101FD000FFF7FCFD444D286B401E2863286B00284A
:101FE0007CD1A868DFF804C1A2464FF0010905F1D1
:101FF0001C06E8BB72E000BFDCF80C00C468D4E942
:102000000721A06A9160D4E907125160426804F187
:1020100018018A4201D1216A4160C4F828A00168F0
:102020005246491E0160D4E9023160699960D4E9E1
:10203000021359604368211D8B4201D1E36843605C
:1020400062610268521E0260E36AD5F810804A4657
:1020500009FA03F040EA0800286103EB8300234BF0
:102060008C3B03EB80004068A060D0F8088000E063
:1020700017E0C4F80C80D0F80880C8F8041081601C
:10208000E06A00EB800003EB8001616153F82010EF
:10209000491C43F82010E06A2968C96A884200D9BF
:1020A0003260DCF800000028A6D10CB1FFF796FCE6
:1020B000AC6944B1FFF7F4FE08B1C6F80090641EA5
:1020C000F8D1C5F818A0306840B128680127084940
:1020D00038070860BFF34F8FBFF36F8FFFF784FDA2
:1020E0003846BDE8F08700003C0000202C46002068
:1020F00004ED00E0010202030405060708090A0BCB
:102100000C0D0E0F10100000000000000000010276
:102110000304060708090000000001020304000090
:10212000402100080000002080000000A0160008E8
:10213000C021000880000020E8490000B016000817
:10214000000000000000000000000000010000008E
:10215000100000000000000000127A0000000000E3
:10216000000000000000000000000000000000006F
:102170000000000000000000AAAAAAAA00000000B7
:10218000000000000000000000000000000000004F
:10219000000000000000000000000000000000003F
:1021A000000000000000000004000000000000002B
:1021B000000000000000000000000000000000001F
:0400000508000131BD
:00000001FF
