:020000040800F2
:10000000F0490020E1010008D3100008C50F0008E6
:10001000D11000089D0200086B13000800000000CA
:10002000000000000000000000000000490100087E
:100030009F020008000000008D010008D510000894
:10004000FB010008FB010008FB010008FB010008A0
:10005000FB010008FB010008FB010008FB01000890
:10006000FB010008FB010008FB010008FB01000880
:10007000FB010008FB010008FB010008FB01000870
:10008000FB010008FB010008FB010008FB01000860
:10009000FB010008FB010008FB010008B702000893
:1000A000FB010008FB010008FB010008FB01000840
:1000B000FB010008FB010008FB010008FB01000830
:1000C000FB010008FB010008FB010008FB01000820
:1000D000FB010008FB010008FB010008FB01000810
:1000E000A1020008FB010008FB010008FB01000859
:1000F000FB010008FB010008FB010008FB010008F0
:10010000FB010008FB010008FB010008FB010008DF
:10011000FB010008FB010008FB0100084911000871
:10012000FB010008FB010008FB010008FB010008BF
:10013000DFF810D000F0A0F800480047651600086E
:10014000AFF30080F0490020224B19680868B0E83E
:10015000F00F80F30988BFF36F8F4FF0000080F33A
:1001600011884EF00D0E7047000000000648006830
:10017000006880F3088862B661B6BFF34F8FBFF3A3
:100180006F8F00DF00BF00BF08ED00E0EFF30980D4
:10019000BFF36F8F0F4B1A6820E9F00F106008B59E
:1001A0004FF0BF0080F31188BFF34F8FBFF36F8F05
:1001B00001F038FF4FF0000080F31188BDE80840DF
:1001C00019680868B0E8F00F80F30988BFF36F8FF3
:1001D000704700BF50000020EFF30580704700001B
:1001E0000648804706480047FEE7FEE7FEE7FEE7D1
:1001F000FEE7FEE7FEE7FEE7FEE7FEE74711000841
:100200003101000840EA01039B0703D009E008C957
:10021000121F08C0042AFAD203E011F8013B00F8CB
:10022000013B521EF9D27047D2B201E000F8012B17
:10023000491EFBD270470022F6E710B513460A4666
:1002400004461946FFF7F0FF204610BD30B50B46B7
:10025000014600202022012409E021FA02F59D42F6
:1002600005D303FA02F5491B04FA02F52844151ECA
:10027000A2F10102F1DC30BD064C074D06E0E0685A
:1002800040F0010394E8070098471034AC42F6D3DD
:10029000FFF752FFD4270008F4270008FEE7704755
:1002A00010B54FF4806000F061F8BDE810404FF4E5
:1002B000006000F05BB810B54FF4807000F056F8A5
:1002C000BDE810404FF4007000F050B872B6FEE781
:1002D00010B5114CB0F5807F0ED0B0F5007F10D076
:1002E000B0F5806F12D0B0F5006F04D10BA001F013
:1002F0003DF80420207010BD0DA001F037F801205A
:10030000F8E710A001F032F80220F3E712A001F0A4
:100310002DF80320EEE700001C0000205357362084
:10032000697320707265737365640D0A00000000C4
:1003300053573320697320707265737365640D0AB7
:100340000000000053573420697320707265737386
:1003500065640D0A00000000535735206973207052
:100360007265737365640D0A00000000044910B5DE
:100370000A68024202D00860FFF7AAFF10BD000021
:10038000140401402DE9F84FDFF8C8910024A9F1C9
:10039000040B23460F2709F1040AABF1040ED1E048
:1003A0000125A54006EA0502AA4276D1DFF8A8C1D8
:1003B0004E68A6EB0C0866452BD00DDC032E34D01E
:1003C00005DC36B3012E19D0022E2FD11BE0112EE1
:1003D00016D0122E2AD119E0B8F5881F19D006DCE4
:1003E000B8F5803F15D0B8F5801F1FD111E0B8F5E2
:1003F000001F0ED0B8F5041F18D10AE0CB6815E035
:10040000CB681B1D12E0CB6808330FE0CB680C33C0
:100410000CE08B682BB1012B4FF0080303D0456132
:1004200004E0042302E0056100E00023FF2A01D874
:10043000064601E000F104064FEA840501D9A5F162
:100440002005D6F8008007FA05FC28EA0C0803FA14
:1004500005F548EA0508C6F800804D68ED0070D53E
:100460003E4DAE6946F00106AE61AD6924F003066B
:1004700005F0010500953A4D06EB050CDCF8085037
:10048000A607360F07FA06F825EA0805DFF8D48034
:10049000404503D14FF0000825E052E0DFF8C88066
:1004A000404502D14FF001081DE0DFF8C080404513
:1004B00002D14FF0020816E0DFF8B480404502D1C7
:1004C0004FF003080FE0DFF8AC80404502D14FF059
:1004D000040808E0DFF8A080404502D14FF005088D
:1004E00001E04FF0060808FA06F848EA0508CCF8DB
:1004F00008804D68D9F80060ED024D4601D51643DD
:1005000000E096432E604D68DAF80060AD02554673
:1005100001D5164300E096432E604D68DBF800607D
:10052000AD035D4601D5164300E096432E604D684D
:10053000DEF80060ED03754601D5164300E09643F2
:100540002E60641C0A681646E2407FF429AFBDE8BD
:10055000F88F000008040140000011100010024054
:100560000000014000080140000C01400010014063
:100570000014014000180140001C01400AB1016153
:1005800070470904FBE700000148806870470000DD
:100590002000002002488168027811448160704781
:1005A00020000020074810B5016841F010010160EB
:1005B000032000F0A1F8012000F006F800F050F848
:1005C000002010BD0020024030B505461F4887B00E
:1005D000C16941F02001C161C06906A900F0200095
:1005E000009001A800F030F90498B0B100F04CF987
:1005F00040001749174AB0FBF1F11748491E026045
:10060000416040F2E7320021C0E90321816081614D
:1006100000F012FB040003D015E000F035F9E8E724
:100620000D4800F037FB04000DD1372000F036F8FC
:10063000102D07D200222946372000F03DF8074848
:10064000056000E0012407B0204630BD00100240E4
:1006500040420F0000140040DC0000202400002075
:100660000C4808B5816941F001018161816901F09F
:1006700001010091C16941F08051C161C06900F080
:10068000805000900448416821F0E06141F0007121
:10069000416008BD0010024000000140002809DB55
:1006A00000F01F02012191404009800000F1E0208C
:1006B000C0F8001170470000F0B40E4B1B680C46E8
:1006C000C3F30223C3F10705042D00D90425191D26
:1006D000072901D2002300E0DB1E012606FA05F1FE
:1006E000491E214099409E40761E16403143F0BC81
:1006F00000F04CBE0CED00E0064900F0070208686F
:100700004FF6FF03184040EA0220034A10430860F6
:10071000704700000CED00E00000FA052DE9F047FD
:100720000F46050061D0434E306800F00700B84224
:1007300009D2306820F0070038433060306800F09C
:100740000700B84251D128683B4C810712D54007B9
:1007500003D5606840F4E06060602878000703D546
:10076000606840F4605060606068A96820F0F00044
:10077000084360602878C00728D06868012810D036
:100780002168022810D0890700292EDA616821F03B
:10079000030101436160FFF7F7FE804641F28839AB
:1007A0000DE021688903EFE78901EDE7FFF7ECFE33
:1007B000A0EB0801494502D90320BDE8F087606835
:1007C000696800F00C00B0EB810FEFD1306800F0E9
:1007D0000700B8420BD9306820F00700384330607A
:1007E000306800F00700B84201D00120E5E7287822
:1007F000400705D56068E96820F4E0600843606060
:100800002878000706D56068296920F4605040EA1E
:10081000C100606000F058F86168084AC1F3031134
:10082000515CC8400649086006480068FFF7CCFEE6
:100830000020C2E70020024000100240922700087A
:100840002C000020240000200F2202600C4A536874
:1008500003F003034360536803F0F00383605368BD
:1008600003F4E063C36052684FF4E06303EAD2022A
:1008700002610448006800F007000860704700004B
:100880000010024000200240044805490068496801
:10089000044AC1F30221515CC84070472C0000207B
:1008A00000100240A2270008044805490068496872
:1008B000044AC1F3C221515CC84070472C0000209B
:1008C00000100240A22700080E4A51680E4801F0AD
:1008D0000C03042B11D0082B0FD10C48C1F3834318
:1008E000C903C05C0AD55168084AC1F34041921E51
:1008F000515C054A5043B0FBF1F07047044948434E
:10090000704700000010024000127A0082270008A1
:1009100000093D002DE9F84F040070D02078C04D4B
:10092000C00749D06868C0F38100012807D0686813
:10093000C0F38100022809D16868C00306D5286881
:10094000800339D560680028E7D035E06068B0F5ED
:10095000803F0BD010B1B0F5A02F11D0286820F443
:1009600080302860286820F4802002E0286840F465
:1009700080302860606890B1FFF706FE06460AE006
:10098000286840F480202860F0E700BFFFF7FCFDF6
:10099000801B642873D828688003F7D50CE0FFF724
:1009A000F3FD064605E000BFFFF7EEFD801B64285F
:1009B000F0D828688003F7D420789A4E80074FF04B
:1009C00001094FF0000839D5686810F00C0F07D006
:1009D0006868C0F38100022809D16868C00306D4A2
:1009E0002868800714D52069012808D110E0206903
:1009F000B0B1C6F80090FFF7C7FD074605E00AE171
:100A0000FFF7C2FDC01B0228C4D828688007F7D5AD
:100A10002868616920F0F80040EAC10028600DE014
:100A2000C6F80080FFF7B0FD074604E0FFF7ACFD15
:100A3000C01B022823D828688007F7D42078000735
:100A40002CD57948A169D9B1C0F80090FFF79CFD79
:100A5000074604E0FFF798FDC01B02280FD8686A1C
:100A60008007F7D571484FF4FA510068B0FBF1F0F8
:100A7000009000BF0098411E0091FAD20EE080E085
:100A8000C0F80080FFF780FD074604E0FFF77CFD1B
:100A9000C01B022875D8686A8007F7D42078400701
:100AA00060D5E8690027C00008D4E86940F08050AC
:100AB000E861E869012700F0805000905C48016817
:100AC000C90513D40168834641F480710160FFF7C2
:100AD0005BFD824606E000BFFFF756FDA0EB0A0073
:100AE00064284ED8DBF80000C005F5D5E068012881
:100AF0000AD008B1052813D0286A20F00100286226
:100B0000286A20F0040002E0286A40F00100286210
:100B1000E06841F2883B98B1FFF736FD82460BE072
:100B2000286A40F004002862EEE700BFFFF72CFDC2
:100B3000A0EB0A0159455AD8286A8007F6D50CE07F
:100B4000FFF722FD824605E0FFF71EFDA0EB0A013C
:100B500059454CD8286A8007F6D41FB1E86920F0BF
:100B60008050E861E06988B36968C1F381010229B6
:100B700044D00228C6F8608004D0FFF705FD044683
:100B800038E034E0FFF700FD074604E0FFF7FCFC27
:100B9000C01B02282BD828688001F7D4206AB0F542
:100BA000803F05D16868A16820F400300843686080
:100BB000D4E908010843696821F4741108436860A6
:100BC000C6F86090FFF7E0FC044606E025E000BFB1
:100BD000FFF7DAFC001B022809D828688001F7D546
:100BE0001BE000BFFFF7D0FC001B022802D9032046
:100BF000BDE8F88F28688001F4D40EE00128F7D012
:100C00006868226A00F48031914204D1616A00F47C
:100C10007010884201D00120EAE70020E8E70000D8
:100C20000010024000004242800442422C0000209A
:100C3000007000407047704710B5040003D094F86E
:100C40003D0010B107E0012010BD002084F83C00F9
:100C5000204600F01EF8022084F83D00211D206887
:100C600000F078FA012084F8460084F83E0084F809
:100C70003F0084F8400084F8410084F8420084F882
:100C8000430084F8440084F8450084F83D000020C7
:100C900010BD704790F83D10012901D00120704728
:100CA000022180F83D100168CA6842F00102CA6062
:100CB00000680E4988420ED00D4988420BD0B0F131
:100CC000804F08D00B49884205D00B49884202D09A
:100CD0000A49884204D1816801F00701062903D03E
:100CE000016841F00101016000207047002C0140C3
:100CF000003401400004004000080040000C0040A7
:100D000070472DE9F04104460068C66805694FF058
:100D10000007A90713D5B10711D5F91E01610120FC
:100D20002077206880698007204602D0FFF7E8FF1F
:100D300004E000F07EF8204600F07CF82777680792
:100D400016D5700714D521686FF0040008610220E1
:100D500020772068806910F4407F204602D0FFF79A
:100D6000CFFF04E000F065F8204600F063F8277735
:100D7000280715D5300713D521686FF008000861E2
:100D8000042020772068C0698007204602D0FFF742
:100D9000B7FF04E000F04DF8204600F04BF827774D
:100DA000E80616D5F00614D521686FF0100008612A
:100DB000082020772068C06910F4407F204602D0C8
:100DC000FFF79EFF04E000F034F8204600F032F810
:100DD0002777E80708D0F00706D021686FF00100F8
:100DE0000861204600F028F8280608D5300606D508
:100DF00021686FF0800008612046FFF71BFF68063E
:100E000008D5700606D521686FF0400008612046BD
:100E100000F01CF8A8060AD5B00608D521686FF0C6
:100E2000200008612046BDE8F041FFF704BFBDE89F
:100E3000F08170477047000000680349884201D183
:100E4000FFF7A8BB7047000000140040704770B562
:100E5000040004D094F84100002510B106E0012000
:100E600070BD84F84050204600F024F8242084F817
:100E700041002068C16821F40051C160204600F0A3
:100E8000DFF92068016921F490410161206841691E
:100E900021F02A0141612068C16841F40051C1601C
:100EA0006564202084F8410084F8420065630020D6
:100EB00070BD000030B585B0002400940194029408
:100EC000039400681449884224D11448816941F48C
:100ED00080418161816901F480410491816941F01F
:100EE0000401816180690E4D00F0040004904FF40C
:100EF000007000900220019003200390694628466C
:100F0000FFF740FA2815CDE9000469462846029407
:100F1000FFF738FA05B030BD00380140001002403C
:100F2000000801402DE9F843044690F84100984636
:100F300016460D46202802D00220BDE8F88385B170
:100F40007EB100206064212084F84100FFF71CFB83
:100F5000A6848146E684A0682027B0F5805F02D091
:100F600003E00120E9E7206910B12E4600250EE0DC
:100F700000260CE08021204600F0BEF9A8B9C6B1D9
:100F800016F8010B21684860E08C401EE084E08C7C
:100F90004B464FF00002CDF800800028EAD14FF018
:100FA0004001204600F0A8F940B184F841700320C8
:100FB000C3E735F8020BC0F30800E3E784F841709B
:100FC0000020BAE7FEE700002DE9F04186B00024DA
:100FD0002C480094019402940394816941F010011B
:100FE0008161816901F010010491816941F0800102
:100FF0008161816901F080010491816941F00401FE
:1010000081618069DFF8808000F0040040F20316FF
:101010000490012231464046FFF7B0FA4FF4407089
:1010200000901A480125CDE90105194F6946384657
:10103000FFF7A8F94FF44060009016480190022095
:10104000029069463846FFF79DF90320CDE902403A
:10105000CDE9006569464046FFF794F90022032177
:101060001720FFF729FB1720FFF718FB00220321A9
:101070002820FFF721FB2820FFF710FB06B0BDE872
:10108000F081000000100240000801400000211023
:10109000001C0140000011100C4810B50A49016005
:1010A0004FF4E1314160002181600C22C160C0E950
:1010B00004128161C161FFF7CAFE002803D0BDE8B8
:1010C0001040FFF703B910BD003801409400002024
:1010D000FEE7FEE710B501F0B5F9012803D0BDE841
:1010E000104000F0DDBF10BD30B58FB0282168463C
:1010F000FFF7A1F814210AA8FFF79DF801210804C1
:10110000CDE900100024029402250491CDE9075096
:101110004FF4E01009906846FFF7FCFB08B172B687
:10112000FEE70F20CDE90A054FF48060CDE90C40C1
:1011300002210AA80E94FFF7F1FA002801D072B636
:10114000FEE70FB030BD70470148FFF7DABD000081
:10115000DC000020F0B50268204C214D214E224FCA
:10116000224B4FF0804CA04209D0984207D06045F6
:1011700005D0A84203D0B04201D0B84204D122F039
:10118000700E4A6842EA0E02A04209D0984207D087
:10119000604505D0A84203D0B04201D0B84203D187
:1011A00022F44075CA682A434D6922F080022A431E
:1011B00002608A68C2620A688262A04201D09842D4
:1011C00001D109690163012141610169C90703D0A6
:1011D000016921F001010161F0BD0000002C014016
:1011E0000004004000080040000C004000340140B2
:1011F00001680C3151E8002F22F4907241E800237D
:10120000002BF5D10168143151E8002F22F00102C2
:1012100041E80023002BF5D1016B012909D10168B8
:101220000C3151E8002F22F0100241E80023002B7E
:10123000F5D1202180F842100021016370470000A1
:1012400070B5044600680169E26821F44051114319
:1012500001612169A0680843616908432168CA687F
:1012600041F20C639A430243CA6020684169A26953
:1012700021F44071114341611E492068884202D126
:10128000FFF712FB01E0FFF7FFFA00EBC00101EBF3
:101290000012606864218000B2FBF0F3B3FBF1F34D
:1012A0006FF018067343B2FBF0F5B2FBF0F605EBF6
:1012B0008305322303EB0515B5FBF1F5B6FBF1F61B
:1012C00005F0F00505EB0615B2FBF0F6B2FBF0F009
:1012D000B0FBF1F06FF01802504306EB800003EB17
:1012E0000010B0FBF1F0216800F00F002844886086
:1012F00070BD0000003801402DE9F84398461746BC
:101300000D460446089E24E0701C22D0FFF73CF9ED
:10131000A0EB0800B0421AD8CEB12068C1684907D6
:1013200017D5802D15D0402D13D00168C94309076A
:101330000FD401680025406800902046FFF758FF51
:101340000820606484F840500120BDE8F883032041
:10135000FBE72068006835EA000004D00020B842AE
:10136000D2D00020F1E70120F9E7FEE70FB4054BEA
:1013700010B503A9044A029800F028F810BC5DF8E3
:1013800014FB000085150008900000200907090ED5
:10139000002804DB00F1E02080F80014704700F022
:1013A0000F0000F1E02080F8141D704702E008C82B
:1013B000121F08C1002AFAD170477047002001E0CF
:1013C00001C1121F002AFBD1704700002DE9FF4F19
:1013D0008BB09A460F460546002606E025280BD01E
:1013E00052460D9990476D1C761C28780028F5D13F
:1013F0000FB03046BDE8F08F0024A04601226049BE
:1014000000E0044315F8013F203B02FA03F00842D4
:10141000F7D128782E2817D115F8010F44F00404CD
:101420002A280ED06FF02F022878A0F13001092968
:101430000AD808EB880102EB410100EB01086D1CA2
:10144000F2E757F8048B6D1C287869283ED006DC3B
:101450000028CDD063280BD0642804D136E073284F
:1014600010D075284BD052460D999047761C85E0D8
:1014700017F8040B8DF8000000208DF80100E946F4
:10148000012003E057F8049B4FF0FF3061074FF055
:10149000000401D40AE0641C44450DDA8442FADBFE
:1014A00019F804100029F6D106E0641C8442FCDB24
:1014B00019F804100029F8D1264404E019F8010BAA
:1014C00052460D999047641EF8D257E001CF4FF075
:1014D0000A0B002802DA40422D2102E0210504D542
:1014E0002B218DF82410012103E0E10705D02021F4
:1014F000F7E70DF1200908910CE00021F9E701CF91
:101500004FF00A0BF9E75946FEF7A0FE01F1300251
:1015100009F8012D0028F6D1ADEB090000F1200BF0
:10152000600701D44FF00108D84502DDA8EB0B009D
:1015300000E000208046002406E009A85246005D35
:101540000D999047641C761C08988442F5DB04E0F2
:10155000302052460D999047761CB8F10001A8F151
:101560000108F5DC05E019F8010B52460D9990478A
:10157000761CBBF10001ABF1010BF4DC6D1C34E710
:101580000928010013B54FF6FF730122694602488E
:10159000FFF7C8FC00981CBD940000201CB5002279
:1015A0000121022000F092FD104C606108B110A0F2
:1015B00000E015A0FFF7DAFE00220421012000F070
:1015C00085FDA06108B116A000E01CA0FFF7CEFECB
:1015D00006490120CDE90001002380221DA12048F9
:1015E00000F002FFBDE81C4000F0DCBC0000002061
:1015F00071756575653120637265617465207375F9
:1016000063636573730D0A007175657565312063D9
:101610007265617465206661696C0D0A00000000E6
:101620006269675F71756575652063726561746570
:1016300020737563636573730D0A00006269675FE9
:101640007175657565206372656174652066616991
:101650006C0D0A0073746172745F7461736B0000C7
:101660008D1B0008FEF79EFFFFF73EFDFFF7ACFC69
:10167000FFF712FD02A0FFF779FEFFF78FFFFEE7ED
:1016800048656C6C6F2052544F530D0A00000000E7
:101690002DE9F047204C0F460546E668D4F8349013
:1016A000D4F838802068001D00F080FB38B920682D
:1016B00090F82C1001208840216981432161681C29
:1016C00015D1A7B1154922684868906023688268DF
:1016D000DA6022688368121D5A602268121D8260D7
:1016E000206841610868401C0860BDE8F0872068F8
:1016F0003544B5424560216805D24046BDE8F04713
:10170000091D00F073BB4846091D00F06FFBA06A7D
:101710008542EAD2A562E8E750000020D8450020C3
:101720002DE9F041054600F085FB364CA068401CD1
:10173000A0602068344F10B1606940B32DE025608F
:10174000A068012829D1002606EB860007EB80005F
:1017500000F03EFB761C052EF6D32B48643000F0DB
:1017600037FB2948783000F033FB27488C3000F0F5
:101770002FFB2548A03000F02BFB2348B43000F0AD
:1017800027FB2148643060631430A06305E02068C3
:10179000E96AC06A884200D82560606A0121401C5D
:1017A0006062E86A226981401143216100EB800098
:1017B00007EB80004068A8608168E9608268291DA5
:1017C00051608160E86A00EB800007EB800169618D
:1017D00057F82010491C47F8201000F039FB6069C9
:1017E00000280CD02068E96AC06A884207D20749FD
:1017F0004FF080500860BFF34F8FBFF36F8FBDE88D
:10180000F0810000500000202445002004ED00E09D
:1018100070B50C4C0C4E11E000F00CFBF068C56884
:10182000281D00F0C3FAA068401EA0606068401E3A
:10183000606000F00DFB284600F048F86068002862
:10184000EAD170BD50000020C445002030B4026CC5
:101850000B46002A0BD0C1681144C1608468A142C4
:1018600001D30168C16030BC1846FEF7CBBC30BC68
:1018700070472DE9F041856B164604460027026C3F
:10188000FAB17EB1E068FEF7BDFCE168206C091A90
:10189000E1602268914202D2A168081AE060022E3B
:1018A0000DD00EE06068FEF7ADFC216C6068084466
:1018B0006060A168884204D32068606001E005B1DF
:1018C0006D1E6D1CA5633846BDE8F08110B5044659
:1018D000006B00F0C7FA2046BDE8104000F0C2BA25
:1018E0000E484FF48841420706D0C01D0B4920F036
:1018F0000700411AC1F58841094A00230144C2E9A1
:1019000000030839143A21F0070111604B600B60A5
:101910000B1AC0E900139360536070472401002044
:1019200044000020074C4FF08056074DFFF770FF32
:1019300020680128FAD92E60BFF34F8FBFF36F8F55
:10194000F4E700002445002004ED00E02DE9F04715
:101950009946DDE9096480466FF00303206B03EBD1
:101960008202089D104420F0070761B1002023186F
:101970000A5C83F834200A5C12B1401C1028F6D3AC
:10198000002084F84300052D00D30425201DE562C6
:1019900000F029FA04F1180000F025FA2461C5F1DD
:1019A00005006462A0614A464146384600F0DCF812
:1019B0002060002E00D03460BDE8F08730B51149BA
:1019C00000E011460A688242FBD34B685C188442EF
:1019D00003D1406818444860084643681C18944284
:1019E00009D1084C143C2468A24209D052681A4418
:1019F00042600A6812680260814200D0086030BD0F
:101A00000460F9E74400002010B5044600F012FA23
:101A1000A06B28B15FF0000400F01AFA204610BD58
:101A20000124F9E70548416B096821B1416BC96898
:101A30000968816270474FF0FF31FAE750000020DB
:101A4000BF2080F31188BFF34F8FBFF36F8FFEE786
:101A50002DE9F041044600F0EDF994F9455004F108
:101A6000240609E0606A48B1304600F08DFD08B1F7
:101A700000F082FA6D1E6DB2002DF3DC4FF0FF36E0
:101A800084F8456000F0E4F900F0D4F994F944508A
:101A900004F1100709E0206948B1384600F074FDF0
:101AA00008B100F069FA6D1E6DB2002DF3DC84F808
:101AB0004460BDE8F04100F0CBB900002DE9F041F1
:101AC00004004FF000060FD014F1090F0BD80834B2
:101AD000600709D004F00700C0F10800C1438C4240
:101AE00001D8044400E0002400F094FA1D4D286859
:101AF00008B9FFF7F5FE002C2FDD6B689C422CD84F
:101B0000184814300146096801E0084611464A6841
:101B1000A24202D20A68002AF7D12A6891421CD058
:101B200006680A6802604A680836171B102F05D934
:101B30000A1957604C600468146002604A68981A79
:101B40006860AB68984200D2A86042F000404860EC
:101B500000200860E868401CE86000F07BFD30462B
:101B6000BDE8F0813000002010B5031F4FF08074F5
:101B70001C601B1F21F001011960191F024B0B6033
:101B8000143940380A6010BD411A00081CB500F035
:101B900051F914490220CDE900010023802212A14D
:101BA000134800F021FC0F490320091DCDE9000175
:101BB000002380220FA1114800F016FC09490420DF
:101BC0000831CDE90001002380220DA10E4800F06C
:101BD0000BFC00F03DF90348001F0068BDE81C4005
:101BE00000F06EB9040000207461736B31000000D6
:101BF0000D1C00087461736B32000000DD1C0008CE
:101C00007461736B33000000451D000817A0FFF7D7
:101C1000ADFB1B4D1B4C4FF0FF37002620780128F1
:101C200011D002280FD00328F8D1154900233A46D5
:101C30001031A86900F0B8FAC0B2012814D012A07F
:101C4000FFF794FB0CE000233A460E49686900F068
:101C5000ABFAC0B22178012804D011A0FFF786FBAF
:101C60002670DBE712A0F9E716A0E9E77461736B51
:101C7000312072756E696E672E2E2E0D0A000000DF
:101C8000000000201C00002073656E6420626967FC
:101C90005F64617461206661696C0D0A0000000078
:101CA00073656E64202564206661696C0D0A00000E
:101CB00073656E6420256420737563636573730DAB
:101CC0000A00000073656E64206269675F64617476
:101CD0006120737563636573730D0A0008B50CA00A
:101CE000FFF744FB0F4C4FF0FF352A466946606909
:101CF00000F0D6FAC0B2012803D00BA0FFF736FBE4
:101D0000F3E79DF800100BA0FFF730FBEDE70000B4
:101D10007461736B322072756E696E672E2E2E0D94
:101D20000A0000000000002072656164206661699D
:101D30006C0D0A007265616420696E666F3A202539
:101D4000640D0A0008B50BA0FFF710FB0E4C4FF016
:101D5000FF352A466946A06900F0A2FA10F0FF0F8D
:101D600004D00AA00099FFF701FBF2E70CA0FFF7EF
:101D7000FDFAEEE77461736B332072756E696E67FE
:101D80002E2E2E0D0A0000000000002072656164F6
:101D9000206269675F696E666F3A2025730D0A00DD
:101DA00072656164206661696C0D0A00D0E90132D8
:101DB00001699A60D0E901235A604A68824201D1E0
:101DC00082684A60002202610868401E086070470D
:101DD00000F108014FF0FF32C0E90112C16001615A
:101DE00000210160704700210161704730B50B6828
:101DF0005A1C02D000F1080202E0026904E0224607
:101E0000546825689D42FAD953684B6099608A608E
:101E1000516008610168491C016030BD42684A6038
:101E200093688B6093685960916008610168491CF0
:101E300001607047BF2080F31188BFF34F8FBFF35D
:101E40006F8F02480168491C016070474C000020F8
:101E500003490868401E086001D180F3118870476B
:101E60004C00002070B500281BD0A0F10804606869
:101E7000002816DA2168002913D120F000406060A4
:101E800000F0C8F8074D606869680844686020463B
:101E9000FFF794FD2869401C2861BDE8704000F000
:101EA000D9BB70BD300000204FF0E020002101615F
:101EB0008161024941610721016170473F190100B9
:101EC00070B50546FFF7B6FF244C05B92568281DF7
:101ED000FFF76CFF58B9E86A214A00EB800152F81D
:101EE000211021B901218140206988432061A86A1D
:101EF00018B105F11800FFF759FF606A401C6062D5
:101F00002068854201D1012000E00020616959B1BB
:101F100050B11348291DA030FFF780FF6068401CB6
:101F20006060FFF795FF09E0A068401EA060FFF722
:101F300079FDFFF78DFF2846FFF7C8FC6069002890
:101F40000AD02068854207D106494FF080500860CA
:101F5000BFF34F8FBFF36F8F70BD000050000020A4
:101F60002445002004ED00E002490A6A0260C968C5
:101F7000416070475000002001490120086070470F
:101F80006C00002010B50C46054909681831FFF7B0
:101F90002DFF2046BDE810400121FFF779BB00006E
:101FA0005000002030B587B00024029403940494BC
:101FB000204602A9059413A2125C0A5412B1401CD7
:101FC0000F28F8D30C5412491048CDE900410023E2
:101FD000802202A900F008FA0D4D3C3D01280ED1E7
:101FE000BF2080F31188BFF34F8FBFF36F8F4FF087
:101FF000FF30A86201206861EC6000F039F8E86AFF
:1020000007B030BD49444C450000000025190008C8
:102010008C0000200248016B491C016370470000DE
:102020005000002010490A6B01F11C0012B101217F
:10203000016070470022026008690C4AB0FA80F023
:10204000C0F11F0000EB800002EB800000F10803EC
:102050004268526842609A4201D1C2684260D068C8
:1020600008600868704700005000002024450020E8
:10207000094810B5016841F47F010160016841F031
:102080007F410160FFF710FF044900200860FEF760
:102090006DF8002010BD000020ED00E04C00002095
:1020A00010B5BF2080F31188BFF34F8FBFF36F8F40
:1020B00000F0D6F918B104494FF0805008600020B4
:1020C00080F3118810BD000004ED00E070B50E46ED
:1020D00005004FF0000418D0601EB0FBF5F0B042D0
:1020E00013D305FB06F010F1490F0ED84830FFF767
:1020F000E5FC040009D004F1480120463EB101602E
:10210000C0E90F56012100F005F8204670BD0060BF
:10211000F6E700002DE9F0410F4604004FF00106FC
:102120003CD0E06BC8B3B51EB5FBF0F1206C81422A
:1021300034D3FFF77FFED4E90F20216802FB0011A2
:10214000A1600021A163216861600A46D4E90F0102
:10215000401E00FB01212046E16000F8445F45700D
:1021600004F110004FB1FFF733FE04F12400FFF734
:102170002FFE00BFFFF76CFE11E021690029F9D0A6
:1021800000F002FA0028F5D006494FF080500860B0
:10219000BFF34F8FBFF36F8FECE7FFE700263046AA
:1021A000BDE8F08104ED00E02DE9FF4700273B4E3C
:1021B00082B099468A460446B8464FF0805500BF23
:1021C000FFF738FEA06BE16B884206D3B9F1020F2E
:1021D00003D00498C0B1D7B11DE04A46514620460D
:1021E000FFF747FB616A19B104F1240000F0CCF954
:1021F00020B13560BFF34F8FBFF36F8FFFF728FE1D
:10220000012006B0BDE8F087FFF722FE21E0684616
:10221000FFF7AAFE0127FFF71BFEFFF7FBFEFFF704
:1022200009FE94F94400401C01D184F8448094F9DB
:102230004500401C01D184F84580FFF709FE04A940
:10224000684600F0A5F830B12046FFF701FC00F029
:1022500001FA0020D5E7FFF7EDFDA06BE16B8842A6
:1022600013D1FFF7F5FD04F110000499FFF78AFE82
:102270002046FFF7EDFB00F0EDF90028A0D1356016
:10228000BFF34F8FBFF36F8F9AE7FFF7E1FD204653
:10229000FFF7DEFB00F0DEF992E7000004ED00E05E
:1022A0002DE9F7470026DFF8E48083B08A4604462C
:1022B000B1464FF0805700BFFFF7BCFDA56BC5B11D
:1022C00051462046FFF7C2FA6D1EA563206950B142
:1022D00004F1100000F058F928B1C8F80070BFF3FD
:1022E0004F8FBFF36F8FFFF7B3FD012006B0BDE83E
:1022F000F087059808B11EB106E0FFF7A9FD27E0B9
:102300006846FFF731FE0126FFF7A2FDFFF782FEC8
:10231000FFF790FD94F94400401C01D184F84490EB
:1023200094F94500401C01D184F84590FFF790FDD9
:1023300005A9684600F02CF8002820460AD0FFF7CF
:1023400087FB00F087F92046FFF75EFB0028B3D03B
:102350000020CBE7FFF758FB90B104F1240005996A
:10236000FFF710FE2046FFF773FB00F073F900281B
:10237000A2D1C8F80070BFF34F8FBFF36F8F9BE7F8
:102380002046FFF765FB00F065F995E704ED00E0F6
:102390002DE9F0410C460546FFF74CFD114EF26861
:1023A0006B682168D01A4F1C0AD02F68D6F820C05D
:1023B0000026674506D0934204D8012526600BE02D
:1023C000002509E0814205D9081A20602846FFF758
:1023D000CBFDF5E701252660FFF73AFD2846BDE86D
:1023E000F0810000500000202DE9FF5F8346DDE909
:1023F0000E878A46164699469000FFF75FFB050058
:102400001DD04C20FFF75AFB040015D04C21FDF7DE
:1024100012FF25630021CDE90241CDE900874B463B
:10242000324651465846FFF791FA2046FFF778F9B1
:10243000012004B0BDE8F09F2846FFF713FD4FF0E0
:10244000FF30F6E70548416919B1006B18B100206B
:1024500070470120704702207047000050000020A4
:102460002DE9F041464C0026206B28B1A069401CA4
:10247000A0613046BDE8F081E5686D1CE56008D1DB
:10248000606BA16B6163A063206A401C2062FFF750
:10249000C9FAA16A3B488D420FD34FF0000E616B21
:1024A000096839B1616BC968C9684A68954214D234
:1024B000A26202E04FF0FF31A1622168C96A01EB1C
:1024C000810150F82100012800D901262C481C3038
:1024D00000680028CDD00126CBE7D1E902724B6914
:1024E000BA60D1E902277A605F680A1D974201D17C
:1024F000CF685F60C1F814E01F687F1E1F60D1F8CD
:1025000028C0BCF1000F15D0D1E907379F60D1E991
:1025100007377B60DCF8047001F118039F4202D199
:102520000B6ACCF80430C1F828E0DCF800305B1E00
:10253000CCF80030CB6A0127D4F810C09F4047EA9E
:102540000C07276103EB830300EB83035B688B605D
:102550009F68CF609F687A609A60CA6A02EB8202C5
:1025600000EB82034B6150F822305B1C40F82230B4
:10257000C96A2268D26A914291D901268FE7000088
:10258000500000202445002070B5C068C068D0E924
:102590000731826A9960D0E907135960536800F1E6
:1025A00018018B4201D1036A5360002383621468CF
:1025B000641E1460254A156B0124ADB1244D6B686F
:1025C000C3619E6806629E68716099608562296831
:1025D000491C2960C06A1168C96A884234D91B49FC
:1025E00001201C310C6070BDD0E902654169B56005
:1025F000D0E9025675604E68051DAE4201D1C6682D
:102600004E6043610B685B1E0B60C36A166904FA77
:1026100003F13143116103EB83010D4B8C3B03EB61
:102620008101496881608E68C6608E6875608D60C2
:10263000C16A01EB810103EB8105456153F821502B
:102640006D1C43F82150C5E7002070BD50000020EC
:10265000B04500202DE9F04700242746FFF7EAFBAC
:10266000444D286B401E2863286B00287CD1A86845
:10267000DFF804C1A2464FF0010905F11C06E8BBD2
:1026800072E000BFDCF80C00C468D4E90721A06A3E
:102690009160D4E907125160426804F118018A423E
:1026A00001D1216A4160C4F828A001685246491E40
:1026B0000160D4E9023160699960D4E9021359607C
:1026C0004368211D8B4201D1E36843606261026867
:1026D000521E0260E36AD5F810804A4609FA03F0F8
:1026E00040EA0800286103EB8300234B8C3B03EB9B
:1026F00080004068A060D0F8088000E017E0C4F8CF
:102700000C80D0F80880C8F804108160E06A00EB03
:10271000800003EB8001616153F82010491C43F8ED
:102720002010E06A2968C96A884200D93260DCF862
:1027300000000028A6D10CB1FFF774F9AC6944B1D0
:10274000FFF78EFE08B1C6F80090641EF8D1C5F8F8
:1027500018A0306840B12868012708493807086088
:10276000BFF34F8FBFF36F8FFFF772FB3846BDE8A3
:10277000F087000050000020B045002004ED00E08C
:10278000010202030405060708090A0B0C0D0E0FCF
:102790001010000000000000000001020304060702
:1027A0000809000000000102030400006164736670
:1027B0006466617364677364666773646667617394
:1027C0006466617364666173646661736466617391
:1027D00064000000F42700080000002094000000BE
:1027E000AC13000888280008940000205C49000011
:1027F000BC13000800000000000000000000000002
:1028000000000000AC2700080000000000000000ED
:1028100000000000010000001000000000000000A7
:1028200000127A000000000000000000000000001C
:102830000000000000000000000000000000000098
:10284000AAAAAAAA000000000000000000000000E0
:102850000000000000000000000000000000000078
:102860000000000000000000000000000000000068
:102870000400000000000000000000000000000054
:08288000000000000000000050
:0400000508000131BD
:00000001FF
