:020000040800F2
:10000000E8490020E1010008BF100008B10F000816
:10001000BD1000087102000857130008000000001E
:10002000000000000000000000000000490100087E
:1000300073020008000000008D010008C1100008D4
:10004000FB010008FB010008FB010008FB010008A0
:10005000FB010008FB010008FB010008FB01000890
:10006000FB010008FB010008FB010008FB01000880
:10007000FB010008FB010008FB010008FB01000870
:10008000FB010008FB010008FB010008FB01000860
:10009000FB010008FB010008FB0100088B020008BF
:1000A000FB010008FB010008FB010008FB01000840
:1000B000FB010008FB010008FB010008FB01000830
:1000C000FB010008FB010008FB010008FB01000820
:1000D000FB010008FB010008FB010008FB01000810
:1000E00075020008FB010008FB010008FB01000885
:1000F000FB010008FB010008FB010008FB010008F0
:10010000FB010008FB010008FB010008FB010008DF
:10011000FB010008FB010008FB0100083511000885
:10012000FB010008FB010008FB010008FB010008BF
:10013000DFF810D000F08AF800480047611400088A
:10014000AFF30080E8490020224B19680868B0E846
:10015000F00F80F30988BFF36F8F4FF0000080F33A
:1001600011884EF00D0E7047000000000648006830
:10017000006880F3088862B661B6BFF34F8FBFF3A3
:100180006F8F00DF00BF00BF08ED00E0EFF30980D4
:10019000BFF36F8F0F4B1A6820E9F00F106008B59E
:1001A0004FF0BF0080F31188BFF34F8FBFF36F8F05
:1001B00001F0CCFE4FF0000080F31188BDE808404C
:1001C00019680868B0E8F00F80F30988BFF36F8FF3
:1001D000704700BF48000020EFF305807047000023
:1001E0000648804706480047FEE7FEE7FEE7FEE7D1
:1001F000FEE7FEE7FEE7FEE7FEE7FEE73311000855
:100200003101000840EA01039B0703D009E008C957
:10021000121F08C0042AFAD203E011F8013B00F8CB
:10022000013B521EF9D27047D2B201E000F8012B17
:10023000491EFBD270470022F6E710B513460A4666
:1002400004461946FFF7F0FF204610BD064C074D47
:1002500006E0E06840F0010394E807009847103496
:10026000AC42F6D3FFF768FF6C2800088C28000822
:10027000FEE7704710B54FF4806000F06DF8BDE800
:1002800010404FF4006000F067B810B54FF4807074
:1002900000F062F8BDE810404FF4007000F05CB868
:1002A00072B6FEE770B5044600F064F90546601CBE
:1002B00002D004480078044400F05CF9401BA042DE
:1002C000FAD370BD1800002010B5B0F5807F0DD0B6
:1002D000B0F5007F11D0B0F5806F10D0B0F5006F91
:1002E0000AD108A0BDE8104001F036B80AA001F01C
:1002F00033F80E490120087010BD0DA0F2E711A0DF
:10030000F0E70000535736206973207072657373ED
:1003100065640D0A00000000535733206973207094
:100320007265737365640D0A0000000014000020FC
:1003300053573420697320707265737365640D0AB6
:100340000000000053573520697320707265737385
:1003500065640D0A00000000044910B50A680242F5
:1003600002D00860FFF7B0FF10BD00001404014088
:100370002DE9F84FDFF8C8910024A9F1040B2346BA
:100380000F2709F1040AABF1040ED1E00125A540C5
:1003900006EA0502AA4276D1DFF8A8C14E68A6EBAC
:1003A0000C0866452BD00DDC032E34D005DC36B3AB
:1003B000012E19D0022E2FD11BE0112E16D0122E95
:1003C0002AD119E0B8F5881F19D006DCB8F5803FAE
:1003D00015D0B8F5801F1FD111E0B8F5001F0ED061
:1003E000B8F5041F18D10AE0CB6815E0CB681B1DD7
:1003F00012E0CB6808330FE0CB680C330CE08B685D
:100400002BB1012B4FF0080303D0456104E0042316
:1004100002E0056100E00023FF2A01D8064601E062
:1004200000F104064FEA840501D9A5F12005D6F8AC
:10043000008007FA05FC28EA0C0803FA05F548EAEB
:100440000508C6F800804D68ED0070D53E4DAE69D8
:1004500046F00106AE61AD6924F0030605F0010522
:1004600000953A4D06EB050CDCF80850A607360F50
:1004700007FA06F825EA0805DFF8D480404503D1DD
:100480004FF0000825E052E0DFF8C880404502D177
:100490004FF001081DE0DFF8C080404502D14FF069
:1004A000020816E0DFF8B480404502D14FF003089F
:1004B0000FE0DFF8AC80404502D14FF0040808E0BF
:1004C000DFF8A080404502D14FF0050801E04FF071
:1004D000060808FA06F848EA0508CCF808804D68CE
:1004E000D9F80060ED024D4601D5164300E0964371
:1004F0002E604D68DAF80060AD02554601D516430E
:1005000000E096432E604D68DBF80060AD035D4669
:1005100001D5164300E096432E604D68DEF800607A
:10052000ED03754601D5164300E096432E60641C2A
:100530000A681646E2407FF429AFBDE8F88F000054
:1005400008040140000011100010024000000140AA
:1005500000080140000C014000100140001401405F
:1005600000180140001C01400AB1016170470904F4
:10057000FBE7000001488068704700001800002079
:100580000248816802781144816070471800002099
:10059000074810B5016841F010010160032000F028
:1005A000A1F8012000F006F800F050F8002010BD7E
:1005B0000020024030B505461F4887B0C16941F0B0
:1005C0002001C161C06906A900F02000009001A8C7
:1005D00000F030F90498B0B100F04CF94000174930
:1005E000174AB0FBF1F11748491E0260416040F222
:1005F000E7320021C0E903218160816100F012FB34
:10060000040003D015E000F035F9E8E70D4800F0EC
:1006100037FB04000DD1372000F036F8102D07D23B
:1006200000222946372000F03DF80748056000E029
:10063000012407B0204630BD0010024040420F00A8
:1006400000140040D40000201C0000200C4808B515
:10065000816941F001018161816901F0010100912D
:10066000C16941F08051C161C06900F080500090C3
:100670000448416821F0E06141F00071416008BD2B
:100680000010024000000140002809DB00F01F02BA
:10069000012191404009800000F1E020C0F80011E4
:1006A00070470000F0B40E4B1B680C46C3F30223E6
:1006B000C3F10705042D00D90425191D072901D20E
:1006C000002300E0DB1E012606FA05F1491E214049
:1006D00099409E40761E16403143F0BC00F044BE67
:1006E0000CED00E0064900F0070208684FF6FF0332
:1006F000184040EA0220034A104308607047000097
:100700000CED00E00000FA052DE9F0470F4605006A
:1007100061D0434E306800F00700B84209D230681B
:1007200020F0070038433060306800F00700B8421E
:1007300051D128683B4C810712D5400703D560682A
:1007400040F4E06060602878000703D5606840F4FA
:10075000605060606068A96820F0F0000843606045
:100760002878C00728D06868012810D0216802289E
:1007700010D0890700292EDA616821F003010143B6
:100780006160FFF7F7FE804641F288390DE021688D
:100790008903EFE78901EDE7FFF7ECFEA0EB080125
:1007A000494502D90320BDE8F0876068696800F018
:1007B0000C00B0EB810FEFD1306800F00700B842B9
:1007C0000BD9306820F0070038433060306800F003
:1007D0000700B84201D00120E5E72878400705D599
:1007E0006068E96820F4E0600843606028780007EA
:1007F00006D56068296920F4605040EAC100606055
:1008000000F058F86168084AC1F30311515CC84010
:100810000649086006480068FFF7CCFE0020C2E7E2
:10082000002002400010024052280008240000204E
:100830001C0000200F2202600C4A536803F00303DF
:100840004360536803F0F0038360536803F4E0638C
:10085000C36052684FF4E06303EAD20202610448C5
:10086000006800F0070008607047000000100240B8
:10087000002002400448054900684968044AC1F361
:100880000221515CC8407047240000200010024043
:10089000622800080448054900684968044AC1F311
:1008A000C221515CC8407047240000200010024063
:1008B000622800080E4A51680E4801F00C03042B10
:1008C00011D0082B0FD10C48C1F38343C903C05C7E
:1008D0000AD55168084AC1F34041921E515C054A4D
:1008E0005043B0FBF1F070470449484370470000A3
:1008F0000010024000127A004228000800093D0062
:100900002DE9F84F040070D02078C04DC00749D0C1
:100910006868C0F38100012807D06868C0F38100CF
:10092000022809D16868C00306D52868800339D534
:1009300060680028E7D035E06068B0F5803F0BD0F4
:1009400010B1B0F5A02F11D0286820F480302860B5
:10095000286820F4802002E0286840F48030286075
:10096000606890B1FFF706FE06460AE0286840F48A
:1009700080202860F0E700BFFFF7FCFD801B6428A3
:1009800073D828688003F7D50CE0FFF7F3FD06461F
:1009900005E000BFFFF7EEFD801B6428F0D8286853
:1009A0008003F7D420789A4E80074FF001094FF06A
:1009B000000839D5686810F00C0F07D06868C0F3DC
:1009C0008100022809D16868C00306D4286880071E
:1009D00014D52069012808D110E02069B0B1C6F80B
:1009E0000090FFF7C7FD074605E00AE1FFF7C2FDEB
:1009F000C01B0228C4D828688007F7D52868616919
:100A000020F0F80040EAC10028600DE0C6F8008040
:100A1000FFF7B0FD074604E0FFF7ACFDC01B02285E
:100A200023D828688007F7D4207800072CD5794888
:100A3000A169D9B1C0F80090FFF79CFD074604E01A
:100A4000FFF798FDC01B02280FD8686A8007F7D50A
:100A500071484FF4FA510068B0FBF1F0009000BF0C
:100A60000098411E0091FAD20EE080E0C0F80080AC
:100A7000FFF780FD074604E0FFF77CFDC01B02285E
:100A800075D8686A8007F7D42078400760D5E86990
:100A90000027C00008D4E86940F08050E861E869A8
:100AA000012700F0805000905C480168C90513D40C
:100AB0000168834641F480710160FFF75BFD824667
:100AC00006E000BFFFF756FDA0EB0A0064284ED8F1
:100AD000DBF80000C005F5D5E06801280AD008B1B0
:100AE000052813D0286A20F001002862286A20F027
:100AF000040002E0286A40F001002862E06841F248
:100B0000883B98B1FFF736FD82460BE0286A40F03B
:100B100004002862EEE700BFFFF72CFDA0EB0A01FE
:100B200059455AD8286A8007F6D50CE0FFF722FD10
:100B3000824605E0FFF71EFDA0EB0A0159454CD89F
:100B4000286A8007F6D41FB1E86920F08050E86178
:100B5000E06988B36968C1F38101022944D00228A1
:100B6000C6F8608004D0FFF705FD044638E034E0A5
:100B7000FFF700FD074604E0FFF7FCFCC01B02285E
:100B80002BD828688001F7D4206AB0F5803F05D1C2
:100B90006868A16820F4003008436860D4E908015F
:100BA0000843696821F4741108436860C6F86090CE
:100BB000FFF7E0FC044606E025E000BFFFF7DAFCA3
:100BC000001B022809D828688001F7D51BE000BF68
:100BD000FFF7D0FC001B022802D90320BDE8F88FE4
:100BE00028688001F4D40EE00128F7D06868226AF2
:100BF00000F48031914204D1616A00F4701088429F
:100C000001D00120EAE70020E8E7000000100240E0
:100C10000000424280044242240000200070004054
:100C20007047704710B5040003D094F83D0010B130
:100C300007E0012010BD002084F83C00204600F0B1
:100C40001EF8022084F83D00211D206800F078FA8B
:100C5000012084F8460084F83E0084F83F0084F8C0
:100C6000400084F8410084F8420084F8430084F88E
:100C7000440084F8450084F83D00002010BD704712
:100C800090F83D10012901D001207047022180F821
:100C90003D100168CA6842F00102CA6000680E494E
:100CA00088420ED00D4988420BD0B0F1804F08D059
:100CB0000B49884205D00B49884202D00A49884234
:100CC00004D1816801F00701062903D0016841F0D1
:100CD0000101016000207047002C014000340140F8
:100CE0000004004000080040000C004070472DE95F
:100CF000F04104460068C66805694FF00007A9077F
:100D000013D5B10711D5F91E0161012020772068A4
:100D100080698007204602D0FFF7E8FF04E000F07A
:100D20007EF8204600F07CF82777680716D5700714
:100D300014D521686FF00400086102202077206834
:100D4000806910F4407F204602D0FFF7CFFF04E017
:100D500000F065F8204600F063F82777280715D5DE
:100D6000300713D521686FF0080008610420207750
:100D70002068C0698007204602D0FFF7B7FF04E073
:100D800000F04DF8204600F04BF82777E80616D51E
:100D9000F00614D521686FF0100008610820207754
:100DA0002068C06910F4407F204602D0FFF79EFF04
:100DB00004E000F034F8204600F032F82777E80726
:100DC00008D0F00706D021686FF0010008612046C6
:100DD00000F028F8280608D5300606D521686FF0FF
:100DE000800008612046FFF71BFF680608D57006E3
:100DF00006D521686FF040000861204600F01CF81D
:100E0000A8060AD5B00608D521686FF02000086151
:100E10002046BDE8F041FFF704BFBDE8F081704710
:100E20007047000000680349884201D1FFF7A8BB62
:100E30007047000000140040704770B5040004D0F3
:100E400094F84100002510B106E0012070BD84F83F
:100E50004050204600F024F8242084F84100206807
:100E6000C16821F40051C160204600F0DFF920681C
:100E7000016921F4904101612068416921F02A0152
:100E800041612068C16841F40051C160656420205F
:100E900084F8410084F842006563002070BD0000C2
:100EA00030B585B000240094019402940394006846
:100EB0001449884224D11448816941F480418161F8
:100EC000816901F480410491816941F004018161EB
:100ED00080690E4D00F0040004904FF40070009003
:100EE000022001900320039069462846FFF740FA4C
:100EF0002815CDE90004694628460294FFF738FA20
:100F000005B030BD0038014000100240000801402B
:100F10002DE9F843044690F84100984616460D46E0
:100F2000202802D00220BDE8F88385B17EB10020E0
:100F30006064212084F84100FFF71CFBA6848146F1
:100F4000E684A0682027B0F5805F02D003E001208E
:100F5000E9E7206910B12E4600250EE000260CE0DE
:100F60008021204600F0BEF9A8B9C6B116F8010BE1
:100F700021684860E08C401EE084E08C4B464FF0D6
:100F80000002CDF800800028EAD14FF04001204651
:100F900000F0A8F940B184F841700320C3E735F8A8
:100FA000020BC0F30800E3E784F841700020BAE7C1
:100FB000FEE700002DE9F04186B000242C480094A3
:100FC000019402940394816941F010018161816967
:100FD00001F010010491816941F080018161816912
:100FE00001F080010491816941F00401816180690F
:100FF000DFF8808000F0040040F203160490012224
:1010000031464046FFF7B0FA4FF4407000901A485E
:101010000125CDE90105194F69463846FFF7A8F9C2
:101020004FF44060009016480190022002906946FB
:101030003846FFF79DF90320CDE90240CDE9006570
:1010400069464046FFF794F9002203211720FFF775
:1010500029FB1720FFF718FB002203212820FFF7A8
:1010600021FB2820FFF710FB06B0BDE8F08100004F
:10107000001002400008014000002110001C014047
:10108000000011100C4810B50A4901604FF4E1311D
:101090004160002181600C22C160C0E904128161BD
:1010A000C161FFF7CAFE002803D0BDE81040FFF77A
:1010B000F7B810BD003801408C000020FEE7FEE7C5
:1010C00010B501F081F9012803D0BDE8104000F00F
:1010D0007BBF10BD30B58FB028216846FFF7ABF855
:1010E00014210AA8FFF7A7F801210804CDE9001090
:1010F0000024029402250491CDE907504FF4E0103A
:1011000009906846FFF7FCFB08B172B6FEE70F20B6
:10111000CDE90A054FF48060CDE90C4002210AA810
:101120000E94FFF7F1FA002801D072B6FEE70FB077
:1011300030BD70470148FFF7DABD0000D400002041
:10114000F0B50268204C214D214E224F224B4FF02A
:10115000804CA04209D0984207D0604505D0A842F3
:1011600003D0B04201D0B84204D122F0700E4A68D8
:1011700042EA0E02A04209D0984207D0604505D04D
:10118000A84203D0B04201D0B84203D122F4407546
:10119000CA682A434D6922F080022A4302608A68A5
:1011A000C2620A688262A04201D0984201D10969F4
:1011B0000163012141610169C90703D0016921F07F
:1011C00001010161F0BD0000002C0140000400405D
:1011D00000080040000C00400034014001680C3160
:1011E00051E8002F22F4907241E80023002BF5D142
:1011F0000168143151E8002F22F0010241E8002378
:10120000002BF5D1016B012909D101680C3151E89E
:10121000002F22F0100241E80023002BF5D12021FD
:1012200080F84210002101637047000070B5044649
:1012300000680169E26821F44051114301612169AC
:10124000A0680843616908432168CA6841F20C63D9
:101250009A430243CA6020684169A26921F440713F
:10126000114341611E492068884202D1FFF712FBF9
:1012700001E0FFF7FFFA00EBC00101EB001260682C
:1012800064218000B2FBF0F3B3FBF1F36FF01806BA
:101290007343B2FBF0F5B2FBF0F605EB83053223A6
:1012A00003EB0515B5FBF1F5B6FBF1F605F0F0051E
:1012B00005EB0615B2FBF0F6B2FBF0F0B0FBF1F077
:1012C0006FF01802504306EB800003EB0010B0FBF8
:1012D000F1F0216800F00F002844886070BD000024
:1012E000003801402DE9F843984617460D4604465C
:1012F000089E24E0701C22D0FFF73CF9A0EB080008
:10130000B0421AD8CEB12068C168490717D5802DE0
:1013100015D0402D13D00168C94309070FD40168C7
:101320000025406800902046FFF758FF08206064C1
:1013300084F840500120BDE8F8830320FBE72068D3
:10134000006835EA000004D00020B842D2D0002066
:10135000F1E70120F9E7FEE7014A024900F023B86E
:10136000C9130008880000200907090E002804DBC3
:1013700000F1E02080F80014704700F00F0000F149
:10138000E02080F8141D704702E008C8121F08C151
:10139000002AFAD170477047002001E001C1121FF6
:1013A000002AFBD170472DE9F04116460F4604464E
:1013B000002503E03946B047641C6D1C20780028E6
:1013C000F8D12846BDE8F08113B54FF6FF7301222E
:1013D00069460248FFF79CFD00981CBD8C00002068
:1013E0001CB5012000F006FE0A49086108B10AA0F8
:1013F00000E010A0FFF7B0FF06490120CDE9000191
:101400000023802212A1154800F0B0FFBDE81C4067
:1014100000F05CBD000000207853656D6170686F5E
:1014200072652063726561746520737563636573AB
:10143000730D0A007853656D6170686F7265206383
:101440007265617465206661696C0D0A00000000B8
:1014500073746172745F7461736B00008D1900089E
:10146000FFF796F8FFF736FEFFF7A4FDFFF70AFE39
:1014700002A0FFF771FFFFF7B3FFFEE748656C6C52
:101480006F2052544F530D0A000000002DE9F04721
:10149000204C0F460546E668D4F83490D4F83880DE
:1014A0002068001D00F0B0FB38B9206890F82C10BF
:1014B00001208840216981432161681C15D1A7B1B1
:1014C000154922684868906023688268DA6022685B
:1014D0008368121D5A602268121D82602068416173
:1014E0000868401C0860BDE8F08720683544B542B4
:1014F0004560216805D24046BDE8F047091D00F06F
:10150000A3BB4846091D00F09FFBA06A8542EAD2B2
:10151000A562E8E748000020D04500202DE9F04111
:10152000054600F0B5FB364CA068401CA060206862
:10153000344F10B1606940B32DE02560A0680128E8
:1015400029D1002606EB860007EB800000F06EFB39
:10155000761C052EF6D32B48643000F067FB294833
:10156000783000F063FB27488C3000F05FFB2548A3
:10157000A03000F05BFB2348B43000F057FB21485B
:10158000643060631430A06305E02068E96AC06AD3
:10159000884200D82560606A0121401C6062E86AC8
:1015A000226981401143216100EB800007EB80003C
:1015B0004068A8608168E9608268291D5160816087
:1015C000E86A00EB800007EB8001696157F82010A2
:1015D000491C47F8201000F069FB606900280CD016
:1015E0002068E96AC06A884207D207494FF08050F4
:1015F0000860BFF34F8FBFF36F8FBDE8F08100002D
:10160000480000201C45002004ED00E070B50C4CA3
:101610000C4E11E000F03CFBF068C568281D00F09E
:10162000F3FAA068401EA0606068401E606000F091
:101630003DFB284600F03EF860680028EAD170BD06
:1016400048000020BC4500202DE9F041856B17467D
:1016500004460026026C82B1C7B1E068FEF7D2FDF5
:10166000E168206C091AE1602268914202D2A16807
:10167000081AE060022F16D017E02068A8B9A06809
:1016800000F044FF06460020A0600EE06068FEF710
:10169000B9FD216C606808446060A168884204D389
:1016A0002068606001E005B16D1E6D1CA5633046C9
:1016B000BDE8F08110B50446006B00F001FB204648
:1016C000BDE8104000F0FCBA0E484FF488414207D4
:1016D00006D0C01D0B4920F00700411AC1F5884112
:1016E000094A00230144C2E900030839143A21F0F1
:1016F000070111604B600B600B1AC0E90013936087
:10170000536070471C0100203C000020074C4FF044
:101710008056074DFFF77AFF20680128FAD92E601E
:10172000BFF34F8FBFF36F8FF4E700001C4500201D
:1017300004ED00E02DE9F0479946DDE909648046B3
:101740006FF00303206B03EB8202089D104420F02E
:10175000070761B1002023180A5C83F834200A5C73
:1017600012B1401C1028F6D3002084F84300052D48
:1017700000D30425E562201D656400F062FA04F1DF
:10178000180000F05EFA2461C5F105006462A061F2
:101790004A464146384600F0E7F82060002E00D067
:1017A0003460BDE8F087000030B5114900E0114613
:1017B0000A688242FBD34B685C18844203D14068BC
:1017C00018444860084643681C18944209D1084CE4
:1017D000143C2468A24209D052681A4442600A6844
:1017E00012680260814200D0086030BD0460F9E7F1
:1017F0003C00002010B5044600F04AFAA06B28B166
:101800005FF0000400F052FA204610BD0124F9E711
:101810000548416B096821B1416BC968096881625B
:1018200070474FF0FF31FAE748000020BF2080F3F7
:101830001188BFF34F8FBFF36F8FFEE72DE9F041A3
:10184000044600F025FA94F9455004F1240609E015
:10185000606A48B1304600F0F7FE08B100F0D2FAF5
:101860006D1E6DB2002DF3DC4FF0FF3684F845603D
:1018700000F01CFA00F00CFA94F9445004F110073F
:1018800009E0206948B1384600F0DEFE08B100F0FA
:10189000B9FA6D1E6DB2002DF3DC84F84460BDE82A
:1018A000F04100F003BA00002DE9F04104004FF0D0
:1018B00000060FD014F1090F0BD80834600709D0C7
:1018C00004F00700C0F10800C1438C4201D8044471
:1018D00000E0002400F032FB1D4D286808B9FFF736
:1018E000F3FE002C2FDD6B689C422CD81848143076
:1018F0000146096801E0084611464A68A24202D240
:101900000A68002AF7D12A6891421CD006680A6842
:1019100002604A680836171B102F05D90A1957604C
:101920004C600468146002604A68981A6860AB688A
:10193000984200D2A86042F0004048600020086051
:10194000E868401CE86000F0E5FE3046BDE8F08144
:101950002800002003480068002802D0816C491C40
:10196000816470474800002010B5031F4FF0807459
:101970001C601B1F21F001011960191F024B0B6035
:10198000143940380A6010BD2D1800081CB500F04D
:101990007FF914490220CDE900010023802212A121
:1019A000134800F0E3FC0F490320091DCDE90001B5
:1019B000002380220FA1114800F0D8FC094904201F
:1019C0000831CDE90001002380220DA10E4800F06E
:1019D000CDFC0448001F006800F0B8F9BDE81C40C9
:1019E00000F064B9040000207461736B31000000E2
:1019F0000D1A00087461736B32000000D91A0008D8
:101A00007461736B33000000411B000811A0FFF7E5
:101A1000A3FC164C4FF0FF3540F6B8364FF47A77FA
:101A200013A0FFF799FC2946206900F0DFFB19A0FD
:101A3000FFF792FC3046FEF735FC1EA0FFF78CFC4A
:101A400000231A461946206900F054FB384600F07E
:101A500065F9E5E77461736B312069732072756E07
:101A6000696E672E2E2E0D0A000000000000002077
:101A7000E4BD8EE4BC98E58588E7BAA75461736B32
:101A800031E88EB7E58F96E4BFA1E58FB7E9878F80
:101A90005C720A00E4BD8EE4BC98E58588E7BAA7CD
:101AA0005461736B31E6ADA3E59CA8E8BF90E8A153
:101AB0008C0D0A00E4BD8EE4BC98E58588E7BAA7E2
:101AC0005461736B31E9878AE694BEE4BFA1E58F68
:101AD000B7E9878F5C720A0040F2DC544FF47A75E4
:101AE00006A0FFF739FC2046FEF7DCFB0CA0FFF751
:101AF00033FC284600F012F9F2E70000E4B8ADE448
:101B0000BC98E58588E7BAA7E79A845461736B327D
:101B1000E6ADA3E59CA8E689A7E8A18C0D0A000024
:101B20005461736B32E689A7E8A18CE5AE8CE68838
:101B300090E4B880E6ACA12E2E2E2E2E0D0A0000C9
:101B400010A0FFF709FC154C4FF0FF364FF47A75E3
:101B500013A0FFF701FC3146206900F047FB19A0F4
:101B6000FFF7FAFB2846FEF79DFB1EA0FFF7F4FBEC
:101B700000231A461946206900F0BCFA284600F0F6
:101B8000CDF8E5E77461736B332069732072756E6D
:101B9000696E672E2E2E0D0A000000000000002046
:101BA000E9AB98E4BC98E58588E7BAA75461736B04
:101BB00033E88EB7E58F96E4BFA1E58FB7E9878F4D
:101BC0005C720A00E9AB98E4BC98E58588E7BAA79F
:101BD0005461736B33E6ADA3E59CA8E8BF90E8A120
:101BE0008C0D0A00E9AB98E4BC98E58588E7BAA7B4
:101BF0005461736B33E9878AE694BEE4BFA1E58F35
:101C0000B7E9878F5C720A00D0E9013201699A60F6
:101C1000D0E901235A604A68824201D182684A6051
:101C2000002202610868401E0860704700F1080148
:101C30004FF0FF32C0E90112C16001610021016073
:101C4000704700210161704730B50B685A1C02D003
:101C500000F1080202E0026904E0224654682568A7
:101C60009D42FAD953684B6099608A60516008615F
:101C70000168491C016030BD42684A6093688B600E
:101C800093685960916008610168491C0160704760
:101C9000BF2080F31188BFF34F8FBFF36F8F0248CF
:101CA0000168491C0160704744000020034908682E
:101CB000401E086001D180F3118870474400002065
:101CC00070B500281BD0A0F108046068002816DA5F
:101CD0002168002913D120F00040606000F02EF947
:101CE000074D60686968084468602046FFF75CFD3E
:101CF0002869401C2861BDE8704000F00BBD70BD34
:101D0000280000204FF0E02000210161816102499C
:101D100041610721016170473F19010010B50200C0
:101D200009D000F00BF900211046FFF7AFFB00F0DF
:101D3000F1FC002807D104494FF080500860BFF340
:101D40004F8FBFF36F8F10BD04ED00E070B50546F7
:101D5000FFF79EFF244C05B92568281DFFF754FFA7
:101D600058B9E86A214A00EB800152F8211021B9E4
:101D700001218140206988432061A86A18B105F1DA
:101D80001800FFF741FF606A401C606220688542CE
:101D900001D1012000E00020616959B150B1134820
:101DA000291DA030FFF768FF6068401C6060FFF7E6
:101DB0007DFF09E0A068401EA060FFF729FDFFF746
:101DC00075FF2846FFF776FC606900280AD0206876
:101DD000854207D106494FF080500860BFF34F8F0E
:101DE000BFF36F8F70BD0000480000201C4500202D
:101DF00004ED00E002490A6A0260C9684160704768
:101E0000480000200149012008607047640000205C
:101E100010B50C46054909681831FFF715FF204633
:101E2000BDE810400121FFF731BB00004800002051
:101E300070B5040044D0606C884200D30146E06A6B
:101E400088423DD0A26C012A3AD1E162A269002AFF
:101E500002DBC1F10501A1611A4D00EB800061694F
:101E600005EB800081422BD1201DFFF7CDFE1649E6
:101E7000012230B994F82C000B6902FA00F0834378
:101E80000B61E06A0B6982401A430A6100EB800033
:101E900005EB80004068A0608168E1608268211DD8
:101EA00051608160E06A00EB800005EB80006061BA
:101EB000E06A00EB800055F82010491C45F820101E
:101EC00070BD00001C4500204800002030B587B0E0
:101ED0000024029403940494204602A9059413A2BA
:101EE000125C0A5412B1401C0F28F8D30C5412494A
:101EF0001048CDE900410023802202A900F036FA03
:101F00000D4D3C3D01280ED1BF2080F31188BFF359
:101F10004F8FBFF36F8F4FF0FF30A86201206861D1
:101F2000EC6000F039F8E86A07B030BD49444C4530
:101F3000000000000D170008840000200248016B1B
:101F4000491C0163704700004800002010490A6BDB
:101F500001F11C0012B101210160704700220260F2
:101F600008690C4AB0FA80F0C0F11F0000EB800055
:101F700002EB800000F108034268526842609A4216
:101F800001D1C2684260D0680860086870470000EC
:101F9000480000201C450020094810B5016841F4A4
:101FA0007F010160016841F07F410160FFF7AAFEF7
:101FB000044900200860FEF7D9F8002010BD000099
:101FC00020ED00E04400002010B5BF2080F3118810
:101FD000BFF34F8FBFF36F8F00F004FA18B10449BD
:101FE0004FF080500860002080F3118810BD000081
:101FF00004ED00E010B502460021012000F00CF8CD
:10200000041E07D00021816001600B460A46C160B2
:1020100000F070F8204610BD70B50E4605004FF078
:10202000000418D0601EB0FBF5F0B04213D305FBDE
:1020300006F010F1490F0ED84830FFF735FC0400C8
:1020400009D004F1480120463EB10160C0E90F56B5
:10205000012100F005F8204670BD0060F6E70000A1
:102060002DE9F0410F4604004FF001063CD0E06B33
:10207000C8B3B51EB5FBF0F1206C814234D3FFF735
:1020800007FED4E90F20216802FB0011A1600021A6
:10209000A163216861600A46D4E90F01401E00FB7C
:1020A00001212046E16000F8445F457004F1100012
:1020B0004FB1FFF7BBFD04F12400FFF7B7FD00BFF0
:1020C000FFF7F4FD11E021690029F9D000F0BCFA16
:1020D0000028F5D006494FF080500860BFF34F8FBD
:1020E000BFF36F8FECE7FFE700263046BDE8F081D5
:1020F00004ED00E02DE9FF4700273B4E82B09946F2
:102100008A460446B8464FF0805500BFFFF7C0FD31
:10211000A06BE16B884206D3B9F1020F03D004989B
:10212000C0B1D7B11DE04A4651462046FFF78CFAB0
:10213000616A19B104F1240000F086FA20B135601B
:10214000BFF34F8FBFF36F8FFFF7B0FD012006B0D5
:10215000BDE8F087FFF7AAFD21E06846FFF74AFED9
:102160000127FFF7A3FDFFF7E9FEFFF791FD94F9C3
:102170004400401C01D184F8448094F94500401C7F
:1021800001D184F84580FFF791FD04A9684600F06D
:10219000C1F830B12046FFF751FB00F0BBFA002038
:1021A000D5E7FFF775FDA06BE16B884213D1FFF710
:1021B0007DFD04F110000499FFF72AFE2046FFF789
:1021C0003DFB00F0A7FA0028A0D13560BFF34F8F88
:1021D000BFF36F8F9AE7FFF769FD2046FFF72EFBED
:1021E00000F098FA92E7000004ED00E02DE9F343D7
:1021F0000026DFF81C8183B004463546B1464FF017
:10220000805700BFFFF744FDA06BC8B1401EA0631C
:10221000206810B9FFF79EFBA060206950B104F15F
:10222000100000F011FA28B1C8F80070BFF34F8F0A
:10223000BFF36F8FFFF73AFD012005B0BDE8F083D3
:10224000049808B11EB106E0FFF730FD5EE0684675
:10225000FFF7D0FD0126FFF729FDFFF76FFEFFF71F
:1022600017FD94F94400401C01D184F8449094F97E
:102270004500401C01D184F84590FFF717FD04A9E3
:10228000684600F047F80028204612D0FFF7D6FA3B
:1022900000F040FA2046FFF7ADFA0028B2D075B33F
:1022A000FFF7F6FC606A58B3206B0068C0F10501C7
:1022B00028E0FFF79FFAE0B1206838B9FFF7E8FCA3
:1022C000A06800F069F90546FFF7F0FC04F124006E
:1022D0000499FFF79DFD2046FFF7B0FA00F01AFAC7
:1022E00000288FD1C8F80070BFF34F8FBFF36F8FF6
:1022F00088E72046FFF7A2FA00F00CFA82E705E033
:10230000FFE70021A068FFF793FD9DE7002094E719
:1023100004ED00E02DE9F0410C460546FFF7B8FC5E
:10232000114EF2686B682168D01A4F1C0AD02F68D2
:10233000D6F820C00026674506D0934204D8012570
:1023400026600BE0002509E0814205D9081A2060CB
:102350002846FFF74FFDF5E701252660FFF7A6FCAD
:102360002846BDE8F0810000480000202DE9FF5F0D
:102370008346DDE90E878A46164699469000FFF7A8
:1023800093FA05001DD05420FFF78EFA040015D0F3
:102390005421FDF750FF25630021CDE90241CDE92D
:1023A00000874B46324651465846FFF7C3F9204650
:1023B000FFF7B4F8012004B0BDE8F09F2846FFF70E
:1023C0007FFC4FF0FF30F6E70548416919B1006B1B
:1023D00018B10020704701207047022070470000AC
:1023E000480000202DE9F041464C0026206B28B122
:1023F000A069401CA0613046BDE8F081E5686D1C15
:10240000E56008D1606BA16B6163A063206A401C2A
:102410002062FFF7FDF9A16A3B488D420FD34FF0D0
:10242000000E616B096839B1616BC968C9684A6897
:10243000954214D2A26202E04FF0FF31A1622168FE
:10244000C96A01EB810150F82100012800D9012659
:102450002C481C3000680028CDD00126CBE7D1E9FC
:1024600002724B69BA60D1E902277A605F680A1D7F
:10247000974201D1CF685F60C1F814E01F687F1EEA
:102480001F60D1F828C0BCF1000F15D0D1E9073783
:102490009F60D1E907377B60DCF8047001F1180315
:1024A0009F4202D10B6ACCF80430C1F828E0DCF876
:1024B00000305B1ECCF80030CB6A0127D4F810C086
:1024C0009F4047EA0C07276103EB830300EB83037C
:1024D0005B688B609F68CF609F687A609A60CA6A09
:1024E00002EB820200EB82034B6150F822305B1C4E
:1024F00040F82230C96A2268D26A914291D90126F5
:102500008FE70000480000201C45002010B50400A3
:102510004FF000013AD0A06C401EA064636CE26AE8
:102520009A4233D090BB201DFFF76EFB184A012161
:1025300030B994F82C00136901FA00F08343136159
:10254000606CE062C0F10500A061E06A136981403F
:10255000194311610F4900EB800001EB80004068D6
:10256000A0608268E2608368221D5A608260E06A2F
:1025700000EB800001EB80006061E06A00EB80000E
:1025800051F82020521C41F820200121084610BD9E
:10259000480000201C45002070B504004FF00000EA
:1025A00047D0274DE16A2A68D26A914242D2A06997
:1025B000002804DB2868C06AC0F10500A061214E34
:1025C00001EB8101606906EB810188422DD1201D5C
:1025D000FFF71AFB012130B994F82C002A6901FA9F
:1025E00000F082432A612868C06AE0622A6981405B
:1025F0001143296100EB800006EB80004068A06079
:102600008168E1608268211D51608160E06A00EBB1
:10261000800006EB80006061E06A00EB800056F805
:102620002010491C46F8201002E02868C06AE062C9
:10263000012070BD616C2A68D26A9142F8D370BDE6
:10264000480000201C45002070B5C068C068D0E973
:102650000731826A9960D0E907135960536800F125
:1026600018018B4201D1036A53600023836214680E
:10267000641E1460254A156B0124ADB1244D6B68AE
:10268000C3619E6806629E68716099608562296870
:10269000491C2960C06A1168C96A884234D91B493B
:1026A00001201C310C6070BDD0E902654169B56044
:1026B000D0E9025675604E68051DAE4201D1C6686C
:1026C0004E6043610B685B1E0B60C36A166904FAB7
:1026D00003F13143116103EB83010D4B8C3B03EBA1
:1026E0008101496881608E68C6608E6875608D6002
:1026F000C16A01EB810103EB8105456153F821506B
:102700006D1C43F82150C5E7002070BD4800002033
:10271000A84500202DE9F04700242746FFF7B8FA26
:10272000444D286B401E2863286B00287CD1A86884
:10273000DFF804C1A2464FF0010905F11C06E8BB11
:1027400072E000BFDCF80C00C468D4E90721A06A7D
:102750009160D4E907125160426804F118018A427D
:1027600001D1216A4160C4F828A001685246491E7F
:102770000160D4E9023160699960D4E902135960BB
:102780004368211D8B4201D1E368436062610268A6
:10279000521E0260E36AD5F810804A4609FA03F037
:1027A00040EA0800286103EB8300234B8C3B03EBDA
:1027B00080004068A060D0F8088000E017E0C4F80E
:1027C0000C80D0F80880C8F804108160E06A00EB43
:1027D000800003EB8001616153F82010491C43F82D
:1027E0002010E06A2968C96A884200D93260DCF8A2
:1027F00000000028A6D10CB1FFF70AF8AC6944B17B
:10280000FFF7F0FD08B1C6F80090641EF8D1C5F8D6
:1028100018A0306840B128680127084938070860C7
:10282000BFF34F8FBFF36F8FFFF740FA3846BDE815
:10283000F087000048000020A845002004ED00E0DB
:10284000010202030405060708090A0B0C0D0E0F0E
:102850001010000000000000000001020304060741
:102860000809000000000102030400008C28000891
:10287000000000208C0000008813000818290008C0
:102880008C0000205C490000981300080000000044
:102890000000000000000000000000000000000038
:1028A0000000000001000000100000000000000017
:1028B00000127A000000000000000000000000008C
:1028C0000000000000000000000000000000000008
:1028D000AAAAAAAA00000000000000000000000050
:1028E00000000000000000000000000000000000E8
:1028F00000000000000000000000000000000000D8
:1029000004000000000000000000000000000000C3
:082910000000000000000000BF
:0400000508000131BD
:00000001FF
