:020000040800F2
:10000000304A0020E101000857130008E5110008FC
:10001000551300080F0300086316000800000000D5
:10002000000000000000000000000000490100087E
:1000300011030008000000008D010008591300089A
:10004000FB010008FB010008FB010008FB010008A0
:10005000FB010008FB010008FB010008FB01000890
:10006000FB010008FB010008FB010008FB01000880
:10007000FB010008FB010008FB010008FB01000870
:10008000FB010008FB010008FB010008FB01000860
:10009000FB010008FB010008FB0100082903000820
:1000A000FB010008FB010008FB010008FB01000840
:1000B000CD130008FB010008FB010008FB0100084C
:1000C000FB010008FB010008FB010008FB01000820
:1000D000FB010008FB010008FB010008FB01000810
:1000E00013030008FB010008FB010008FB010008E6
:1000F000FB010008FB010008FB010008FB010008F0
:10010000FB010008FB010008FB010008FB010008DF
:10011000FB010008FB010008FB010008D9130008DF
:10012000FB010008FB010008FB010008FB010008BF
:10013000DFF810D000F0CAF800480047211C000882
:10014000AFF30080304A0020224B19680868B0E8FD
:10015000F00F80F30988BFF36F8F4FF0000080F33A
:1001600011884EF00D0E7047000000000648006830
:10017000006880F3088862B661B6BFF34F8FBFF3A3
:100180006F8F00DF00BF00BF08ED00E0EFF30980D4
:10019000BFF36F8F0F4B1A6820E9F00F106008B59E
:1001A0004FF0BF0080F31188BFF34F8FBFF36F8F05
:1001B00002F0A4FC4FF0000080F31188BDE8084075
:1001C00019680868B0E8F00F80F30988BFF36F8FF3
:1001D000704700BF44000020EFF305807047000027
:1001E0000648804706480047FEE7FEE7FEE7FEE7D1
:1001F000FEE7FEE7FEE7FEE7FEE7FEE7CB130008BB
:1002000031010008202A04DB203A21FA02F0002103
:10021000704721FA02F3D040C2F120029140084316
:1002200019467047D2B201E000F8012B491EFBD2FB
:1002300070470022F6E710B513460A4604461946F1
:10024000FFF7F0FF204610BD421C10F8011B0029EB
:10025000FBD1801A7047034611F8012B00F8012BDF
:10026000002AF9D1184670472DE9F05F05460020B5
:1002700092469B4688460646814640241BE0284617
:10028000414647462246FFF7BDFF53465A46C01A2D
:10029000914110D311461846224600F029F82D1A34
:1002A00067EB01084F4622460120002100F020F8AC
:1002B00017EB00094E41201EA4F10104DFDC484683
:1002C00031462A464346BDE8F09F0000064C074DE4
:1002D00006E0E06840F0010394E807009847103416
:1002E000AC42F6D3FFF728FF842F0008A42F0008A4
:1002F000202A04DB203A00FA02F1002070479140E6
:10030000C2F1200320FA03F3194390407047FEE73F
:10031000704710B54FF4806000F05CF8BDE8104005
:100320004FF4006000F056B810B54FF4807000F044
:1003300051F8BDE810404FF4007000F04BB872B6B1
:10034000FEE7000010B5B0F5807F0DD0B0F5007F5E
:1003500011D0B0F5806F10D0B0F5006F0AD108A0B1
:10036000BDE8104001F07EB90AA001F07BF90E490A
:100370000120087010BD0DA0F2E711A0F0E7000009
:1003800053573620697320707265737365640D0A64
:100390000000000053573320697320707265737337
:1003A00065640D0A000000000C0000205357342043
:1003B000697320707265737365640D0A0000000034
:1003C00053573520697320707265737365640D0A25
:1003D00000000000044910B50A68024202D008601B
:1003E000FFF7B0FF10BD0000140401402DE9F84FE5
:1003F000DFF8C8910024A9F1040B23460F2709F167
:10040000040AABF1040ED1E00125A54006EA05027D
:10041000AA4276D1DFF8A8C14E68A6EB0C08664563
:100420002BD00DDC032E34D005DC36B3012E19D0D1
:10043000022E2FD11BE0112E16D0122E2AD119E038
:10044000B8F5881F19D006DCB8F5803F15D0B8F58F
:10045000801F1FD111E0B8F5001F0ED0B8F5041FA2
:1004600018D10AE0CB6815E0CB681B1D12E0CB6801
:1004700008330FE0CB680C330CE08B682BB1012BF9
:100480004FF0080303D0456104E0042302E0056156
:1004900000E00023FF2A01D8064601E000F104062F
:1004A0004FEA840501D9A5F12005D6F8008007FAA6
:1004B00005FC28EA0C0803FA05F548EA0508C6F821
:1004C00000804D68ED0070D53E4DAE6946F00106E6
:1004D000AE61AD6924F0030605F0010500953A4DC3
:1004E00006EB050CDCF80850A607360F07FA06F8ED
:1004F00025EA0805DFF8D480404503D14FF0000815
:1005000025E052E0DFF8C880404502D14FF00108F5
:100510001DE0DFF8C080404502D14FF0020816E030
:10052000DFF8B480404502D14FF003080FE0DFF858
:10053000AC80404502D14FF0040808E0DFF8A0800D
:10054000404502D14FF0050801E04FF0060808FAD7
:1005500006F848EA0508CCF808804D68D9F800602C
:10056000ED024D4601D5164300E096432E604D68DE
:10057000DAF80060AD02554601D5164300E0964317
:100580002E604D68DBF80060AD035D4601D5164373
:1005900000E096432E604D68DEF80060ED0375467E
:1005A00001D5164300E096432E60641C0A68164687
:1005B000E2407FF429AFBDE8F88F00000804014055
:1005C000000011100010024000000140000801402E
:1005D000000C0140001001400014014000180140CF
:1005E000001C0140C26821EA02030A4043EA0241BA
:1005F000016170470AB1016170470904FBE700001F
:10060000014880687047000014000020024881689B
:10061000027811448160704714000020074810B52B
:10062000016841F010010160032000F0A1F80120F1
:1006300000F006F800F050F8002010BD0020024045
:1006400030B505461F4887B0C16941F02001C1613E
:10065000C06906A900F02000009001A800F030F960
:100660000498B0B100F04CF940001749174AB0FBAC
:10067000F1F11748491E0260416040F2E732002163
:10068000C0E903218160816100F050FB040003D0C8
:1006900015E000F035F9E8E70D4800F091FB0400A3
:1006A0000DD1372000F036F8102D07D20022294650
:1006B000372000F03DF80748056000E0012407B04E
:1006C000204630BD0010024040420F0000140040A0
:1006D00020010020180000200C4808B5816941F075
:1006E00001018161816901F001010091C16941F05D
:1006F0008051C161C06900F0805000900448416899
:1007000021F0E06141F00071416008BD001002403D
:1007100000000140002809DB00F01F020121914088
:100720004009800000F1E020C0F80011704700008F
:10073000F0B40E4B1B680C46C3F30223C3F107054C
:10074000042D00D90425191D072901D2002300E03A
:10075000DB1E012606FA05F1491E214099409E4004
:10076000761E16403143F0BC00F0A6BF0CED00E051
:10077000064900F0070208684FF6FF03184040EAF8
:100780000220034A10430860704700000CED00E0AF
:100790000000FA052DE9F0470F46050061D0434EF1
:1007A000306800F00700B84209D2306820F0070036
:1007B00038433060306800F00700B84251D12868F3
:1007C0003B4C810712D5400703D5606840F4E060D8
:1007D00060602878000703D5606840F4605060606E
:1007E0006068A96820F0F000084360602878C007BE
:1007F00028D06868012810D02168022810D0890705
:1008000000292EDA616821F0030101436160FFF7DE
:10081000F7FE804641F288390DE021688903EFE751
:100820008901EDE7FFF7ECFEA0EB0801494502D98D
:100830000320BDE8F0876068696800F00C00B0EB49
:10084000810FEFD1306800F00700B8420BD9306853
:1008500020F0070038433060306800F00700B842ED
:1008600001D00120E5E72878400705D56068E968F0
:1008700020F4E060084360602878000706D56068CF
:10088000296920F4605040EAC100606000F058F827
:100890006168084AC1F30311515CC8400649086009
:1008A00006480068FFF7CCFE0020C2E700200240A7
:1008B00000100240222F0008200000201800002015
:1008C0000F2202600C4A536803F00303436053682D
:1008D00003F0F0038360536803F4E063C36052687D
:1008E0004FF4E06303EAD20202610448006800F0BA
:1008F000070008607047000000100240002002401E
:100900000448054900684968044AC1F30221515C62
:10091000C84070472000002000100240322F00081D
:100920000448054900684968044AC1F3C221515C82
:10093000C84070472000002000100240322F0008FD
:100940000E4A51680E4801F00C03042B11D0082BFD
:100950000FD10C48C1F38343C903C05C0AD5516869
:10096000084AC1F34041921E515C054A5043B0FB16
:10097000F1F07047044948437047000000100240FE
:1009800000127A00122F000800093D002DE9F84FEF
:10099000040070D02078C04DC00749D06868C0F30B
:1009A0008100012807D06868C0F38100022809D1BE
:1009B0006868C00306D52868800339D560680028B8
:1009C000E7D035E06068B0F5803F0BD010B1B0F5EE
:1009D000A02F11D0286820F480302860286820F4E7
:1009E000802002E0286840F480302860606890B180
:1009F000FFF706FE06460AE0286840F480202860DB
:100A0000F0E700BFFFF7FCFD801B642873D828685F
:100A10008003F7D50CE0FFF7F3FD064605E000BFC5
:100A2000FFF7EEFD801B6428F0D828688003F7D418
:100A300020789A4E80074FF001094FF0000839D511
:100A4000686810F00C0F07D06868C0F381000228B6
:100A500009D16868C00306D42868800714D52069C6
:100A6000012808D110E02069B0B1C6F80090FFF766
:100A7000C7FD074605E00AE1FFF7C2FDC01B0228DB
:100A8000C4D828688007F7D52868616920F0F80085
:100A900040EAC10028600DE0C6F80080FFF7B0FD15
:100AA000074604E0FFF7ACFDC01B022823D82868E6
:100AB0008007F7D4207800072CD57948A169D9B1EF
:100AC000C0F80090FFF79CFD074604E0FFF798FD93
:100AD000C01B02280FD8686A8007F7D571484FF409
:100AE000FA510068B0FBF1F0009000BF0098411E81
:100AF0000091FAD20EE080E0C0F80080FFF780FDA0
:100B0000074604E0FFF77CFDC01B022875D8686A21
:100B10008007F7D42078400760D5E8690027C00037
:100B200008D4E86940F08050E861E869012700F0E6
:100B3000805000905C480168C90513D40168834661
:100B400041F480710160FFF75BFD824606E000BF63
:100B5000FFF756FDA0EB0A0064284ED8DBF8000032
:100B6000C005F5D5E06801280AD008B1052813D0E2
:100B7000286A20F001002862286A20F0040002E0C0
:100B8000286A40F001002862E06841F2883B98B191
:100B9000FFF736FD82460BE0286A40F00400286229
:100BA000EEE700BFFFF72CFDA0EB0A0159455AD82C
:100BB000286A8007F6D50CE0FFF722FD824605E0A3
:100BC000FFF71EFDA0EB0A0159454CD8286A8007A3
:100BD000F6D41FB1E86920F08050E861E06988B37D
:100BE0006968C1F38101022944D00228C6F86080F7
:100BF00004D0FFF705FD044638E034E0FFF700FDC0
:100C0000074604E0FFF7FCFCC01B02282BD828682D
:100C10008001F7D4206AB0F5803F05D16868A168EB
:100C200020F4003008436860D4E90801084369688B
:100C300021F4741108436860C6F86090FFF7E0FC87
:100C4000044606E025E000BFFFF7DAFC001B02289F
:100C500009D828688001F7D51BE000BFFFF7D0FC5A
:100C6000001B022802D90320BDE8F88F2868800104
:100C7000F4D40EE00128F7D06868226A00F48031CD
:100C8000914204D1616A00F47010884201D00120C1
:100C9000EAE70020E8E700000010024000004242BE
:100CA00080044242200000200070004070477047DE
:100CB00070B590F83C20012A2CD0012480F83C40EB
:100CC000022280F83D2003685A689D6822F0700671
:100CD0000A6832435A60104B02689A420ED00F4B9A
:100CE0009A420BD0B2F1804F08D00D4B9A4205D0FA
:100CF0000C4B9A4202D00C4B9A4204D1496825F021
:100D000080031943916080F83D40002180F83C1039
:100D1000084670BD022070BD002C01400034014027
:100D20000004004000080040000C004010B5040022
:100D300003D094F83D0010B107E0012010BD002061
:100D400084F83C00204600F01FF8022084F83D00A3
:100D5000211D206800F046FB012084F8460084F83D
:100D60003E0084F83F0084F8400084F8410084F895
:100D7000420084F8430084F8440084F8450084F875
:100D80003D00002010BD000008B50068B0F1804FA4
:100D900012D10A48C16941F00101C161C069002254
:100DA00000F00100009011461C20FFF7C1FCBDE8D7
:100DB00008401C20FFF7AEBC08BD00000010024038
:100DC00090F83D10012901D001207047022180F8E0
:100DD0003D100168CA6842F00102CA6000680E490D
:100DE00088420ED00D4988420BD0B0F1804F08D018
:100DF0000B49884205D00B49884202D00A498842F3
:100E000004D1816801F00701062903D0016841F08F
:100E10000101016000207047002C014000340140B6
:100E20000004004000080040000C004070B504467B
:100E300090F83C000025012817D0012684F83C607A
:100E4000022084F83D002068826822F0770222F4B4
:100E50007F4282600868502838D00DDC20284FD0AF
:100E600005DC90B3102811D14AE0022070BD302873
:100E700046D040280AD13BE060282FD070280DD002
:100E8000B0F5805F03D0B0F5005F12D0012584F883
:100E90003D60002084F83C00284670BDCB68D1E955
:100EA0000121206800F0ECFA2068816841F07701A8
:100EB00009E0CB68D1E90121206800F0E1FA20685F
:100EC000816841F480418160E1E719E0CA684968BE
:100ED000206800F0E7FA5021206806E0CA684968F7
:100EE000206800F0F0FA6021206800F0D3FACEE725
:100EF000CA684968206800F0D5FA40212068F4E704
:100F0000226801461046F0E770472DE9F04104469B
:100F10000068C66805694FF00007A90713D5B10737
:100F200011D5F91E016101202077206880698007B2
:100F3000204602D0FFF7E8FF04E000F07EF82046EC
:100F400000F07CF82777680716D5700714D521685C
:100F50006FF004000861022020772068806910F497
:100F6000407F204602D0FFF7CFFF04E000F065F895
:100F7000204600F063F82777280715D5300713D5EA
:100F800021686FF008000861042020772068C0699C
:100F90008007204602D0FFF7B7FF04E000F04DF8CD
:100FA000204600F04BF82777E80616D5F00614D552
:100FB00021686FF010000861082020772068C06960
:100FC00010F4407F204602D0FFF79EFF04E000F0BF
:100FD00034F8204600F032F82777E80708D0F00709
:100FE00006D021686FF001000861204600F028F863
:100FF000280608D5300606D521686FF08000086104
:101000002046FFF753FE680608D5700606D521680E
:101010006FF040000861204600F028F8A8060AD5C5
:10102000B00608D521686FF0200008612046BDE8B1
:10103000F041FFF73CBEBDE8F0817047704700000B
:1010400010B5044600680749884201D1FFF7DEFA6F
:101050002068B0F1804F03D103480168491C01604A
:1010600010BD00000014004010000020704770B553
:10107000040004D094F84100002510B106E00120DE
:1010800070BD84F84050204600F024F8242084F8F5
:1010900041002068C16821F40051C160204600F081
:1010A0004BFA2068016921F490410161206841698F
:1010B00021F02A0141612068C16841F40051C160FA
:1010C0006564202084F8410084F8420065630020B4
:1010D00070BD000030B585B00024009401940294E6
:1010E000039400681449884224D11448816941F46A
:1010F00080418161816901F480410491816941F0FD
:101100000401816180690E4D00F0040004904FF4E9
:101110000070009002200190032003906946284649
:10112000FFF764F92815CDE90004694628460294C2
:10113000FFF75CF905B030BD0038014000100240F7
:10114000000801402DE9F843044690F84100984614
:1011500016460D46202802D00220BDE8F88385B14E
:101160007EB100206064212084F84100FFF748FA36
:10117000A6848146E684A0682027B0F5805F02D06F
:1011800003E00120E9E7206910B12E4600250EE0BA
:1011900000260CE08021204600F02AFAA8B9C6B14A
:1011A00016F8010B21684860E08C401EE084E08C5A
:1011B0004B464FF00002CDF800800028EAD14FF0F6
:1011C0004001204600F014FA40B184F84170032039
:1011D000C3E735F8020BC0F30800E3E784F8417079
:1011E0000020BAE7FEE700002DE9F04186B00024B8
:1011F0002C480094019402940394816941F01001F9
:101200008161816901F010010491816941F08001DF
:101210008161816901F080010491816941F00401DB
:1012200081618069DFF8808000F0040040F20316DD
:101230000490012231464046FFF7DCF94FF440703C
:1012400000901A480125CDE90105194F6946384635
:10125000FFF7CCF84FF44060009016480190022050
:10126000029069463846FFF7C1F80320CDE90240F5
:10127000CDE9006569464046FFF7B8F80022032132
:101280001720FFF755FA1720FFF744FA0022032131
:101290002820FFF74DFA2820FFF73CFA06B0BDE8FA
:1012A000F081000000100240000801400000211001
:1012B000001C01400000111010B586B00024164833
:1012C000009401940294039404944FF08041059497
:1012D00001604721C0E901140921C0E903148461B8
:1012E000FFF724FD08B1FFF72AF84FF48050009073
:1012F00069460948FFF79AFD08B1FFF720F8049402
:1013000004A905480594FFF7D3FC002801D0FFF796
:1013100016F806B010BD0000900000200C4810B573
:101320000A4901604FF4E1314160002181600C22E3
:10133000C160C0E904128161C161FFF798FE002815
:1013400003D0BDE81040FEF7FABF10BD00380140E1
:10135000D8000020FEE7FEE710B501F0A1FC01284F
:1013600003D0BDE8104001F01BBC10BD30B58FB0FC
:1013700028216846FEF75DFF14210AA8FEF759FFF1
:1013800001210804CDE900100024029402250491F3
:10139000CDE907504FF4E01009906846FFF7F6FAE0
:1013A00008B172B6FEE70F20CDE90A054FF4806060
:1013B000CDE90C4002210AA80E94FFF7EBF90028B2
:1013C00001D072B6FEE70FB030BD70470148FFF79D
:1013D0009CBD0000900000200148FFF796BD000072
:1013E00020010020F0B50268204C214D214E224FF3
:1013F000224B4FF0804CA04209D0984207D0604564
:1014000005D0A84203D0B04201D0B84204D122F0A6
:10141000700E4A6842EA0E02A04209D0984207D0F4
:10142000604505D0A84203D0B04201D0B84203D1F4
:1014300022F44075CA682A434D6922F080022A438B
:1014400002608A68C2620A688262A04201D0984241
:1014500001D109690163012141610169C90703D013
:10146000016921F001010161F0BD0000002C014083
:101470000004004000080040000C0040003401401F
:1014800010B5846842EA032224F47F440A432243CD
:10149000826010BD826822F070020A4342F00701A8
:1014A0008160704710B5036A046A24F00104046285
:1014B000846924F0F00444EA021423F00A020A4387
:1014C0008461026210BD10B5036A046A24F010043E
:1014D0000462846923F0A00324F4704444EA0232D5
:1014E00043EA01118261016210BD01680C3151E8CB
:1014F000002F22F4907241E80023002BF5D10168FF
:10150000143151E8002F22F0010241E80023002BA2
:10151000F5D1016B012909D101680C3151E8002F87
:1015200022F0100241E80023002BF5D1202180F8A1
:10153000421000210163704770B5044600680169DC
:10154000E26821F44051114301612169A068084318
:10155000616908432168CA6841F20C639A430243F7
:10156000CA6020684169A26921F440711143416158
:101570001E492068884202D1FFF7D2F901E0FFF747
:10158000BFF900EBC00101EB00126068642180002C
:10159000B2FBF0F3B3FBF1F36FF018067343B2FB49
:1015A000F0F5B2FBF0F605EB8305322303EB0515EE
:1015B000B5FBF1F5B6FBF1F605F0F00505EB061508
:1015C000B2FBF0F6B2FBF0F0B0FBF1F06FF01802F6
:1015D000504306EB800003EB0010B0FBF1F02168F4
:1015E00000F00F002844886070BD00000038014002
:1015F0002DE9F843984617460D460446089E24E018
:10160000701C22D0FEF7FCFFA0EB0800B0421AD8F5
:10161000CEB12068C168490717D5802D15D0402D5F
:1016200013D00168C94309070FD401680025406839
:1016300000902046FFF759FF0820606484F840506E
:101640000120BDE8F8830320FBE72068006835EA45
:10165000000004D00020B842D2D00020F1E70120E1
:10166000F9E7FEE70FB4054B10B503A9044A029849
:1016700000F042F810BC5DF814FB0000D51B000818
:101680008C0000200FB47CB50C0009AD01D0611EA8
:1016900000E00021CDE90001064B6A462946089882
:1016A00000F02AF8002C02D0009A002111707CBCB6
:1016B0005DF814FB4F1B00080907090E002804DB26
:1016C00000F1E02080F80014704700F00F0000F1F6
:1016D000E02080F8141D704702E008C8121F08C1FE
:1016E000002AFAD170477047002001E001C1121FA3
:1016F000002AFBD1704700002DE9FF4F8DB00F4647
:101700000546002606E025280BD0DDE90F1290479C
:101710006D1C761C28780028F5D111B03046BDE844
:10172000F08F0024A246A1460122E94900E00443CB
:1017300015F8013F203B02FA03F00842F7D1287860
:101740002A2810D06FF02F022878A0F13001092943
:1017500014D80AEB8A0102EB410144F0020400EBC9
:10176000010A6D1CF0E701CF5FEA000A03D544F4DB
:101770000054CAF1000A44F002046D1C28782E2897
:1017800017D115F8010F44F004042A280ED06FF089
:101790002F022878A0F1300109290AD809EB890124
:1017A00002EB410100EB01096D1CF2E757F8049BC5
:1017B0006D1C28786C280FD006DC4C2817D06828C0
:1017C0000DD06A2814D104E0742810D07A280FD1E3
:1017D0000DE044F400140AE044F4801401E044F401
:1017E00040146978814202D104F580146D1C6D1C8F
:1017F00028786E281ED00CDC632830D004DC00284A
:101800008BD0582811D19FE0642867D069280CD16B
:1018100064E073282DD004DC6F2872D0702804D1C6
:1018200094E075286ED078286DD0DDE90F129047CE
:10183000761C4BE1C4F30250022806D0032809D0DD
:10184000042801CF09D0066040E101CFF117C0E9BB
:1018500000613BE101CF068038E1067036E117F800
:10186000040B8DF8000000208DF80100EB460120EC
:1018700003E057F804BB4FF0FF3061074FF0000161
:1018800002D40DE008F10101884649450FDA804590
:10189000F8DB1BF808100029F4D108E008F1010179
:1018A00088468142FADB1BF808100029F6D1DDE9F1
:1018B0000F23AAEB08008146214600F031F930449D
:1018C00000EB080604E0DDE90F121BF8010B90475E
:1018D000B8F10108F7D221464846F2E00A21C4F3E4
:1018E00002524FF0000B0891022A04D001CFC11719
:1018F000032A09D00AE0FF1D27F00707F7E80201D5
:1019000008E02CE01EE01FE000B2C117042A01D15C
:1019100040B2C117021E71F1000206DA0023D0EBBB
:10192000030063EB01012D2202E0220504D52B22E6
:101930008DF82420012203E0E20701D02022F7E7FE
:10194000904653E00A210BE0102109E010214FF0EE
:10195000000B44F004044FF00809089103E008214B
:101960004FF0000B0891C4F30252022A04D001CFB9
:101970000021032A06D006E0FF1D27F00707F7E83D
:10198000020103E080B2042A00D1C0B24FF0000887
:1019900022072BD52A78702A07D0DDF820C08CF0DA
:1019A000100C5CEA0B0C05D00EE040228DF82420D0
:1019B000012208E050EA010306D030238DF82430DC
:1019C0008DF8252002229046089B83F0080353EAF5
:1019D0000B030BD150EA010201D1620706D5302278
:1019E0008DF824204FF00108A9F101092A78582A1E
:1019F00004D038A20B9208AA0A920BE03AA2F9E7A7
:101A00005B46089AFEF730FC0B9B9B5C0A9A521EC1
:101A10000A92137050EA0102F2D10A98ADEB00006D
:101A200000F1200B600702D524F4803401E04FF070
:101A30000109D94502DDA9EB0B0000E0002000EB15
:101A40000B0141440890AAEB010AE00306D4DDE94A
:101A50000F232146504600F063F806444FF000097A
:101A600008E009A911F80900DDE90F12904709F112
:101A70000109761CC145F4DBE0030CD5DDE90F2339
:101A80002146504600F04CF8064404E0DDE90F1210
:101A900030209047761C0899481E08900029F5DCF4
:101AA00008E00A980A990078491C0A91DDE90F12AA
:101AB0009047761CBBF10001ABF1010BF1DC214634
:101AC0005046DDE90F2300F019F806446D1C21E6AD
:101AD0000928010030313233343536373839616204
:101AE00063646566000000003031323334353637C8
:101AF0003839414243444546000000002DE9F04199
:101B0000044600251E461746880404D405E03946DD
:101B10002020B0476D1C641EF9D52846BDE8F08131
:101B20002DE9F041044600251E469046C80301D524
:101B3000302700E02027880404D505E041463846D8
:101B4000B0476D1C641EF9D52846BDE8F0814A688F
:101B5000002A06D00A68531C0B6010704868401EAB
:101B6000486070472DE9F041184E044630688442C1
:101B700002D10020BDE8F08100F038FDD4F82880C3
:101B80006569F76B366C00F03FFD1149884501D15E
:101B90000120EFE7BD4201D0B54201D10220E9E7C3
:101BA0000B482830854208D1A06A0028F6D194F865
:101BB000541003200129F1D0DCE705481430854298
:101BC00001D0002DE4D10420D4E70000440000201F
:101BD000F445002013B54FF6FF7301226946024811
:101BE000FFF7B0FA00981CBDD80000201CB50749CB
:101BF0000120CDE900010023802205A1074800F063
:101C0000E5FFBDE81C4000F035BF000000000020EB
:101C100073746172745F7461736B00001D2100083E
:101C2000FEF7FCFCFFF7A2FBFFF7DEFAFFF776FBFF
:101C3000FFF742FB04A0FFF715FD0748FFF7C0F8C8
:101C4000FFF7D4FFFEE7000048656C6C6F2052542C
:101C50004F530D0A00000000900000202DE9F047CE
:101C6000204C0F460546E668D4F83C90D4F84080F6
:101C70002068001D00F002FC38B9206890F82C1094
:101C800001208840216981432161681C15D1A7B1D9
:101C9000154922684868906023688268DA60226883
:101CA0008368121D5A602268121D8260206841619B
:101CB0000868401C0860BDE8F08720683544B542DC
:101CC0004560216805D24046BDE8F047091D00F097
:101CD00069BC4846091D00F065FCA06A8542EAD24D
:101CE000A562E8E7440000201C4600202DE9F041F1
:101CF000054600F07BFC364CA068401CA0602068C4
:101D0000344F10B1606940B32DE02560A068012810
:101D100029D1002606EB860007EB800000F034FC9A
:101D2000761C052EF6D32B48643000F02DFC294894
:101D3000783000F029FC27488C3000F025FC25483D
:101D4000A03000F021FC2348B43000F01DFC2148F5
:101D50006430E0631430206405E02068E96AC06AFA
:101D6000884200D82560606A401C60626864E96A45
:101D70000120226988401043206101EB810007EBBC
:101D800080004068A8608168E9608268291D516010
:101D90008160E86A00EB800007EB8001696157F819
:101DA0002010491C47F8201000F02EFC6069002824
:101DB0000CD02068E96AC06A884207D206494FF011
:101DC00080500860BFF34F8FBFF36F8FBDE8F08185
:101DD000440000206845002004ED00E070B50C4C84
:101DE0000C4E11E000F002FCF068C568281D00F000
:101DF00045FBA068401EA0606068401E606000F067
:101E000003FC284600F008F860680028EAD170BD9D
:101E1000440000200846002010B50446006B00F086
:101E2000FDFB2046BDE8104000F0F8BB0E484FF423
:101E30008841420706D0C01D0B4920F00700411A17
:101E4000C1F58841094A00230144C2E90003083969
:101E5000143A21F0070111604B600B600B1AC0E9C6
:101E60000013936053607047680100203800002021
:101E7000074C4FF08056074DFFF7B0FF2068012850
:101E8000FAD92E60BFF34F8FBFF36F8FF4E70000D6
:101E90006845002004ED00E02DE9F0470D46DDE93E
:101EA00009841746824691009946089EA522206B18
:101EB000FEF7B8F96FF00301206B01EB87010844CE
:101EC00020F0070765B100202218295C82F8341041
:101ED000295C11B1401C1028F6D3002084F843007F
:101EE000052E00D30426201DE66200F058FB04F105
:101EF000180000F054FB2461C6F105006462A06183
:101F00004A465146384600F0F7F82060B8F1000F15
:101F100001D0C8F80040BDE8F087000030B5114995
:101F200000E011460A688242FBD34B685C18844289
:101F300003D1406818444860084643681C1894421E
:101F400009D1084C143C2468A24209D052681A44B2
:101F500042600A6812680260814200D0086030BDA9
:101F60000460F9E7380000202DE9F04107460868D1
:101F70009046002601F1080478B1CD680BE000BF5F
:101F800006EBC60107EB810143460122E86800F039
:101F9000DFFB6D68761CA542F2D13046BDE8F081CA
:101FA0000548C16B096821B1C16BC96809688162C4
:101FB00070474FF0FF31FAE744000020F0B50246C9
:101FC0000020136802F10805002B12D0D4680EE03F
:101FD000E2680023D618CF5C96F83460B74203D18C
:101FE00046B15B1C102BF5D3002802D16468AC42CB
:101FF000EED1F0BD1046F7E7002801DA0020704767
:102000008842FCDB481E7047002101E0401C491C4F
:102010000278A52AFAD088087047BF2080F311887B
:10202000BFF34F8FBFF36F8FFEE710B50446FEF787
:1020300012F92046FEF708F9202101E02154401C46
:102040000F28FBD300212154204410BD2DE9F0417D
:1020500004004FF000060FD014F1090F0BD808341C
:10206000600709D004F00700C0F10800C1438C42AA
:1020700001D8044400E0002400F038FD1D4D28681C
:1020800008B9FFF7D3FE002C2FDD6B689C422CD8DB
:10209000184814300146096801E0084611464A68AC
:1020A000A24202D20A68002AF7D12A6891421CD0C3
:1020B00006680A6802604A680836171B102F05D99F
:1020C0000A1957604C600468146002604A68981AE4
:1020D0006860AB68984200D2A86042F00040486057
:1020E00000200860E868401CE86000F07BFE304695
:1020F000BDE8F0812400002010B5031F4FF080746C
:102100001C601B1F21F001011960191F024B0B609D
:10211000143940380A6010BD1B2000081CB500F0BF
:1021200065FA0E480224CDE90040002380220CA16C
:102130000D4800F04BFD09480023001DCDE900408B
:10214000E2010AA10B4800F041FD0448001F0068AD
:1021500000F0AAFABDE81C4000F056BA04000020C6
:102160007461736B31000000792100087461736B36
:1021700032000000AD210008064C4FF4FA7506A0AD
:10218000FFF770FA01212046FEF72CFA284600F0EE
:1021900073FAF4E7000801407461736B31207275C3
:1021A0006E696E672E2E2E0D0A000000ADF50A7DB9
:1021B000414C606800F0DAF90546A06800F0D6F9F5
:1021C000024629463DA0FFF74DFA0321606800F062
:1021D000EBFB0121A06800F0E7FBA06800F0C6F966
:1021E0000546606800F0C2F901462A463E48FFF7FE
:1021F00039FA00F055F9064601463CA0FFF732FADD
:1022000006EBC6008000FFF721FF0746002231469B
:1022100000F054F900250AE005EBC50007EB80004B
:10222000027B836941683BA0FFF71CFA6D1CB54235
:10223000F2D30523012280A9606800F089FA9DF895
:102240000C2242A0869B8199FFF70CFA00F0ECFC6F
:1022500001464EA0FFF706FA53A000F0EBFC014642
:1022600053A0FFF7FFF9606800F020F9014657A07E
:10227000FFF7F8F96068FFF775FC01465CA0FFF70F
:10228000F1F94FF6FF742146684600F01FFB6946DE
:102290005CA0FFF7E7F94FF4FA755FA0FFF7E2F9EA
:1022A000214640A800F0A6FA40A960A0FFF7DAF99D
:1022B000284600F0E1F9F0E7000000205461736B5C
:1022C00031205072696F726974793A20256C752CCF
:1022D000205461736B32205072696F726974793A5D
:1022E00020256C750D0A00003C2F00084E756D62AC
:1022F0006572206F66207461736B7320696E207441
:1023000068652073797374656D3A20256C750D0AC4
:10231000000000005461736B204E616D653A20250A
:10232000732C205461736B2053746174653A2025BB
:10233000642C2052756E2054696D6520436F756E54
:102340007465723A20256C750D0A00005461736B38
:1023500031204E616D653A2025732C205461736BDA
:10236000312053746174653A2025642C20546173C4
:102370006B312052756E2054696D6520436F756E08
:102380007465723A20256C750D0A000043757272EF
:10239000656E74205461736B2048616E646C653A9D
:1023A0002025700D0A0000007461736B310000007D
:1023B0005461736B312048616E646C6520627920D2
:1023C0004E616D653A2025700D0A00005461736BF3
:1023D0003120537461636B204869676820576174CA
:1023E0006572204D61726B3A20256C750D0A0000F4
:1023F0005461736B312053746174653A2025640D08
:102400000A0000005461736B204C6973743A0D0A22
:1024100025730D0A000000007461736B3220727521
:102420006E696E672E2E2E0D0A0000005461736BCC
:10243000312052756E2054696D653A200D0A25735E
:102440000D0A000070B50B4E002400B93068054637
:1024500000F0CCF83068854205D10748006805498E
:1024600034310968441AE86C044400F0CDF8204681
:1024700070BD00004400002010000020D0E90132AF
:1024800001699A60D0E901235A604A68824201D109
:1024900082684A60002202610868401E0860704736
:1024A00001488068704700004400002008B90248D5
:1024B0000068006BFFF7A8BD440000202DE9F0473D
:1024C00017460A4605460024052600F00FFBDFF8F4
:1024D0009080D8F8080082423CD3DFF88890761EBE
:1024E00006EB860104EBC40009EB810105EB8000DB
:1024F0000122FFF739FD0444002EF0D104EBC400A3
:1025000005EB800002224646D8F83C10FFF72CFD70
:10251000044404EBC40005EB80000222316CFFF799
:1025200023FD04440F4904EBC40005EB80000422A2
:10253000A031FFF719FD04440A4904EBC40005EB80
:1025400080000322B431FFF70FFD044417B10648A1
:102550000068386000F046FC2046BDE8F0870000C7
:1025600044000020684500201000002010B50446FB
:1025700000F03CF80CB903480468E46A00F044F841
:10258000204610BD4400002000F108014FF0FF324A
:10259000C0E90112C16001610021016070470021A2
:1025A0000161704730B50B685A1C02D000F1080277
:1025B00002E0026904E02246546825689D42FAD987
:1025C00053684B6099608A60516008610168491CDA
:1025D000016030BD42684A6093688B6093685960BF
:1025E000916008610168491C01607047BF2080F359
:1025F0001188BFF34F8FBFF36F8F02480168491CEA
:10260000016070474000002003490868401E0860D0
:1026100001D180F3118870474000002070B5002878
:102620001BD0A0F108046068002816DA2168002990
:1026300013D120F00040606000F058FA074D606848
:102640006968084468602046FFF768FC2869401CF8
:102650002861BDE8704000F0C5BB70BD24000020BB
:102660004FF0E020002101618161024941610721B1
:10267000016170473F19010010B5020009D000F058
:1026800035FA00211046FFF7E9FA00F0ABFB00280D
:1026900007D104494FF080500860BFF34F8FBFF35C
:1026A0006F8F10BD04ED00E070B50546FFF79EFF8B
:1026B000244C05B92568281DFFF7E0FE58B9E86AE3
:1026C000214A00EB800152F8211021B901218140FB
:1026D000206988432061A86A18B105F11800FFF746
:1026E000CDFE606A401C60622068854201D10120F5
:1026F00000E00020616959B150B11348291DA03094
:10270000FFF768FF6068401C6060FFF77DFF09E02D
:10271000A068401EA060FFF743FCFFF775FF284646
:10272000FFF77AFB606900280AD02068854207D14C
:1027300006494FF080500860BFF34F8FBFF36F8F93
:1027400070BD0000440000206845002004ED00E05A
:102750002DE9F047DFF894801E4691460C46C0B143
:102760004FEA000505F13401C4E90051E96A21612D
:10277000296BE161696C00276761A160FFF762FE68
:10278000A061052E22D0D8F80000854204D127731D
:1027900020E0D8F80050E5E72673032E0BD100F0B7
:1027A000A5F9A96A022019B995F85410012900D198
:1027B000207300F017FBFFF719FF0D49A86A884244
:1027C00001D101202073FFF71FFF03E02846FFF728
:1027D000C9F92073B9F1000F05D0286BFFF714FC7D
:1027E0002062BDE8F0872762FBE70000440000207C
:1027F000F44500202DE9FE4F002402940194834605
:1028000004702B4888468568806800EBC000800013
:10281000FFF71CFC060049D001AA2946FFF74EFE2F
:10282000074601996420B1FBF0F00190D8B3002570
:1028300037E000BF05EBC50006EB80090198D9F829
:102840001810B1FBF0FA04F1100040452BD858469F
:10285000D9F80410FFF7E9FB8346A8F101000F3413
:10286000844220D2BAF1000F0AD0CDF800A0A8EB24
:10287000040110A25846D9F81830FEF703FF07E00C
:10288000A8EB04010EA25846D9F81830FEF7FAFE5C
:10289000A8EB0401FFF7B0FB04448344029810B98D
:1028A0006D1CBD42C6D33046FFF7B8FEBDE8FE8FB3
:1028B000440000200925750909257525250D0A0004
:1028C00009257509093C3125250D0A002DE9FF5F11
:1028D00000240394834604702E48894685688068E6
:1028E00000EBC0008000FFF7B1FB06004FD00022D4
:1028F0002946FFF7E3FD0746002540E005EBC5004C
:1029000006EB800898F80C00052835D2DFE800F0C7
:1029100003052E303200582000E0522004F110014F
:10292000824649452DD85846D8F80410FFF77DFB5C
:102930008346A9F101000F34844222D2D8F8100056
:10294000D8F80820D8F820108DE80700A9EB04017A
:102950008846534610A25846FEF794FE4146FFF7BC
:102960004BFB04448344039858B907E04220D5E761
:102970005320D3E74420D1E70020CFE76D1CBD42B0
:10298000BCD304B03046BDE8F05FFFF747BEBDE8FA
:10299000FF9F0000440000200925630925750925D3
:1029A000750925750D0A00002DE9F04100270E4636
:1029B0000446052900D30426FFF718FE2A4D04B962
:1029C0002C68E06AB0424BD02968864206D98C4216
:1029D00007D02968C96AB14202D302E08C4200D113
:1029E00001278046E662A069002802DBC6F10500E7
:1029F000A0611E4E08EB8800616906EB80008142F1
:102A000025D1201DFFF73AFD012120B92A6901FADD
:102A100008F082432A61E06A2A69814011432961F2
:102A200000EB800006EB80004068A0608168E160F8
:102A30008268211D51608160E06A00EB800006EB36
:102A40008001616156F82010491C46F820103FB102
:102A500007494FF080500860BFF34F8FBFF36F8F6F
:102A6000BDE8F041FFF7D0BD4400002068450020DC
:102A700004ED00E030B587B0002402940394049480
:102A8000204602A9059414A2125C0A5412B1401CFB
:102A90000F28F8D30C5413491148CDE90041002305
:102AA000802202A900F092F80E4D443D012810D179
:102AB000BF2080F31188BFF34F8FBFF36F8F4FF0AC
:102AC000FF30A86201206861EC600748046000F0F4
:102AD0004FF8E86A07B030BD49444C45000000009B
:102AE000711E000888000020100000200248016BC1
:102AF000491C0163704700004400002030B51949AB
:102B00000A6B01F11C0012B10121016030BD0022ED
:102B10000260154802681348383002600268031FDB
:102B20001C68A24205D90A6805682C1BD56C2C4488
:102B3000D4640068186008690C4AB0FA80F0C0F1EB
:102B40001F0000EB800002EB800000F108034268E8
:102B5000526842609A4201D1C2684260D0680860FF
:102B6000086830BD440000201000002068450020A7
:102B7000094810B5016841F47F010160016841F026
:102B80007F410160FFF76CFD044900200860FDF7FC
:102B9000EDFA002010BD000020ED00E04000002014
:102BA00010B5BF2080F31188BFF34F8FBFF36F8F35
:102BB00000F084F818B104494FF0805008600020FC
:102BC00080F3118810BD000004ED00E02DE9FF5FE7
:102BD0008346DDE90E878A46164699469000FFF740
:102BE00035FA05001DD05820FFF730FA040015D043
:102BF0005821FDF71EFB25630021CDE90241CDE9F7
:102C000000874B46324651465846FFF745F9204665
:102C1000FFF76CF8012004B0BDE8F09F2846FFF7ED
:102C2000FDFC4FF0FF30F6E70148006870470000F8
:102C3000440000202DE9F04107460525FFF756FF27
:102C4000154E6D1E05EB850006EB80003946FFF73B
:102C5000B5F904001BD1002DF3D1104D3946E86BB6
:102C6000FFF7ACF9040012D13946286CFFF7A6F93A
:102C700004000CD108483946B430FFF79FF904002E
:102C800005D105483946A030FFF798F9044600F011
:102C9000A9F82046BDE8F0816845002044000020E6
:102CA0000548416919B1006B18B100207047012037
:102CB0007047022070470000440000202DE9F041D9
:102CC000464C0026206B28B1A069401CA06130460C
:102CD000BDE8F081E5686D1CE56008D1E06B216C12
:102CE000E1632064206A401C2062FFF759F9A16A61
:102CF0003B488D420FD34FF0000EE16B096839B1AC
:102D0000E16BC968C9684A68954214D2A26202E0C0
:102D10004FF0FF31A1622168C96A01EB810150F8CF
:102D20002100012800D901262C481C300068002809
:102D3000CDD00126CBE7D1E902724B69BA60D1E967
:102D400002277A605F680A1D974201D1CF685F60F1
:102D5000C1F814E01F687F1E1F60D1F828C0BCF1C5
:102D6000000F15D0D1E907379F60D1E907377B60A5
:102D7000DCF8047001F118039F4202D10B6ACCF811
:102D80000430C1F828E0DCF800305B1ECCF80030DD
:102D9000CB6A0127D4F810C09F4047EA0C0727618F
:102DA00003EB830300EB83035B688B609F68CF605A
:102DB0009F687A609A60CA6A02EB820200EB820323
:102DC0004B6150F822305B1C40F82230C96A2268FF
:102DD000D26A914291D901268FE700004400002079
:102DE000684500202DE9F04700242746FFF7FEFB49
:102DF000444D286B401E2863286B00287CD1A868AE
:102E0000DFF804C1A2464FF0010905F11C06E8BB3A
:102E100072E000BFDCF80C00C468D4E90721A06AA6
:102E20009160D4E907125160426804F118018A42A6
:102E300001D1216A4160C4F828A001685246491EA8
:102E40000160D4E9023160699960D4E902135960E4
:102E50004368211D8B4201D1E368436062610268CF
:102E6000521E0260E36AD5F810804A4609FA03F060
:102E700040EA0800286103EB8300234B8C3B03EB03
:102E800080004068A060D0F8088000E017E0C4F837
:102E90000C80D0F80880C8F804108160E06A00EB6C
:102EA000800003EB8001616153F82010491C43F856
:102EB0002010E06A2968C96A884200D93260DCF8CB
:102EC00000000028A6D10CB1FFF76AF8AC6944B144
:102ED000FFF7F4FE08B1C6F80090641EF8D1C5F8FB
:102EE00018A0306840B128680127084938070860F1
:102EF000BFF34F8FBFF36F8FFFF786FB3846BDE8F8
:102F0000F087000044000020F445002004ED00E0BC
:102F1000010202030405060708090A0B0C0D0E0F37
:102F2000101000000000000000000102030406076A
:102F30000809000000000102030400005461736BE3
:102F400031205072696F726974792061667465729C
:102F5000206368616E67653A20256C752C2054618A
:102F6000736B32205072696F726974792061667474
:102F70006572206368616E67653A20256C750D0A7D
:102F800000000000A42F00080000002090000000B6
:102F9000D81600083430000890000020A049000036
:102FA000E81600080000000000000000000000001B
:102FB0000000000000000000010000001000000000
:102FC0000000000000127A00000000000000000075
:102FD00000000000000000000000000000000000F1
:102FE00000000000AAAAAAAA000000000000000039
:102FF00000000000000000000000000000000000D1
:1030000000000000000000000000000000000000C0
:1030100000000000040000000000000000000000AC
:1030200000000000000000000000000000000000A0
:04303000000000009C
:0400000508000131BD
:00000001FF
