:020000040800F2
:10000000E0490020E101000827110008191000084C
:1000100025110008EF020008BF13000800000000CF
:10002000000000000000000000000000490100087E
:10003000F1020008000000008D01000829110008ED
:10004000FB010008FB010008FB010008FB010008A0
:10005000FB010008FB010008FB010008FB01000890
:10006000FB010008FB010008FB010008FB01000880
:10007000FB010008FB010008FB010008FB01000870
:10008000FB010008FB010008FB010008FB01000860
:10009000FB010008FB010008FB0100080903000840
:1000A000FB010008FB010008FB010008FB01000840
:1000B000FB010008FB010008FB010008FB01000830
:1000C000FB010008FB010008FB010008FB01000820
:1000D000FB010008FB010008FB010008FB01000810
:1000E000F3020008FB010008FB010008FB01000807
:1000F000FB010008FB010008FB010008FB010008F0
:10010000FB010008FB010008FB010008FB010008DF
:10011000FB010008FB010008FB0100089D1100081D
:10012000FB010008FB010008FB010008FB010008BF
:10013000DFF810D000F0BAF8004800475D1700085B
:10014000AFF30080E0490020224B19680868B0E84E
:10015000F00F80F30988BFF36F8F4FF0000080F33A
:1001600011884EF00D0E7047000000000648006830
:10017000006880F3088862B661B6BFF34F8FBFF3A3
:100180006F8F00DF00BF00BF08ED00E0EFF30980D4
:10019000BFF36F8F0F4B1A6820E9F00F106008B59E
:1001A0004FF0BF0080F31188BFF34F8FBFF36F8F05
:1001B00001F050FF4FF0000080F31188BDE80840C7
:1001C00019680868B0E8F00F80F30988BFF36F8FF3
:1001D000704700BF44000020EFF305807047000027
:1001E0000648804706480047FEE7FEE7FEE7FEE7D1
:1001F000FEE7FEE7FEE7FEE7FEE7FEE79B110008ED
:1002000031010008202A04DB203A21FA02F0002103
:10021000704721FA02F3D040C2F120029140084316
:1002200019467047D2B201E000F8012B491EFBD2FB
:1002300070470022F6E710B513460A4604461946F1
:10024000FFF7F0FF204610BD2DE9F05F05460020C6
:1002500092469B4688460646814640241BE0284637
:10026000414647462246FFF7CDFF53465A46C01A3D
:10027000914110D311461846224600F029F82D1A54
:1002800067EB01084F4622460120002100F020F8CC
:1002900017EB00094E41201EA4F10104DFDC4846A3
:1002A00031462A464346BDE8F09F0000064C074D04
:1002B00006E0E06840F0010394E807009847103436
:1002C000AC42F6D3FFF738FF242500084425000888
:1002D000202A04DB203A00FA02F100207047914006
:1002E000C2F1200320FA03F3194390407047FEE760
:1002F000704710B54FF4806000F062F8BDE8104020
:100300004FF4006000F05CB810B54FF4807000F05E
:1003100057F8BDE810404FF4007000F051B872B6C5
:10032000FEE7000010B5114CB0F5807F0ED0B0F59F
:10033000007F10D0B0F5806F12D0B0F5006F04D1FF
:100340000BA001F03DF80420207010BD0DA001F0BD
:1003500037F80120F8E710A001F032F80220F3E7A7
:1003600012A001F02DF80320EEE70000100000209D
:1003700053573620697320707265737365640D0A74
:100380000000000053573320697320707265737347
:1003900065640D0A00000000535734206973207013
:1003A0007265737365640D0A0000000053573520B1
:1003B000697320707265737365640D0A0000000034
:1003C000044910B50A68024202D00860FFF7AAFF8C
:1003D00010BD0000140401402DE9F84FDFF8C8916A
:1003E0000024A9F1040B23460F2709F1040AABF1FD
:1003F000040ED1E00125A54006EA0502AA4276D105
:10040000DFF8A8C14E68A6EB0C0866452BD00DDCC2
:10041000032E34D005DC36B3012E19D0022E2FD195
:100420001BE0112E16D0122E2AD119E0B8F5881F24
:1004300019D006DCB8F5803F15D0B8F5801F1FD164
:1004400011E0B8F5001F0ED0B8F5041F18D10AE06E
:10045000CB6815E0CB681B1D12E0CB6808330FE0BA
:10046000CB680C330CE08B682BB1012B4FF00803E9
:1004700003D0456104E0042302E0056100E00023AD
:10048000FF2A01D8064601E000F104064FEA840580
:1004900001D9A5F12005D6F8008007FA05FC28EA65
:1004A0000C0803FA05F548EA0508C6F800804D680F
:1004B000ED0070D53E4DAE6946F00106AE61AD6906
:1004C00024F0030605F0010500953A4D06EB050CF6
:1004D000DCF80850A607360F07FA06F825EA0805E3
:1004E000DFF8D480404503D14FF0000825E052E00A
:1004F000DFF8C880404502D14FF001081DE0DFF869
:10050000C080404502D14FF0020816E0DFF8B48009
:10051000404502D14FF003080FE0DFF8AC804045C2
:1005200002D14FF0040808E0DFF8A080404502D176
:100530004FF0050801E04FF0060808FA06F848EA0F
:100540000508CCF808804D68D9F80060ED024D46EA
:1005500001D5164300E096432E604D68DAF800603E
:10056000AD02554601D5164300E096432E604D6816
:10057000DBF80060AD035D4601D5164300E096430D
:100580002E604D68DEF80060ED03754601D5164318
:1005900000E096432E60641C0A681646E2407FF431
:1005A00029AFBDE8F88F00000804014000001110D9
:1005B000001002400000014000080140000C014012
:1005C000001001400014014000180140001C0140CF
:1005D0000AB1016170470904FBE700000148806827
:1005E000704700001400002002488168027811441E
:1005F0008160704714000020074810B5016841F081
:1006000010010160032000F0A1F8012000F006F8BD
:1006100000F050F8002010BD0020024030B5054623
:100620001F4887B0C16941F02001C161C06906A9B6
:1006300000F02000009001A800F030F90498B0B15B
:1006400000F04CF940001749174AB0FBF1F1174888
:10065000491E0260416040F2E7320021C0E90321F7
:100660008160816100F012FB040003D015E000F00E
:1006700035F9E8E70D4800F037FB04000DD13720CD
:1006800000F036F8102D07D200222946372000F05E
:100690003DF80748056000E0012407B0204630BD62
:1006A0000010024040420F0000140040D000002023
:1006B000180000200C4808B5816941F001018161F2
:1006C000816901F001010091C16941F08051C1616E
:1006D000C06900F0805000900448416821F0E0615A
:1006E00041F00071416008BD00100240000001406F
:1006F000002809DB00F01F02012191404009800021
:1007000000F1E020C0F8001170470000F0B40E4B7B
:100710001B680C46C3F30223C3F10705042D00D95F
:100720000425191D072901D2002300E0DB1E012644
:1007300006FA05F1491E214099409E40761E16405A
:100740003143F0BC00F04CBE0CED00E0064900F077
:10075000070208684FF6FF03184040EA0220034AE8
:1007600010430860704700000CED00E00000FA053F
:100770002DE9F0470F46050061D0434E306800F088
:100780000700B84209D2306820F0070038433060D3
:10079000306800F00700B84251D128683B4C81070F
:1007A00012D5400703D5606840F4E06060602878A7
:1007B000000703D5606840F4605060606068A96815
:1007C00020F0F000084360602878C00728D06868EF
:1007D000012810D02168022810D0890700292EDABC
:1007E000616821F0030101436160FFF7F7FE804675
:1007F00041F288390DE021688903EFE78901EDE7CF
:10080000FFF7ECFEA0EB0801494502D90320BDE843
:10081000F0876068696800F00C00B0EB810FEFD1E1
:10082000306800F00700B8420BD9306820F00700AC
:1008300038433060306800F00700B84201D0012032
:10084000E5E72878400705D56068E96820F4E060AE
:10085000084360602878000706D56068296920F49D
:10086000605040EAC100606000F058F86168084AD2
:10087000C1F30311515CC84006490860064800688E
:10088000FFF7CCFE0020C2E700200240001002402B
:100890000A25000820000020180000200F22026016
:1008A0000C4A536803F003034360536803F0F003FA
:1008B0008360536803F4E063C36052684FF4E063FD
:1008C00003EAD20202610448006800F007000860F1
:1008D0007047000000100240002002400448054913
:1008E00000684968044AC1F30221515CC84070475E
:1008F00020000020001002401A2500080448054985
:1009000000684968044AC1F3C221515CC84070477D
:1009100020000020001002401A2500080E4A5168ED
:100920000E4801F00C03042B11D0082B0FD10C48FA
:10093000C1F38343C903C05C0AD55168084AC1F3B7
:100940004041921E515C054A5043B0FBF1F07047A4
:1009500004494843704700000010024000127A002A
:10096000FA24000800093D002DE9F84F040070D07A
:100970002078C04DC00749D06868C0F381000128C5
:1009800007D06868C0F38100022809D16868C003F5
:1009900006D52868800339D560680028E7D035E09F
:1009A0006068B0F5803F0BD010B1B0F5A02F11D02A
:1009B000286820F480302860286820F4802002E035
:1009C000286840F480302860606890B1FFF706FE28
:1009D00006460AE0286840F480202860F0E700BF5F
:1009E000FFF7FCFD801B642873D828688003F7D5C7
:1009F0000CE0FFF7F3FD064605E000BFFFF7EEFD54
:100A0000801B6428F0D828688003F7D420789A4E99
:100A100080074FF001094FF0000839D5686810F0E1
:100A20000C0F07D06868C0F38100022809D16868FC
:100A3000C00306D42868800714D52069012808D18E
:100A400010E02069B0B1C6F80090FFF7C7FD074677
:100A500005E00AE1FFF7C2FDC01B0228C4D82868E0
:100A60008007F7D52868616920F0F80040EAC100E6
:100A700028600DE0C6F80080FFF7B0FD074604E0EF
:100A8000FFF7ACFDC01B022823D828688007F7D4E5
:100A9000207800072CD57948A169D9B1C0F8009019
:100AA000FFF79CFD074604E0FFF798FDC01B0228F6
:100AB0000FD8686A8007F7D571484FF4FA5100687B
:100AC000B0FBF1F0009000BF0098411E0091FAD2F7
:100AD0000EE080E0C0F80080FFF780FD074604E0EC
:100AE000FFF77CFDC01B022875D8686A8007F7D421
:100AF0002078400760D5E8690027C00008D4E8697D
:100B000040F08050E861E869012700F080500090D3
:100B10005C480168C90513D40168834641F48071BB
:100B20000160FFF75BFD824606E000BFFFF756FD60
:100B3000A0EB0A0064284ED8DBF80000C005F5D50C
:100B4000E06801280AD008B1052813D0286A20F0EF
:100B500001002862286A20F0040002E0286A40F0C0
:100B600001002862E06841F2883B98B1FFF736FD4A
:100B700082460BE0286A40F004002862EEE700BFDE
:100B8000FFF72CFDA0EB0A0159455AD8286A8007C7
:100B9000F6D50CE0FFF722FD824605E0FFF71EFDCB
:100BA000A0EB0A0159454CD8286A8007F6D41FB13A
:100BB000E86920F08050E861E06988B36968C1F3B2
:100BC0008101022944D00228C6F8608004D0FFF7D2
:100BD00005FD044638E034E0FFF700FD074604E079
:100BE000FFF7FCFCC01B02282BD828688001F7D433
:100BF000206AB0F5803F05D16868A16820F4003014
:100C000008436860D4E908010843696821F4741155
:100C100008436860C6F86090FFF7E0FC044606E011
:100C200025E000BFFFF7DAFC001B022809D828687E
:100C30008001F7D51BE000BFFFF7D0FC001B0228A6
:100C400002D90320BDE8F88F28688001F4D40EE0B3
:100C50000128F7D06868226A00F48031914204D1FB
:100C6000616A00F47010884201D00120EAE7002098
:100C7000E8E70000001002400000424280044242C7
:100C800020000020007000407047704710B504003D
:100C900003D094F83D0010B107E0012010BD002002
:100CA00084F83C00204600F01EF8022084F83D0045
:100CB000211D206800F078FA012084F8460084F8AD
:100CC0003E0084F83F0084F8400084F8410084F836
:100CD000420084F8430084F8440084F8450084F816
:100CE0003D00002010BD704790F83D10012901D053
:100CF00001207047022180F83D100168CA6842F067
:100D00000102CA6000680E4988420ED00D4988422F
:100D10000BD0B0F1804F08D00B49884205D00B4969
:100D2000884202D00A49884204D1816801F0070153
:100D3000062903D0016841F00101016000207047DD
:100D4000002C014000340140000400400008004035
:100D5000000C004070472DE9F04104460068C66869
:100D600005694FF00007A90713D5B10711D5F91E82
:100D7000016101202077206880698007204602D029
:100D8000FFF7E8FF04E000F07EF8204600F07CF872
:100D90002777680716D5700714D521686FF004000F
:100DA0000861022020772068806910F4407F204687
:100DB00002D0FFF7CFFF04E000F065F8204600F016
:100DC00063F82777280715D5300713D521686FF00A
:100DD00008000861042020772068C0698007204649
:100DE00002D0FFF7B7FF04E000F04DF8204600F016
:100DF0004BF82777E80616D5F00614D521686FF072
:100E000010000861082020772068C06910F4407F36
:100E1000204602D0FFF79EFF04E000F034F82046A1
:100E200000F032F82777E80708D0F00706D02168ED
:100E30006FF001000861204600F028F8280608D568
:100E4000300606D521686FF0800008612046FFF764
:100E50001BFF680608D5700606D521686FF04000B4
:100E60000861204600F01CF8A8060AD5B00608D58F
:100E700021686FF0200008612046BDE8F041FFF7CF
:100E800004BFBDE8F0817047704700000068034967
:100E9000884201D1FFF7A8BB704700000014004052
:100EA000704770B5040004D094F84100002510B1DB
:100EB00006E0012070BD84F84050204600F024F880
:100EC000242084F841002068C16821F40051C160E9
:100ED000204600F0DFF92068016921F490410161AA
:100EE0002068416921F02A0141612068C16841F40C
:100EF0000051C1606564202084F8410084F84200FC
:100F00006563002070BD000030B585B000240094FA
:100F100001940294039400681449884224D114482F
:100F2000816941F480418161816901F480410491CA
:100F3000816941F00401816180690E4D00F0040077
:100F400004904FF400700090022001900320039061
:100F500069462846FFF740FA2815CDE9000469469E
:100F600028460294FFF738FA05B030BD003801403A
:100F700000100240000801402DE9F843044690F8B3
:100F80004100984616460D46202802D00220BDE8B2
:100F9000F88385B17EB100206064212084F841008F
:100FA000FFF71CFBA6848146E684A0682027B0F5E5
:100FB000805F02D003E00120E9E7206910B12E46EE
:100FC00000250EE000260CE08021204600F0BEF94E
:100FD000A8B9C6B116F8010B21684860E08C401E24
:100FE000E084E08C4B464FF00002CDF800800028F2
:100FF000EAD14FF04001204600F0A8F940B184F852
:1010000041700320C3E735F8020BC0F30800E3E7A3
:1010100084F841700020BAE7FEE700002DE9F041B6
:1010200086B000242C4800940194029403948169B2
:1010300041F010018161816901F010010491816921
:1010400041F080018161816901F080010491816931
:1010500041F0040181618069DFF8808000F00400C4
:1010600040F203160490012231464046FFF7B0FAE1
:101070004FF4407000901A480125CDE90105194F41
:1010800069463846FFF7A8F94FF4406000901648CB
:1010900001900220029069463846FFF79DF903202F
:1010A000CDE90240CDE9006569464046FFF794F975
:1010B000002203211720FFF729FB1720FFF718FB59
:1010C000002203212820FFF721FB2820FFF710FB37
:1010D00006B0BDE8F08100000010024000080140A9
:1010E00000002110001C0140000011100C4810B538
:1010F0000A4901604FF4E1314160002181600C2216
:10110000C160C0E904128161C161FFF7CAFE002815
:1011100003D0BDE81040FFF702B910BD0038014010
:1011200088000020FEE7FEE710B501F0ADF80128C9
:1011300003D0BDE8104001F063B810BD30B58FB0EA
:1011400028216846FFF775F814210AA8FFF771F8FF
:1011500001210804CDE90010002402940225049125
:10116000CDE907504FF4E01009906846FFF7FCFB0B
:1011700008B172B6FEE70F20CDE90A054FF4806092
:10118000CDE90C4002210AA80E94FFF7F1FA0028DD
:1011900001D072B6FEE70FB030BD70470148FFF7CF
:1011A000DABD0000D0000020F0B50268204C214DCF
:1011B000214E224F224B4FF0804CA04209D0984242
:1011C00007D0604505D0A84203D0B04201D0B84254
:1011D00004D122F0700E4A6842EA0E02A04209D001
:1011E000984207D0604505D0A84203D0B04201D054
:1011F000B84203D122F44075CA682A434D6922F0EF
:1012000080022A4302608A68C2620A688262A0423F
:1012100001D0984201D1096901630121416101694D
:10122000C90703D0016921F001010161F0BD00008F
:10123000002C01400004004000080040000C004069
:101240000034014001680C3151E8002F22F4907203
:1012500041E80023002BF5D10168143151E8002F3B
:1012600022F0010241E80023002BF5D1016B012996
:1012700009D101680C3151E8002F22F0100241E839
:101280000023002BF5D1202180F8421000210163BA
:101290007047000070B5044600680169E26821F4F7
:1012A0004051114301612169A06808436169084305
:1012B0002168CA6841F20C639A430243CA602068FD
:1012C0004169A26921F44071114341611E492068BE
:1012D000884202D1FFF712FB01E0FFF7FFFA00EBB3
:1012E000C00101EB0012606864218000B2FBF0F3E2
:1012F000B3FBF1F36FF018067343B2FBF0F5B2FBEA
:10130000F0F605EB8305322303EB0515B5FBF1F58C
:10131000B6FBF1F605F0F00505EB0615B2FBF0F6AD
:10132000B2FBF0F0B0FBF1F06FF01802504306EBA7
:10133000800003EB0010B0FBF1F0216800F00F001B
:101340002844886070BD0000003801402DE9F84352
:10135000984617460D460446089E24E0701C22D08D
:10136000FFF73CF9A0EB0800B0421AD8CEB12068D4
:10137000C168490717D5802D15D0402D13D00168BD
:10138000C94309070FD40168002540680090204632
:10139000FFF758FF0820606484F840500120BDE842
:1013A000F8830320FBE72068006835EA000004D0DA
:1013B0000020B842D2D00020F1E70120F9E7FEE793
:1013C0000FB4054B10B503A9044A029800F028F8A1
:1013D00010BC5DF814FB0000E1160008840000203A
:1013E0000907090E002804DB00F1E02080F8001452
:1013F000704700F00F0000F1E02080F8141D7047E6
:1014000002E008C8121F08C1002AFAD170477047CD
:10141000002001E001C1121F002AFBD1704700002B
:101420002DE9FF4F8DB09B460F460446002606E08F
:1014300025280BD05A460F999047641C761C2078BB
:101440000028F5D111B03046BDE8F08F0025A84640
:101450000122984900E0054314F8013F203B02FABD
:1014600003F00842F7D120782E2817D114F8010F85
:1014700045F004052A280ED06FF02F022078A0F145
:10148000300109290AD808EB880102EB410100EB81
:101490000108641CF2E757F8048B641C20786C2860
:1014A0000DD004DC4C2812D06A2811D104E0742835
:1014B0000DD07A280CD10AE045F4001507E06178D8
:1014C00045F48015814202D1641C05F58015641C29
:1014D0002078692844D008DC0028B3D0582867D089
:1014E00063280FD0642808D13AE0702865D07328AB
:1014F00012D075285AD078285AD05A460F9990475A
:10150000761CD5E017F8040B8DF8000000208DF84C
:101510000100E946012003E057F8049B4FF0FF303B
:1015200069074FF0000501D40AE06D1C45450DDA4E
:101530008542FADB19F805100029F6D106E06D1C8A
:101540008542FCDB19F805100029F8D12E4404E08F
:1015500019F8010B5A460F9990476D1EF8D2A7E073
:101560000A200021CDE90801C5F3025002280CD061
:1015700001CFC117021E71F100020CDA0023D0EB7B
:10158000030063EB01012D2208E0FF1D27F0070790
:10159000F7E80201EEE72A0504D52B228DF8282072
:1015A00001223CE0EA073AD02022F7E70A2000E0D7
:1015B00010200021CDE9080107E01020002145F0AE
:1015C0000405CDE908014FF00808C5F302500228D0
:1015D00010D001CF00214FF0000A2A0720D5227831
:1015E000702A0DD0DDE908C38CF0100C5CEA030C06
:1015F0000CD015E0FF1D27F00707F7E80201EAE726
:1016000040228DF828204FF0010A0CE050EA010337
:1016100006D030238DF828308DF8292002229246FA
:101620002278582A04D024A20DF120090B9209E057
:1016300026A2F9E7DDE90823FEF706FE0B9B9B5C7B
:1016400009F8013D50EA0102F4D1ADEB0900203068
:101650000890680701D44FF001080899884503DD18
:101660000898A8EB000000E000208046002506E076
:101670000AA85A46405D0F9990476D1C761C554547
:10168000F6DB04E030205A460F999047761CB8F1FB
:101690000001A8F10108F5DC05E019F8010B5A4634
:1016A0000F999047761C0899481E08900029F4DC91
:1016B000641CC4E609280100303132333435363732
:1016C000383961626364656600000000303132338E
:1016D000343536373839414243444546000000002E
:1016E00013B54FF6FF73012269460248FFF744FC29
:1016F00000981CBD880000201CB500F0D1FC0A49F0
:10170000C86010B109A0FFF75BFE07490120CDE9D1
:101710000001002380220DA10F4800F087FDBDE8E5
:101720001C4000F057BC0000000000206576656E8C
:10173000745F67726F757020637265617465207382
:101740007563636573730D0A000000007374617242
:10175000745F7461736B0000911B0008FEF74CFF0F
:10176000FFF7ECFCFFF75AFCFFF7C0FC02A0FFF705
:1017700027FEFFF7C1FFFEE748656C6C6F205254EF
:101780004F530D0A000000002DE9F047204C0F4692
:101790000546E668D4F83490D4F838802068001DF7
:1017A00000F0BAFA38B9206890F82C10012088406F
:1017B000216981432161681C15D1A7B115492268AF
:1017C0004868906023688268DA6022688368121D26
:1017D0005A602268121D8260206841610868401CBE
:1017E0000860BDE8F08720683544B542456021684F
:1017F00005D24046BDE8F047091D00F0B9BA484699
:10180000091D00F0B5FAA06A8542EAD2A562E8E7B0
:1018100044000020CC4500202DE9F041054600F0B1
:10182000CBFA364CA068401CA0602068344F10B141
:10183000606940B32DE02560A068012829D1002609
:1018400006EB860007EB800000F084FA761C052E7C
:10185000F6D32B48643000F07DFA2948783000F048
:1018600079FA27488C3000F075FA2548A03000F04E
:1018700071FA2348B43000F06DFA21486430606397
:101880001430A06305E02068E96AC06A884200D885
:101890002560606A0121401C6062E86A226981401B
:1018A0001143216100EB800007EB80004068A860D5
:1018B0008168E9608268291D51608160E86A00EBF7
:1018C000800007EB8001696157F82010491C47F838
:1018D000201000F07FFA606900280CD02068E96AC7
:1018E000C06A884207D207494FF080500860BFF3B2
:1018F0004F8FBFF36F8FBDE8F081000044000020E0
:101900001845002004ED00E070B50C4C0C4E11E0C1
:1019100000F052FAF068C568281D00F0FDF9A068D3
:10192000401EA0606068401E606000F053FA2846C8
:1019300000F008F860680028EAD170BD440000207B
:10194000B845002010B50446006B00F04DFA204663
:10195000BDE8104000F048BA0E484FF488414207F5
:1019600006D0C01D0B4920F00700411AC1F588417F
:10197000094A00230144C2E900030839143A21F05E
:10198000070111604B600B600B1AC0E900139360F4
:10199000536070471801002038000020074C4FF0BA
:1019A0008056074DFFF7B0FF20680128FAD92E6056
:1019B000BFF34F8FBFF36F8FF4E70000184500208F
:1019C00004ED00E02DE9F0479946DDE90964804621
:1019D0006FF00303206B03EB8202089D104420F09C
:1019E000070761B1002023180A5C83F834200A5CE1
:1019F00012B1401C1028F6D3002084F84300052DB6
:101A000000D30425201DE56200F0AFF904F11800B1
:101A100000F0ABF92461C5F105006462A0614A469B
:101A20004146384600F0A2F82060002E00D0346015
:101A3000BDE8F08730B5114900E011460A688242DE
:101A4000FBD34B685C18844203D14068184448605B
:101A5000084643681C18944209D1084C143C246879
:101A6000A24209D052681A4442600A6812680260B1
:101A7000814200D0086030BD0460F9E738000020E2
:101A80000548416B096821B1416BC96809688162E9
:101A900070474FF0FF31FAE744000020BF2080F389
:101AA0001188BFF34F8FBFF36F8FFEE7034600200F
:101AB00012B1994302D070470B42FCD0012070470D
:101AC0002DE9F04104004FF000060FD014F1090F8A
:101AD0000BD80834600709D004F00700C0F10800F3
:101AE000C1438C4201D8044400E0002400F0AAFA6B
:101AF0001D4D286808B9FFF72FFF002C2FDD6B68FC
:101B00009C422CD8184814300146096801E0084668
:101B100011464A68A24202D20A68002AF7D12A680E
:101B200091421CD006680A6802604A680836171B92
:101B3000102F05D90A1957604C60046814600260C0
:101B40004A68981A6860AB68984200D2A86042F070
:101B50000040486000200860E868401CE86000F031
:101B600035FC3046BDE8F0812400002010B5031F8D
:101B70004FF080741C601B1F21F001011960191FB8
:101B8000024B0B60143940380A6010BD9D1A0008E2
:101B90001CB500F011F90F490220CDE90001002326
:101BA00080220DA10E4800F041FB0A490320091DC7
:101BB000CDE90001002380220AA10C4800F036FB89
:101BC0000448001F006800F03DF9BDE81C4000F02B
:101BD00001B90000040000207461736B3100000043
:101BE000F11B00087461736B320000008D1C00084B
:101BF00013A0FFF7E5FB174C174D002628780128A6
:101C000006D0022809D0032810D004280CD112E0F5
:101C100012A0FFF7D5FB012103E013A0FFF7D0FBD3
:101C20000221E06800F049FA2E70E7E711A0FFF703
:101C3000C7FB0421F5E712A0FFF7C2FB0821F0E77C
:101C40007461736B312072756E6E696E672E2E2E05
:101C50000D0A0000000000201000002073657420B1
:101C600062697420300D0A00736574206269742003
:101C7000310D0A007365742062697420320D0A0008
:101C80007365742062697420330D0A0008B50CA0D6
:101C9000FFF796FB0F4E4FF0FF35012300951A46D4
:101CA0000F21F06800F03CFA044601460AA0FFF755
:101CB00087FBE007F1D012A0FFF782FBEDE7000001
:101CC0007461736B322072756E6E696E672E2E2E84
:101CD0000D0A000000000020E7AD89E5BE85E5881B
:101CE000B0E79A84E4BA8BE4BBB6E6A087E5BF9779
:101CF000E4BD8DE580BC3D2523780D0A0000000081
:101D00006576656E742067726F75702069732072D6
:101D1000756E0D0A00000000D0E9013201699A6079
:101D2000D0E901235A604A68824201D182684A6040
:101D3000002202610868401E086070470449086874
:101D40000A688069D26A0968C2F105028A6170472F
:101D50004400002000F108014FF0FF32C0E90112F9
:101D6000C16001610021016070470021016170477D
:101D700030B50B685A1C02D000F1080202E002697B
:101D800004E02246546825689D42FAD953684B60A6
:101D900099608A60516008610168491C016030BD2A
:101DA00042684A6093688B609368596091600861EB
:101DB0000168491C01607047BF2080F31188BFF3A0
:101DC0004F8FBFF36F8F02480168491C0160704755
:101DD0004000002003490868401E086001D180F3DC
:101DE000118870474000002070B500281BD0A0F17A
:101DF00008046068002816DA2168002913D120F051
:101E00000040606000F01EF9074D60686968084492
:101E100068602046FFF70EFE2869401C2861BDE877
:101E2000704000F0D3BA70BD240000204FF0E020D5
:101E3000002101618161024941610721016170470F
:101E40003F19010070B50546FFF7B6FF244C05B9F0
:101E50002568281DFFF760FF58B9E86A214A00EBA2
:101E6000800152F8211021B9012181402069884365
:101E70002061A86A18B105F11800FFF74DFF606AEC
:101E8000401C60622068854201D1012000E00020F2
:101E9000616959B150B11348291DA030FFF780FF87
:101EA0006068401C6060FFF795FF09E0A068401E75
:101EB000A060FFF7E5FDFFF78DFF2846FFF742FD25
:101EC000606900280AD02068854207D106494FF092
:101ED00080500860BFF34F8FBFF36F8F70BD00005D
:101EE000440000201845002004ED00E003460E48A1
:101EF00030B4046841F00041A16159680468E161AF
:101F00008C6805682C6204688D6818346C600468FD
:101F100018348C60006883621868401C186030BCFC
:101F200001211046FFF730BC4400002070B541F09D
:101F300000410160D0E90143D0E90312A360D0E978
:101F4000013463605368834201D183685360002386
:101F500003611068401E1060D1E902404A69A06028
:101F6000D1E9020460605468081D844201D1CC6844
:101F700054604B611368154C5B1E1360CB6A0125DE
:101F8000266905FA03F23243226103EB8302104B08
:101F900003EB820252688A609668CE609668706031
:101FA0009060C86A00EB800003EB80024A6153F83E
:101FB0002020521C43F82020C86A2168C96A884240
:101FC00002D904F11C00056070BD0000440000202F
:101FD0001845002030B587B000240294039404947F
:101FE000204602A9059413A2125C0A5412B1401CA7
:101FF0000F28F8D30C5412491048CDE900410023B2
:10200000802202A900F012F90D4D3C3D01280ED1AD
:10201000BF2080F31188BFF34F8FBFF36F8F4FF056
:10202000FF30A86201206861EC6000F0D1F8E86A36
:1020300007B030BD49444C45000000009D19000820
:10204000800000200248016B491C016370470000BA
:102050004400002010490A6B01F11C0012B101215B
:10206000016070470022026008690C4AB0FA80F0F3
:10207000C0F11F0000EB800002EB800000F10803BC
:102080004268526842609A4201D1C2684260D06898
:1020900008600868704700004400002018450020D0
:1020A00010B51820FFF70CFD040004D000202060BC
:1020B000201DFFF74FFE204610BD2DE9F041884658
:1020C00004460027051D00F10C06FFF7BBFF216841
:1020D000E86841EA0801216017E0D0E9001501F045
:1020E0007F425301236821F07F4102D40B4203D188
:1020F0000AE031EA030307D1D20100D50F4321687A
:1021000041F00071FFF712FF2846B042E5D1256883
:10211000BD43256000F05AF92846BDE8F081000073
:102120002DE9F047994690460E4604460027DDF813
:1021300020A0FFF787FF25684A4631462846FFF76B
:10214000B5FC30B1B8F1000F1AD02068B043206060
:1021500016E0BAF1000F13D0B8F1000F01D04FF024
:102160008077B9F1000F01D047F0806746EA070198
:102170005246201DFFF7BAFE00F028F918B10AE018
:1021800000F024F91FE011494FF080500860BFF3C0
:102190004F8FBFF36F8FFFF7D1FD0546800110D43D
:1021A000FFF70AFE25684A4631462846FFF77EFCBF
:1021B00028B1B8F1000F02D02068B0432060FFF7CB
:1021C00009FE25F07F452846BDE8F08704ED00E0D4
:1021D000094810B5016841F47F010160016841F0D0
:1021E0007F410160FFF722FE044900200860FDF7EF
:1021F000BDFF002010BD000020ED00E040000020E9
:1022000010B5BF2080F31188BFF34F8FBFF36F8FDE
:1022100000F048F818B104494FF0805008600020E1
:1022200080F3118810BD000004ED00E02DE9FF5F90
:102230008346DDE90E878A46164699469000FFF7E9
:102240003FFC05001DD04C20FFF73AFC040015D0E0
:102250004C21FDF7EEFF25630021CDE90241CDE9D8
:1022600000874B46324651465846FFF7ABFB2046A7
:10227000FFF7D2FA012004B0BDE8F09F2846FFF72F
:10228000B3FD4FF0FF30F6E70548416919B1006B27
:1022900018B10020704701207047022070470000ED
:1022A000440000202DE9F041464C0026206B28B167
:1022B000A069401CA0613046BDE8F081E5686D1C56
:1022C000E56008D1606BA16B6163A063206A401C6C
:1022D0002062FFF7D5FBA16A3B488D420FD34FF038
:1022E000000E616B096839B1616BC968C9684A68D9
:1022F000954214D2A26202E04FF0FF31A162216840
:10230000C96A01EB810150F82100012800D901269A
:102310002C481C3000680028CDD00126CBE7D1E93D
:1023200002724B69BA60D1E902277A605F680A1DC0
:10233000974201D1CF685F60C1F814E01F687F1E2B
:102340001F60D1F828C0BCF1000F15D0D1E90737C4
:102350009F60D1E907377B60DCF8047001F1180356
:102360009F4202D10B6ACCF80430C1F828E0DCF8B7
:1023700000305B1ECCF80030CB6A0127D4F810C0C7
:102380009F4047EA0C07276103EB830300EB8303BD
:102390005B688B609F68CF609F687A609A60CA6A4A
:1023A00002EB820200EB82034B6150F822305B1C8F
:1023B00040F82230C96A2268D26A914291D9012636
:1023C0008FE7000044000020184500202DE9F04769
:1023D00000242746FFF7F0FC444D286B401E28637D
:1023E000286B00287CD1A868DFF804C1A2464FF012
:1023F000010905F11C06E8BB72E000BFDCF80C0027
:10240000C468D4E90721A06A9160D4E90712516039
:10241000426804F118018A4201D1216A4160C4F87E
:1024200028A001685246491E0160D4E90231606962
:102430009960D4E9021359604368211D8B4201D190
:10244000E368436062610268521E0260E36AD5F885
:1024500010804A4609FA03F040EA0800286103EBBD
:102460008300234B8C3B03EB80004068A060D0F8D6
:10247000088000E017E0C4F80C80D0F80880C8F8A5
:1024800004108160E06A00EB800003EB8001616171
:1024900053F82010491C43F82010E06A2968C96AE3
:1024A000884200D93260DCF800000028A6D10CB1C7
:1024B000FFF7E6FAAC6944B1FFF7F4FE08B1C6F8DD
:1024C0000090641EF8D1C5F818A0306840B12868A3
:1024D0000127084938070860BFF34F8FBFF36F8F9C
:1024E000FFF778FC3846BDE8F08700004400002084
:1024F000A445002004ED00E00102020304050607E4
:1025000008090A0B0C0D0E0F10100000000000004F
:102510000000010203040607080900000000010290
:10252000030400004425000800000020880000008B
:1025300000140008CC25000888000020584900003D
:10254000101400080000000000000000000000005F
:10255000000000000000000001000000100000006A
:102560000000000000127A000000000000000000DF
:10257000000000000000000000000000000000005B
:1025800000000000AAAAAAAA0000000000000000A3
:10259000000000000000000000000000000000003B
:1025A000000000000000000000000000000000002B
:1025B0000000000004000000000000000000000017
:0C25C0000000000000000000000000000F
:0400000508000131BD
:00000001FF
