:020000040800F2
:10000000E0490020E1010008BF100008B10F00081E
:10001000BD10000879020008571300080000000016
:10002000000000000000000000000000490100087E
:100030007B020008000000008D010008C1100008CC
:10004000FB010008FB010008FB010008FB010008A0
:10005000FB010008FB010008FB010008FB01000890
:10006000FB010008FB010008FB010008FB01000880
:10007000FB010008FB010008FB010008FB01000870
:10008000FB010008FB010008FB010008FB01000860
:10009000FB010008FB010008FB01000893020008B7
:1000A000FB010008FB010008FB010008FB01000840
:1000B000FB010008FB010008FB010008FB01000830
:1000C000FB010008FB010008FB010008FB01000820
:1000D000FB010008FB010008FB010008FB01000810
:1000E0007D020008FB010008FB010008FB0100087D
:1000F000FB010008FB010008FB010008FB010008F0
:10010000FB010008FB010008FB010008FB010008DF
:10011000FB010008FB010008FB0100083511000885
:10012000FB010008FB010008FB010008FB010008BF
:10013000DFF810D000F08EF800480047591500088D
:10014000AFF30080E0490020224B19680868B0E84E
:10015000F00F80F30988BFF36F8F4FF0000080F33A
:1001600011884EF00D0E7047000000000648006830
:10017000006880F3088862B661B6BFF34F8FBFF3A3
:100180006F8F00DF00BF00BF08ED00E0EFF30980D4
:10019000BFF36F8F0F4B1A6820E9F00F106008B59E
:1001A0004FF0BF0080F31188BFF34F8FBFF36F8F05
:1001B00001F08CFD4FF0000080F31188BDE808408D
:1001C00019680868B0E8F00F80F30988BFF36F8FF3
:1001D000704700BF40000020EFF30580704700002B
:1001E0000648804706480047FEE7FEE7FEE7FEE7D1
:1001F000FEE7FEE7FEE7FEE7FEE7FEE73311000855
:1002000031010008D2B201E000F8012B491EFBD2F7
:1002100070470022F6E710B513460A460446194611
:10022000FFF7F0FF204610BD30B50B460146002019
:100230002022012409E021FA02F59D4205D303FAA8
:1002400002F5491B04FA02F52844151EA2F1010229
:10025000F1DC30BD064C074D06E0E06840F00103DC
:1002600094E8070098471034AC42F6D3FFF764FFD8
:100270002C2200084C220008FEE7704710B54FF40E
:10028000806000F061F8BDE810404FF4006000F0BD
:100290005BB810B54FF4807000F056F8BDE8104020
:1002A0004FF4007000F050B872B6FEE710B5114C74
:1002B000B0F5807F0ED0B0F5007F10D0B0F5806F24
:1002C00012D0B0F5006F04D10BA001F045F8042066
:1002D000207010BD0DA001F03FF80120F8E710A03C
:1002E00001F03AF80220F3E712A001F035F80320FC
:1002F000EEE700000C000020535736206973207091
:100300007265737365640D0A000000005357332053
:10031000697320707265737365640D0A00000000D4
:1003200053573420697320707265737365640D0AC6
:100330000000000053573520697320707265737395
:1003400065640D0A00000000044910B50A68024205
:1003500002D00860FFF7AAFF10BD0000140401409E
:100360002DE9F84FDFF8C8910024A9F1040B2346CA
:100370000F2709F1040AABF1040ED1E00125A540D5
:1003800006EA0502AA4276D1DFF8A8C14E68A6EBBC
:100390000C0866452BD00DDC032E34D005DC36B3BB
:1003A000012E19D0022E2FD11BE0112E16D0122EA5
:1003B0002AD119E0B8F5881F19D006DCB8F5803FBE
:1003C00015D0B8F5801F1FD111E0B8F5001F0ED071
:1003D000B8F5041F18D10AE0CB6815E0CB681B1DE7
:1003E00012E0CB6808330FE0CB680C330CE08B686D
:1003F0002BB1012B4FF0080303D0456104E0042327
:1004000002E0056100E00023FF2A01D8064601E072
:1004100000F104064FEA840501D9A5F12005D6F8BC
:10042000008007FA05FC28EA0C0803FA05F548EAFB
:100430000508C6F800804D68ED0070D53E4DAE69E8
:1004400046F00106AE61AD6924F0030605F0010532
:1004500000953A4D06EB050CDCF80850A607360F60
:1004600007FA06F825EA0805DFF8D480404503D1ED
:100470004FF0000825E052E0DFF8C880404502D187
:100480004FF001081DE0DFF8C080404502D14FF079
:10049000020816E0DFF8B480404502D14FF00308AF
:1004A0000FE0DFF8AC80404502D14FF0040808E0CF
:1004B000DFF8A080404502D14FF0050801E04FF081
:1004C000060808FA06F848EA0508CCF808804D68DE
:1004D000D9F80060ED024D4601D5164300E0964381
:1004E0002E604D68DAF80060AD02554601D516431E
:1004F00000E096432E604D68DBF80060AD035D467A
:1005000001D5164300E096432E604D68DEF800608A
:10051000ED03754601D5164300E096432E60641C3A
:100520000A681646E2407FF429AFBDE8F88F000064
:1005300008040140000011100010024000000140BA
:1005400000080140000C014000100140001401406F
:1005500000180140001C0140C26821EA02030A4061
:1005600043EA0241016170470AB101617047090421
:10057000FBE7000001488068704700001000002081
:1005800002488168027811448160704710000020A1
:10059000074810B5016841F010010160032000F028
:1005A000A1F8012000F006F800F050F8002010BD7E
:1005B0000020024030B505461F4887B0C16941F0B0
:1005C0002001C161C06906A900F02000009001A8C7
:1005D00000F030F90498B0B100F04CF94000174930
:1005E000174AB0FBF1F11748491E0260416040F222
:1005F000E7320021C0E903218160816100F012FB34
:10060000040003D015E000F035F9E8E70D4800F0EC
:1006100037FB04000DD1372000F036F8102D07D23B
:1006200000222946372000F03DF80748056000E029
:10063000012407B0204630BD0010024040420F00A8
:1006400000140040CC000020140000200C4808B525
:10065000816941F001018161816901F0010100912D
:10066000C16941F08051C161C06900F080500090C3
:100670000448416821F0E06141F00071416008BD2B
:100680000010024000000140002809DB00F01F02BA
:10069000012191404009800000F1E020C0F80011E4
:1006A00070470000F0B40E4B1B680C46C3F30223E6
:1006B000C3F10705042D00D90425191D072901D20E
:1006C000002300E0DB1E012606FA05F1491E214049
:1006D00099409E40761E16403143F0BC00F04CBE5F
:1006E0000CED00E0064900F0070208684FF6FF0332
:1006F000184040EA0220034A104308607047000097
:100700000CED00E00000FA052DE9F0470F4605006A
:1007100061D0434E306800F00700B84209D230681B
:1007200020F0070038433060306800F00700B8421E
:1007300051D128683B4C810712D5400703D560682A
:1007400040F4E06060602878000703D5606840F4FA
:10075000605060606068A96820F0F0000843606045
:100760002878C00728D06868012810D0216802289E
:1007700010D0890700292EDA616821F003010143B6
:100780006160FFF7F7FE804641F288390DE021688D
:100790008903EFE78901EDE7FFF7ECFEA0EB080125
:1007A000494502D90320BDE8F0876068696800F018
:1007B0000C00B0EB810FEFD1306800F00700B842B9
:1007C0000BD9306820F0070038433060306800F003
:1007D0000700B84201D00120E5E72878400705D599
:1007E0006068E96820F4E0600843606028780007EA
:1007F00006D56068296920F4605040EAC100606055
:1008000000F058F86168084AC1F30311515CC84010
:100810000649086006480068FFF7CCFE0020C2E7E2
:100820000020024000100240122200081C0000209C
:10083000140000200F2202600C4A536803F00303E7
:100840004360536803F0F0038360536803F4E0638C
:10085000C36052684FF4E06303EAD20202610448C5
:10086000006800F0070008607047000000100240B8
:10087000002002400448054900684968044AC1F361
:100880000221515CC84070471C000020001002404B
:10089000222200080448054900684968044AC1F357
:1008A000C221515CC84070471C000020001002406B
:1008B000222200080E4A51680E4801F00C03042B56
:1008C00011D0082B0FD10C48C1F38343C903C05C7E
:1008D0000AD55168084AC1F34041921E515C054A4D
:1008E0005043B0FBF1F070470449484370470000A3
:1008F0000010024000127A000222000800093D00A8
:100900002DE9F84F040070D02078C04DC00749D0C1
:100910006868C0F38100012807D06868C0F38100CF
:10092000022809D16868C00306D52868800339D534
:1009300060680028E7D035E06068B0F5803F0BD0F4
:1009400010B1B0F5A02F11D0286820F480302860B5
:10095000286820F4802002E0286840F48030286075
:10096000606890B1FFF706FE06460AE0286840F48A
:1009700080202860F0E700BFFFF7FCFD801B6428A3
:1009800073D828688003F7D50CE0FFF7F3FD06461F
:1009900005E000BFFFF7EEFD801B6428F0D8286853
:1009A0008003F7D420789A4E80074FF001094FF06A
:1009B000000839D5686810F00C0F07D06868C0F3DC
:1009C0008100022809D16868C00306D4286880071E
:1009D00014D52069012808D110E02069B0B1C6F80B
:1009E0000090FFF7C7FD074605E00AE1FFF7C2FDEB
:1009F000C01B0228C4D828688007F7D52868616919
:100A000020F0F80040EAC10028600DE0C6F8008040
:100A1000FFF7B0FD074604E0FFF7ACFDC01B02285E
:100A200023D828688007F7D4207800072CD5794888
:100A3000A169D9B1C0F80090FFF79CFD074604E01A
:100A4000FFF798FDC01B02280FD8686A8007F7D50A
:100A500071484FF4FA510068B0FBF1F0009000BF0C
:100A60000098411E0091FAD20EE080E0C0F80080AC
:100A7000FFF780FD074604E0FFF77CFDC01B02285E
:100A800075D8686A8007F7D42078400760D5E86990
:100A90000027C00008D4E86940F08050E861E869A8
:100AA000012700F0805000905C480168C90513D40C
:100AB0000168834641F480710160FFF75BFD824667
:100AC00006E000BFFFF756FDA0EB0A0064284ED8F1
:100AD000DBF80000C005F5D5E06801280AD008B1B0
:100AE000052813D0286A20F001002862286A20F027
:100AF000040002E0286A40F001002862E06841F248
:100B0000883B98B1FFF736FD82460BE0286A40F03B
:100B100004002862EEE700BFFFF72CFDA0EB0A01FE
:100B200059455AD8286A8007F6D50CE0FFF722FD10
:100B3000824605E0FFF71EFDA0EB0A0159454CD89F
:100B4000286A8007F6D41FB1E86920F08050E86178
:100B5000E06988B36968C1F38101022944D00228A1
:100B6000C6F8608004D0FFF705FD044638E034E0A5
:100B7000FFF700FD074604E0FFF7FCFCC01B02285E
:100B80002BD828688001F7D4206AB0F5803F05D1C2
:100B90006868A16820F4003008436860D4E908015F
:100BA0000843696821F4741108436860C6F86090CE
:100BB000FFF7E0FC044606E025E000BFFFF7DAFCA3
:100BC000001B022809D828688001F7D51BE000BF68
:100BD000FFF7D0FC001B022802D90320BDE8F88FE4
:100BE00028688001F4D40EE00128F7D06868226AF2
:100BF00000F48031914204D1616A00F4701088429F
:100C000001D00120EAE70020E8E7000000100240E0
:100C100000004242800442421C000020007000405C
:100C20007047704710B5040003D094F83D0010B130
:100C300007E0012010BD002084F83C00204600F0B1
:100C40001EF8022084F83D00211D206800F078FA8B
:100C5000012084F8460084F83E0084F83F0084F8C0
:100C6000400084F8410084F8420084F8430084F88E
:100C7000440084F8450084F83D00002010BD704712
:100C800090F83D10012901D001207047022180F821
:100C90003D100168CA6842F00102CA6000680E494E
:100CA00088420ED00D4988420BD0B0F1804F08D059
:100CB0000B49884205D00B49884202D00A49884234
:100CC00004D1816801F00701062903D0016841F0D1
:100CD0000101016000207047002C014000340140F8
:100CE0000004004000080040000C004070472DE95F
:100CF000F04104460068C66805694FF00007A9077F
:100D000013D5B10711D5F91E0161012020772068A4
:100D100080698007204602D0FFF7E8FF04E000F07A
:100D20007EF8204600F07CF82777680716D5700714
:100D300014D521686FF00400086102202077206834
:100D4000806910F4407F204602D0FFF7CFFF04E017
:100D500000F065F8204600F063F82777280715D5DE
:100D6000300713D521686FF0080008610420207750
:100D70002068C0698007204602D0FFF7B7FF04E073
:100D800000F04DF8204600F04BF82777E80616D51E
:100D9000F00614D521686FF0100008610820207754
:100DA0002068C06910F4407F204602D0FFF79EFF04
:100DB00004E000F034F8204600F032F82777E80726
:100DC00008D0F00706D021686FF0010008612046C6
:100DD00000F028F8280608D5300606D521686FF0FF
:100DE000800008612046FFF71BFF680608D57006E3
:100DF00006D521686FF040000861204600F01CF81D
:100E0000A8060AD5B00608D521686FF02000086151
:100E10002046BDE8F041FFF704BFBDE8F081704710
:100E20007047000000680349884201D1FFF7A8BB62
:100E30007047000000140040704770B5040004D0F3
:100E400094F84100002510B106E0012070BD84F83F
:100E50004050204600F024F8242084F84100206807
:100E6000C16821F40051C160204600F0DFF920681C
:100E7000016921F4904101612068416921F02A0152
:100E800041612068C16841F40051C160656420205F
:100E900084F8410084F842006563002070BD0000C2
:100EA00030B585B000240094019402940394006846
:100EB0001449884224D11448816941F480418161F8
:100EC000816901F480410491816941F004018161EB
:100ED00080690E4D00F0040004904FF40070009003
:100EE000022001900320039069462846FFF738FA54
:100EF0002815CDE90004694628460294FFF730FA28
:100F000005B030BD0038014000100240000801402B
:100F10002DE9F843044690F84100984616460D46E0
:100F2000202802D00220BDE8F88385B17EB10020E0
:100F30006064212084F84100FFF71CFBA6848146F1
:100F4000E684A0682027B0F5805F02D003E001208E
:100F5000E9E7206910B12E4600250EE000260CE0DE
:100F60008021204600F0BEF9A8B9C6B116F8010BE1
:100F700021684860E08C401EE084E08C4B464FF0D6
:100F80000002CDF800800028EAD14FF04001204651
:100F900000F0A8F940B184F841700320C3E735F8A8
:100FA000020BC0F30800E3E784F841700020BAE7C1
:100FB000FEE700002DE9F04186B000242C480094A3
:100FC000019402940394816941F010018161816967
:100FD00001F010010491816941F080018161816912
:100FE00001F080010491816941F00401816180690F
:100FF000DFF8808000F0040040F203160490012224
:1010000031464046FFF7B0FA4FF4407000901A485E
:101010000125CDE90105194F69463846FFF7A0F9CA
:101020004FF44060009016480190022002906946FB
:101030003846FFF795F90320CDE90240CDE9006578
:1010400069464046FFF78CF9002203211720FFF77D
:1010500029FB1720FFF718FB002203212820FFF7A8
:1010600021FB2820FFF710FB06B0BDE8F08100004F
:10107000001002400008014000002110001C014047
:10108000000011100C4810B50A4901604FF4E1311D
:101090004160002181600C22C160C0E904128161BD
:1010A000C161FFF7CAFE002803D0BDE81040FFF77A
:1010B000FBB810BD0038014084000020FEE7FEE7C9
:1010C00010B500F065FF012803D0BDE8104000F026
:1010D0003BBE10BD30B58FB028216846FFF799F8A8
:1010E00014210AA8FFF795F801210804CDE90010A2
:1010F0000024029402250491CDE907504FF4E0103A
:1011000009906846FFF7FCFB08B172B6FEE70F20B6
:10111000CDE90A054FF48060CDE90C4002210AA810
:101120000E94FFF7F1FA002801D072B6FEE70FB077
:1011300030BD70470148FFF7DABD0000CC00002049
:10114000F0B50268204C214D214E224F224B4FF02A
:10115000804CA04209D0984207D0604505D0A842F3
:1011600003D0B04201D0B84204D122F0700E4A68D8
:1011700042EA0E02A04209D0984207D0604505D04D
:10118000A84203D0B04201D0B84203D122F4407546
:10119000CA682A434D6922F080022A4302608A68A5
:1011A000C2620A688262A04201D0984201D10969F4
:1011B0000163012141610169C90703D0016921F07F
:1011C00001010161F0BD0000002C0140000400405D
:1011D00000080040000C00400034014001680C3160
:1011E00051E8002F22F4907241E80023002BF5D142
:1011F0000168143151E8002F22F0010241E8002378
:10120000002BF5D1016B012909D101680C3151E89E
:10121000002F22F0100241E80023002BF5D12021FD
:1012200080F84210002101637047000070B5044649
:1012300000680169E26821F44051114301612169AC
:10124000A0680843616908432168CA6841F20C63D9
:101250009A430243CA6020684169A26921F440713F
:10126000114341611E492068884202D1FFF712FBF9
:1012700001E0FFF7FFFA00EBC00101EB001260682C
:1012800064218000B2FBF0F3B3FBF1F36FF01806BA
:101290007343B2FBF0F5B2FBF0F605EB83053223A6
:1012A00003EB0515B5FBF1F5B6FBF1F605F0F0051E
:1012B00005EB0615B2FBF0F6B2FBF0F0B0FBF1F077
:1012C0006FF01802504306EB800003EB0010B0FBF8
:1012D000F1F0216800F00F002844886070BD000024
:1012E000003801402DE9F843984617460D4604465C
:1012F000089E24E0701C22D0FFF73CF9A0EB080008
:10130000B0421AD8CEB12068C168490717D5802DE0
:1013100015D0402D13D00168C94309070FD40168C7
:101320000025406800902046FFF758FF08206064C1
:1013300084F840500120BDE8F8830320FBE72068D3
:10134000006835EA000004D00020B842D2D0002066
:10135000F1E70120F9E7FEE70FB4054B10B503A94B
:10136000044A029800F028F810BC5DF814FB000055
:101370000D150008800000200907090E002804DB75
:1013800000F1E02080F80014704700F00F0000F139
:10139000E02080F8141D704702E008C8121F08C141
:1013A000002AFAD170477047002001E001C1121FE6
:1013B000002AFBD1704700002DE9FF4F89B09B4602
:1013C0000446002506E025280BD05A460B99904785
:1013D000641C6D1C20780028F5D10DB02846BDE8AE
:1013E000F08F0027B8460122474900E0074314F870
:1013F000013F203B02FA03F00842F7D120782E2863
:1014000019D114F8010F47F004072A280ED06FF005
:101410002F022078A0F1300109290CD808EB8801AF
:1014200002EB410100EB0108641CF2E70A98641C1E
:1014300050F8048B0A9020780028CED0642808D079
:10144000692806D075281ED05A460B9990476D1C06
:1014500058E00A994FF00A0901C90A91002802DAF6
:1014600040422D2102E0390504D52B218DF82010B2
:10147000012103E0F90704D02021F7E78A4608AEEE
:101480000DE00021FAE70A994FF00A0901C90A9113
:10149000F7E74946FEF7C8FE303106F8011D00287F
:1014A000F7D1ADEB060000F12009780701D44FF029
:1014B0000108C84502DDA8EB090000E000208046D5
:1014C000002706E008A85A46C05D0B9990476D1C9E
:1014D0007F1C5745F6DB04E030205A460B999047B5
:1014E0006D1CB8F10001A8F10108F5DC05E016F863
:1014F000010B5A460B9990476D1CB9F10001A9F1F7
:101500000109F4DC641C65E70928010013B54FF6F6
:10151000FF73012269460248FFF7FAFC00981CBDE0
:10152000840000201CB507490120CDE900010023FB
:10153000802205A1074800F01DFCBDE81C4000F01A
:1015400085BB00000000002073746172745F7461D9
:10155000736B000079190008FFF71AF8FFF7BAFD5E
:10156000FFF728FDFFF78EFD02A0FFF7F5FEFFF75E
:10157000D9FFFEE748656C6C6F2052544F530D0A3B
:10158000000000002DE9F047204C0F460546E668B4
:10159000D4F83490D4F838802068001D00F078FA30
:1015A00038B9206890F82C100120884021698143C7
:1015B0002161681C15D1A7B115492268486890605F
:1015C00023688268DA6022688368121D5A60226884
:1015D000121D8260206841610868401C0860BDE8F7
:1015E000F08720683544B5424560216805D2404601
:1015F000BDE8F047091D00F06BBA4846091D00F030
:1016000067FAA06A8542EAD2A562E8E740000020B6
:10161000C84500202DE9F041054600F07DFA364C22
:10162000A068401CA0602068344F10B1606940B3CE
:101630002DE02560A068012829D1002606EB860050
:1016400007EB800000F036FA761C052EF6D32B4807
:10165000643000F02FFA2948783000F02BFA274840
:101660008C3000F027FA2548A03000F023FA2348F8
:10167000B43000F01FFA2148643060631430A06376
:1016800005E02068E96AC06A884200D82560606A7F
:101690000121401C6062E86A226981401143216196
:1016A00000EB800007EB80004068A8608168E9607B
:1016B0008268291D51608160E86A00EB800007EBB9
:1016C0008001696157F82010491C47F8201000F08C
:1016D00031FA606900280CD02068E96AC06A884243
:1016E00007D207494FF080500860BFF34F8FBFF318
:1016F0006F8FBDE8F08100004000002014450020FD
:1017000004ED00E070B50C4C0C4E11E000F004FA52
:10171000F068C568281D00F0BBF9A068401EA060F5
:101720006068401E606000F005FA284600F008F886
:1017300060680028EAD170BD40000020B445002058
:1017400010B50446006B00F0FFF92046BDE81040DC
:1017500000F0FAB90E484FF48841420706D0C01D88
:101760000B4920F00700411AC1F58841094A0023BE
:101770000144C2E900030839143A21F0070111605D
:101780004B600B600B1AC0E9001393605360704705
:101790001401002034000020074C4FF08056074D04
:1017A000FFF7B0FF20680128FAD92E60BFF34F8FF2
:1017B000BFF36F8FF4E700001445002004ED00E054
:1017C0002DE9F0479946DDE9096480466FF003038F
:1017D000206B03EB8202089D104420F0070761B1E3
:1017E000002023180A5C83F834200A5C12B1401CE4
:1017F0001028F6D3002084F84300052D00D30425DB
:10180000201DE56200F061F904F1180000F05DF9B7
:101810002461C5F105006462A0614A46414638462C
:1018200000F098F82060002E00D03460BDE8F0870A
:1018300030B5114900E011460A688242FBD34B687B
:101840005C18844203D140681844486008464368E5
:101850001C18944209D1084C143C2468A24209D0B7
:1018600052681A4442600A6812680260814200D0DD
:10187000086030BD0460F9E7340000200548416B82
:10188000096821B1416BC9680968816270474FF0EE
:10189000FF31FAE740000020BF2080F31188BFF33A
:1018A0004F8FBFF36F8FFEE72DE9F04104004FF03B
:1018B00000060FD014F1090F0BD80834600709D0C7
:1018C00004F00700C0F10800C1438C4201D8044471
:1018D00000E0002400F0F2F91D4D286808B9FFF778
:1018E00039FF002C2FDD6B689C422CD8184814302F
:1018F0000146096801E0084611464A68A24202D240
:101900000A68002AF7D12A6891421CD006680A6842
:1019100002604A680836171B102F05D90A1957604C
:101920004C600468146002604A68981A6860AB688A
:10193000984200D2A86042F0004048600020086051
:10194000E868401CE86000F0C5FB3046BDE8F08167
:101950002000002010B5031F4FF080741C601B1F77
:1019600021F001011960191F024B0B601439403836
:101970000A6010BD991800081CB500F0CDF80F4999
:101980000220CDE90001002380220DA10E4800F0C5
:10199000F1F90A490320091DCDE900010023802245
:1019A0000AA10C4800F0E6F90448001F006800F0A6
:1019B000F9F8BDE81C4000F0BDB8000004000020AC
:1019C0007461736B31000000D91900087461736B86
:1019D00032000000311A000808B50AA0FFF7BCFC6D
:1019E0000D4D0E4E002428780028FCD00CA0FFF7E7
:1019F000B3FC009403232A780021B06800F0E8F9D2
:101A00002C70F0E77461736B312072756E6E696EC5
:101A1000672E2E2E0D0A00000C0000200000002072
:101A20007072657373206B657920310D0A000000B8
:101A30001CB50CA0FFF790FC0F4E4FF0FF350021B6
:101A400001AB01220846009500F03CFA044601284B
:101A5000F5D101213046FEF77FFD214607A0FFF7B3
:101A60007BFCECE77461736B322072756E6E696E8D
:101A7000672E2E2E0D0A0000000801407265636576
:101A800069766520696E666F3A2025640D0A00004C
:101A9000D0E9013201699A60D0E901235A604A68AD
:101AA000824201D182684A60002202610868401EB9
:101AB0000860704700F108014FF0FF32C0E90112E1
:101AC000C160016100210160704700210161704720
:101AD00030B50B685A1C02D000F1080202E002691E
:101AE00004E02246546825689D42FAD953684B6049
:101AF00099608A60516008610168491C016030BDCD
:101B000042684A6093688B6093685960916008618D
:101B10000168491C01607047BF2080F31188BFF342
:101B20004F8FBFF36F8F02480168491C01607047F7
:101B30003C00002003490868401E086001D180F382
:101B4000118870473C00002070B500281BD0A0F120
:101B500008046068002816DA2168002913D120F0F3
:101B60000040606000F0AAF8074D606869680844AA
:101B700068602046FFF75CFE2869401C2861BDE8CC
:101B8000704000F0A7BA70BD200000204FF0E020A8
:101B900000210161816102494161072101617047B2
:101BA0003F19010070B50546FFF7B6FF244C05B993
:101BB0002568281DFFF76CFF58B9E86A214A00EB39
:101BC000800152F8211021B9012181402069884308
:101BD0002061A86A18B105F11800FFF759FF606A83
:101BE000401C60622068854201D1012000E0002095
:101BF000616959B150B11348291DA030FFF780FF2A
:101C00006068401C6060FFF795FF09E0A068401E17
:101C1000A060FFF733FEFFF78DFF2846FFF790FD2A
:101C2000606900280AD02068854207D106494FF034
:101C300080500860BFF34F8FBFF36F8F70BD0000FF
:101C4000400000201445002004ED00E030B587B0CE
:101C50000024029403940494204602A9059413A23C
:101C6000125C0A5412B1401C0F28F8D30C541249CC
:101C70001048CDE900410023802202A900F07AF843
:101C80000D4D3C3D01280ED1BF2080F31188BFF3DC
:101C90004F8FBFF36F8F4FF0FF30A8620120686154
:101CA000EC6000F039F8E86A07B030BD49444C45B3
:101CB00000000000991700087C0000200248016B1A
:101CC000491C0163704700004000002010490A6B66
:101CD00001F11C0012B10121016070470022026075
:101CE00008690C4AB0FA80F0C0F11F0000EB8000D8
:101CF00002EB800000F108034268526842609A4299
:101D000001D1C2684260D06808600868704700006E
:101D10004000002014450020094810B5016841F436
:101D20007F010160016841F07F410160FFF72EFFF4
:101D3000044900200860FEF719FA002010BD0000D9
:101D400020ED00E03C00002010B5BF2080F311889A
:101D5000BFF34F8FBFF36F8F00F028F918B104491C
:101D60004FF080500860002080F3118810BD000003
:101D700004ED00E02DE9FF5F8346DDE90E878A462A
:101D8000164699469000FFF78FFD05001DD04C20A8
:101D9000FFF78AFD040015D04C21FEF73AFA2563BF
:101DA0000021CDE90241CDE900874B46324651463C
:101DB0005846FFF705FD2046FFF72CFC012004B034
:101DC000BDE8F09F2846FFF7BFFE4FF0FF30F6E773
:101DD0002DE9F047994615460F4604460126DDF8E1
:101DE0002080FFF799FE04EB8700B8F1000F02D0C6
:101DF000426CC8F80020E21912F8481F0223137041
:101E0000B9F1050F0ED2DFE809F00D03060C0A0048
:101E1000426C2A4301E0426C521C426402E00229F7
:101E200003D04564012902D041E000263FE0D4E917
:101E3000022061699060D4E9020250604A68201D66
:101E4000824201D1E2684A60002262610A681A4B4C
:101E5000521E0A60E16A01221D698A402A431A6102
:101E6000164A01EB810102EB81014968A1608D688E
:101E7000E5608D6868608860E06A00EB800002EBD6
:101E800080006061E06A00EB800052F82010491C7D
:101E900042F820101868E16AC06A884207D20849EF
:101EA0004FF080500860BFF34F8FBFF36F8FFFF785
:101EB00041FE3046BDE8F087400000201445002078
:101EC00004ED00E02DE9F0472F4C0546DDF82090A9
:101ED00020681E46924688460027284490F848000D
:101EE00002282ED05FEA09002BD0FFF7E7FEFFF7AC
:101EF00013FE2068284490F84800022813D0206878
:101F000000EB8500416C21EA080141642168012051
:101F1000294481F848000746FFF70CFE0121484696
:101F2000FFF730FB01E0FFF705FE00F0D3F847B103
:101F300038B916494FF080500860BFF34F8FBFF398
:101F40006F8FFFF7E9FD26B1206800EB8500406C3C
:101F500030602068284490F84800022801D000260C
:101F600007E0206800EB8500416C21EA0A0141642A
:101F7000012621680020294481F84800FFF7DAFD96
:101F80003046BDE8F08700004000002004ED00E08E
:101F90000548416919B1006B18B100207047012054
:101FA0007047022070470000400000202DE9F041FA
:101FB000464C0026206B28B1A069401CA061304629
:101FC000BDE8F081E5686D1CE56008D1606BA16B30
:101FD0006163A063206A401C2062FFF74FFCA16A86
:101FE0003B488D420FD34FF0000E616B096839B149
:101FF000616BC968C9684A68954214D2A26202E05E
:102000004FF0FF31A1622168C96A01EB810150F8EC
:102010002100012800D901262C481C300068002826
:10202000CDD00126CBE7D1E902724B69BA60D1E984
:1020300002277A605F680A1D974201D1CF685F600E
:10204000C1F814E01F687F1E1F60D1F828C0BCF1E2
:10205000000F15D0D1E907379F60D1E907377B60C2
:10206000DCF8047001F118039F4202D10B6ACCF82E
:102070000430C1F828E0DCF800305B1ECCF80030FA
:10208000CB6A0127D4F810C09F4047EA0C072761AC
:1020900003EB830300EB83035B688B609F68CF6077
:1020A0009F687A609A60CA6A02EB820200EB820340
:1020B0004B6150F822305B1C40F82230C96A22681C
:1020C000D26A914291D901268FE70000400000209A
:1020D000144500202DE9F04700242746FFF71CFD9A
:1020E000444D286B401E2863286B00287CD1A868CB
:1020F000DFF804C1A2464FF0010905F11C06E8BB58
:1021000072E000BFDCF80C00C468D4E90721A06AC3
:102110009160D4E907125160426804F118018A42C3
:1021200001D1216A4160C4F828A001685246491EC5
:102130000160D4E9023160699960D4E90213596001
:102140004368211D8B4201D1E368436062610268EC
:10215000521E0260E36AD5F810804A4609FA03F07D
:1021600040EA0800286103EB8300234B8C3B03EB20
:1021700080004068A060D0F8088000E017E0C4F854
:102180000C80D0F80880C8F804108160E06A00EB89
:10219000800003EB8001616153F82010491C43F873
:1021A0002010E06A2968C96A884200D93260DCF8E8
:1021B00000000028A6D10CB1FFF760FBAC6944B168
:1021C000FFF7F4FE08B1C6F80090641EF8D1C5F818
:1021D00018A0306840B1286801270849380708600E
:1021E000BFF34F8FBFF36F8FFFF7A4FC3846BDE8F6
:1021F000F087000040000020A045002004ED00E032
:10220000010202030405060708090A0B0C0D0E0F54
:102210001010000000000000000001020304060787
:102220000809000000000102030400004C2200081D
:10223000000000208400000098130008D02200084D
:10224000840000205C490000A81300080000000082
:10225000000000000000000000000000010000007D
:10226000100000000000000000127A0000000000D2
:10227000000000000000000000000000000000005E
:102280000000000000000000AAAAAAAA00000000A6
:10229000000000000000000000000000000000003E
:1022A000000000000000000000000000000000002E
:1022B000000000000000000004000000000000001A
:1022C000000000000000000000000000000000000E
:0400000508000131BD
:00000001FF
