:020000040800F2
:1000000080070020650200086F0D0008990C0008A9
:100010006D0D00086B030008E90D000800000000EA
:10002000000000000000000000000000CD010008FA
:100030006D0300080000000011020008710D0008A7
:100040007F0200087F0200087F0200087F0200088C
:100050007F0200087F0200087F0200087F0200087C
:100060007F0200087F0200087F0200087F0200086C
:100070007F0200087F0200087F0200087F0200085C
:100080007F0200087F0200087F0200087F0200084C
:100090007F0200087F0200087F0200088503000835
:1000A0007F0200087F0200087F0200087F0200082C
:1000B0007F0200087F0200087F0200087F0200081C
:1000C0007F0200087F0200087F0200087F0200080C
:1000D0007F0200087F0200087F0200087F020008FC
:1000E0006F0300087F0200087F0200087F020008FB
:1000F0007F0200087F0200087F0200087F020008DC
:100100007F0200087F0200087F0200087F020008CB
:100110007F0200087F0200087F0200087F020008BB
:100120007F0200087F0200087F0200087F020008AB
:1001300000F002F800F03AF80AA090E8000C8244BF
:100140008344AAF10107DA4501D100F02FF8AFF29C
:10015000090EBAE80F0013F0010F18BFFB1A43F0A5
:1001600001031847840F0000A40F0000103A24BFB9
:1001700078C878C1FAD8520724BF30C830C144BF0C
:1001800004680C607047000000230024002500264E
:10019000103A28BF78C1FBD8520728BF30C148BFEA
:1001A0000B6070471FB51FBD10B510BD00F0A4F85F
:1001B0001146FFF7F7FF00F029FE00F0C2F803B484
:1001C000FFF7F2FF03BC00F0C9F80000224B1968EA
:1001D0000868B0E8F00F80F30988BFF36F8F4FF025
:1001E000000080F311884EF00D0E704700000000F3
:1001F00006480068006880F3088862B661B6BFF3FD
:100200004F8FBFF36F8F00DF00BF00BF08ED00E02E
:10021000EFF30980BFF36F8F0F4B1A6820E9F00FDF
:10022000106008B54FF0BF0080F31188BFF34F8F07
:10023000BFF36F8F00F066FE4FF0000080F311886F
:10024000BDE8084019680868B0E8F00F80F3098835
:10025000BFF36F8F704700BF14000020EFF30580DD
:10026000704700000948804709480047FEE7FEE75D
:10027000FEE7FEE7FEE7FEE7FEE7FEE7FEE7FEE756
:1002800004480549054A064B70470000E70D000881
:100290003101000880010020800700208003002039
:1002A000800300204FF0000200B5134694469646A6
:1002B000203922BFA0E80C50A0E80C50B1F1200179
:1002C000BFF4F7AF090728BFA0E80C5048BF0CC027
:1002D0005DF804EB890028BF40F8042B08BF704785
:1002E00048BF20F8022B11F0804F18BF00F8012BF7
:1002F0007047704770477047754600F02BF8AE4660
:1003000005006946534620F00700854618B020B521
:10031000FFF7B6FFBDE820404FF000064FF00007A2
:100320004FF000084FF0000B21F00701AC46ACE89D
:10033000C009ACE8C009ACE8C009ACE8C0098D460A
:10034000704710B50446AFF300802046BDE810406A
:10035000FFF735BF004870471C01002001491820F5
:10036000ABBEFEE7260002007047FEE7704710B5FF
:100370004FF4806000F078F8BDE810404FF4006062
:1003800000F072B810B54FF4807000F06DF8BDE861
:1003900010404FF4007000F067B8000070B50446DC
:1003A00000F07CF90546601C02D004480078044443
:1003B00000F074F9401BA042FAD370BD0400002085
:1003C0002DE9F0414FF48074234EA04218D065000F
:1003D000A84227D0A500214FA84232D0E400A04275
:1003E0002DD10A20FFF7DAFF2146304600F044F90C
:1003F000012824D101213846BDE8F04100F041B97F
:100400000A20FFF7CBFF2146304600F035F90028DF
:1004100015D113480178491CC9B2017003290ED9BE
:1004200001210BE00A20FFF7B9FF2946304600F012
:1004300023F9002803D10B480178C9430170BDE8B6
:10044000F0810A20FFF7AAFF2946304600F014F990
:100450000128F4D12146CEE7001C014000080140EC
:100460000100002000000020044910B50A68024283
:1004700002D00860FFF7A4FF10BD00001404014083
:100480002DE9F84FDFF8C8910024A9F1040B2346A9
:100490000F2709F1040AABF1040ED1E00125A540B4
:1004A00006EA0502AA4276D1DFF8A8C14E68A6EB9B
:1004B0000C0866452BD00DDC032E34D005DC36B39A
:1004C000012E19D0022E2FD11BE0112E16D0122E84
:1004D0002AD119E0B8F5881F19D006DCB8F5803F9D
:1004E00015D0B8F5801F1FD111E0B8F5001F0ED050
:1004F000B8F5041F18D10AE0CB6815E0CB681B1DC6
:1005000012E0CB6808330FE0CB680C330CE08B684B
:100510002BB1012B4FF0080303D0456104E0042305
:1005200002E0056100E00023FF2A01D8064601E051
:1005300000F104064FEA840501D9A5F12005D6F89B
:10054000008007FA05FC28EA0C0803FA05F548EADA
:100550000508C6F800804D68ED0070D53E4DAE69C7
:1005600046F00106AE61AD6924F0030605F0010511
:1005700000953A4D06EB050CDCF80850A607360F3F
:1005800007FA06F825EA0805DFF8D480404503D1CC
:100590004FF0000825E052E0DFF8C880404502D166
:1005A0004FF001081DE0DFF8C080404502D14FF058
:1005B000020816E0DFF8B480404502D14FF003088E
:1005C0000FE0DFF8AC80404502D14FF0040808E0AE
:1005D000DFF8A080404502D14FF0050801E04FF060
:1005E000060808FA06F848EA0508CCF808804D68BD
:1005F000D9F80060ED024D4601D5164300E0964360
:100600002E604D68DAF80060AD02554601D51643FC
:1006100000E096432E604D68DBF80060AD035D4658
:1006200001D5164300E096432E604D68DEF8006069
:10063000ED03754601D5164300E096432E60641C19
:100640000A681646E2407FF429AFBDE8F88F000043
:100650000804014000001110001002400000014099
:1006600000080140000C014000100140001401404E
:1006700000180140001C01408068084000D00120A3
:100680007047C26821EA02030A4043EA024101615D
:1006900070470AB1016170470904FBE701488068AF
:1006A000704700000400002002488168027811446D
:1006B0008160704704000020074810B5016841F0D0
:1006C00010010160032000F075F8022000F006F828
:1006D00000F024F8002010BD0020024070B50D4D40
:1006E00004464FF47A712878B1FBF0F00A490968A2
:1006F000B1FBF0F000F0BCFA48B9102C07D2002290
:100700002146501E00F036F800206C6070BD0120BC
:1007100070BD000004000020100000200C4808B547
:10072000816941F001018161816901F0010100915C
:10073000C16941F08051C161C06900F080500090F2
:100740000448416821F0E06141F00071416008BD5A
:100750000010024000000140002809DB00F01F02E9
:10076000012191404009800000F1E020C0F8001113
:1007700070470000F0B40E4B1B680C46C3F3022315
:10078000C3F10705042D00D90425191D072901D23D
:10079000002300E0DB1E012606FA05F1491E214078
:1007A00099409E40761E16403143F0BC00F01DBBC0
:1007B0000CED00E0064900F0070208684FF6FF0361
:1007C000184040EA0220034A1043086070470000C6
:1007D0000CED00E00000FA052DE9F0470F4605009A
:1007E00061D0434E306800F00700B84209D230684B
:1007F00020F0070038433060306800F00700B8424E
:1008000051D128683B4C810712D5400703D5606859
:1008100040F4E06060602878000703D5606840F429
:10082000605060606068A96820F0F0000843606074
:100830002878C00728D06868012810D021680228CD
:1008400010D0890700292EDA616821F003010143E5
:100850006160FFF723FF804641F288390DE021688F
:100860008903EFE78901EDE7FFF718FFA0EB080127
:10087000494502D90320BDE8F0876068696800F047
:100880000C00B0EB810FEFD1306800F00700B842E8
:100890000BD9306820F0070038433060306800F032
:1008A0000700B84201D00120E5E72878400705D5C8
:1008B0006068E96820F4E060084360602878000719
:1008C00006D56068296920F4605040EAC100606084
:1008D00000F018F86168084AC1F30311515CC84080
:1008E0000649086006480068FFF7F8FE0020C2E7E6
:1008F0000020024000100240D81000081000002024
:10090000080000200E4A51680E4801F00C03042B29
:1009100011D0082B0FD10C48C1F38343C903C05C2D
:100920000AD55168084AC1F34041921E515C054AFC
:100930005043B0FBF1F07047044948437047000052
:100940000010024000127A00C810000800093D00A3
:100950002DE9F84F040070D02078C04DC00749D071
:100960006868C0F38100012807D06868C0F381007F
:10097000022809D16868C00306D52868800339D5E4
:1009800060680028E7D035E06068B0F5803F0BD0A4
:1009900010B1B0F5A02F11D0286820F48030286065
:1009A000286820F4802002E0286840F48030286025
:1009B000606890B1FFF772FE06460AE0286840F4CE
:1009C00080202860F0E700BFFFF768FE801B6428E6
:1009D00073D828688003F7D50CE0FFF75FFE064662
:1009E00005E000BFFFF75AFE801B6428F0D8286896
:1009F0008003F7D420789A4E80074FF001094FF01A
:100A0000000839D5686810F00C0F07D06868C0F38B
:100A10008100022809D16868C00306D428688007CD
:100A200014D52069012808D110E02069B0B1C6F8BA
:100A30000090FFF733FE074605E00AE1FFF72EFEC0
:100A4000C01B0228C4D828688007F7D528686169C8
:100A500020F0F80040EAC10028600DE0C6F80080F0
:100A6000FFF71CFE074604E0FFF718FEC01B022834
:100A700023D828688007F7D4207800072CD5794838
:100A8000A169D9B1C0F80090FFF708FE074604E05D
:100A9000FFF704FEC01B02280FD8686A8007F7D54D
:100AA00071484FF4FA510068B0FBF1F0009000BFBC
:100AB0000098411E0091FAD20EE080E0C0F800805C
:100AC000FFF7ECFD074604E0FFF7E8FDC01B022836
:100AD00075D8686A8007F7D42078400760D5E86940
:100AE0000027C00008D4E86940F08050E861E86958
:100AF000012700F0805000905C480168C90513D4BC
:100B00000168834641F480710160FFF7C7FD8246AA
:100B100006E000BFFFF7C2FDA0EB0A0064284ED834
:100B2000DBF80000C005F5D5E06801280AD008B15F
:100B3000052813D0286A20F001002862286A20F0D6
:100B4000040002E0286A40F001002862E06841F2F7
:100B5000883B98B1FFF7A2FD82460BE0286A40F07F
:100B600004002862EEE700BFFFF798FDA0EB0A0142
:100B700059455AD8286A8007F6D50CE0FFF78EFD54
:100B8000824605E0FFF78AFDA0EB0A0159454CD8E3
:100B9000286A8007F6D41FB1E86920F08050E86128
:100BA000E06988B36968C1F38101022944D0022851
:100BB000C6F8608004D0FFF771FD044638E034E0E9
:100BC000FFF76CFD074604E0FFF768FDC01B022835
:100BD0002BD828688001F7D4206AB0F5803F05D172
:100BE0006868A16820F4003008436860D4E908010F
:100BF0000843696821F4741108436860C6F860907E
:100C0000FFF74CFD044606E025E000BFFFF746FD78
:100C1000001B022809D828688001F7D51BE000BF17
:100C2000FFF73CFD001B022802D90320BDE8F88F26
:100C300028688001F4D40EE00128F7D06868226AA1
:100C400000F48031914204D1616A00F4701088424E
:100C500001D00120EAE70020E8E700000010024090
:100C60000000424280044242100000200070004018
:100C700010B5401EB0F1807F01D3012010BD4FF0B0
:100C8000E02460610F21601700F0AFF80020A06140
:100C900007202061002010BDFEE700002DE9F04193
:100CA00086B000242C480094019402940394816936
:100CB00041F010018161816901F0100104918169A5
:100CC00041F080018161816901F0800104918169B5
:100CD00041F0040181618069DFF8808000F0040048
:100CE00040F203160490012231464046FFF7D1FC42
:100CF0004FF4407000901A480125CDE90105194FC5
:100D000069463846FFF7BCFB4FF440600090164838
:100D100001900220029069463846FFF7B1FB03209C
:100D2000CDE90240CDE9006569464046FFF7A8FBE2
:100D3000002203211720FFF71DFD1720FFF70CFDF0
:100D4000002203212820FFF715FD2820FFF704FDCE
:100D500006B0BDE8F081000000100240000801402C
:100D600000002110001C014000001110FEE7FEE70A
:100D700010B5FFF799FC00F001F9012803D0BDE898
:100D8000104000F0E5B810BD30B58FB0282168469E
:100D9000FFF788FA14210AA8FFF784FA0121080452
:100DA000CDE900100024029402250491CDE90750FA
:100DB0004FF4E01009906846FFF7CAFD08B172B61B
:100DC000FEE70F20CDE90A054FF48060CDE90C4025
:100DD00002210AA80E94FFF7FFFC002801D072B68A
:100DE000FEE70FB030BD7047FEE70907090E002887
:100DF00004DB00F1E02080F80014704700F00F00E1
:100E000000F1E02080F8141D704700001CB5334944
:100E10000326D1E90001CDE90001FFF74DFCFFF702
:100E2000B3FFFFF73BFFDFF8B8802E4D6F4600BFE2
:100E300098F80010D1B100244FF4FA7937F8141063
:100E400000222846FFF725FC4846FFF7A7FA37F8A7
:100E5000141001222846FFF71CFC98F80000002817
:100E6000E6D0641CE4B2B442E8D3E1E798F80100AC
:100E7000012816D0022822D00328D9D15FF000041F
:100E8000012237F814102846FFF703FC641CE4B273
:100E9000B442F5D300224FF480712846FFF7F9FBE6
:100EA000C6E70024012237F814102846FFF7F1FBAB
:100EB000641CE4B2B442F5D300220121EDE7002422
:100EC000012237F814102846FFF7E3FB641CE4B254
:100ED000B442F5D300220221DFE70000C010000871
:100EE00000000020000801400548416B096821B15D
:100EF000416BC9680968816270474FF0FF31FAE7BA
:100F00001400002010490A6B01F11C0012B10121EC
:100F1000016070470022026008690C4AB0FA80F054
:100F2000C0F11F0000EB800002EB800000F108031D
:100F30004268526842609A4201D1C2684260D068F9
:100F4000086008687047000014000020540000206A
:100F500010B5BF2080F31188BFF34F8FBFF36F8FA1
:100F600000F01AF818B104494FF0805008600020D2
:100F700080F3118810BD000004ED00E005484169D0
:100F800019B1006B18B10020704701207047022092
:100F900070470000140000202DE9F041464C002667
:100FA000206B28B1A069401CA0613046BDE8F081EB
:100FB000E5686D1CE56008D1606BA16B6163A0639F
:100FC000206A401C2062FFF78FFFA16A3B488D42D8
:100FD0000FD34FF0000E616B096839B1616BC968BE
:100FE000C9684A68954214D2A26202E04FF0FF310C
:100FF000A1622168C96A01EB810150F82100012832
:1010000000D901262C481C3000680028CDD00126CC
:10101000CBE7D1E902724B69BA60D1E902277A6065
:101020005F680A1D974201D1CF685F60C1F814E084
:101030001F687F1E1F60D1F828C0BCF1000F15D0BB
:10104000D1E907379F60D1E907377B60DCF804708E
:1010500001F118039F4202D10B6ACCF80430C1F8A9
:1010600028E0DCF800305B1ECCF80030CB6A0127AA
:10107000D4F810C09F4047EA0C07276103EB8303B5
:1010800000EB83035B688B609F68CF609F687A602A
:101090009A60CA6A02EB820200EB82034B6150F84D
:1010A00022305B1C40F82230C96A2268D26A914221
:1010B00091D901268FE70000140000205400002081
:1010C00001000200000101020203040506070809ED
:1010D0000A0B0C0D0E0F10100000000000000000A5
:1010E0000102030406070809081100080000002097
:1010F000540000006C0100085C110008540000203E
:101100002C0700008801000800000000010000001A
:10111000100000000000000000127A000000000033
:1011200000000000000000000000000000000000BF
:1011300000000000000000000000000000000000AF
:10114000000000000000000004000000000000009B
:0C11500000000000000000000000000093
:0400000508000131BD
:00000001FF
